{
	"contracts/ICO/MyICO.sol": {
		"MyICO": {
			"abi": [
				{
					"inputs": [
						{
							"internalType": "address",
							"name": "token",
							"type": "address"
						},
						{
							"internalType": "address",
							"name": "admin",
							"type": "address"
						}
					],
					"stateMutability": "nonpayable",
					"type": "constructor"
				},
				{
					"anonymous": false,
					"inputs": [
						{
							"indexed": true,
							"internalType": "address",
							"name": "receiverAddress",
							"type": "address"
						},
						{
							"indexed": true,
							"internalType": "uint256",
							"name": "amount",
							"type": "uint256"
						}
					],
					"name": "Airdrop",
					"type": "event"
				},
				{
					"anonymous": false,
					"inputs": [
						{
							"indexed": true,
							"internalType": "address",
							"name": "buyerAddress",
							"type": "address"
						},
						{
							"indexed": true,
							"internalType": "uint256",
							"name": "amount",
							"type": "uint256"
						}
					],
					"name": "Buy",
					"type": "event"
				},
				{
					"inputs": [],
					"name": "_admin",
					"outputs": [
						{
							"internalType": "address",
							"name": "",
							"type": "address"
						}
					],
					"stateMutability": "view",
					"type": "function"
				},
				{
					"inputs": [],
					"name": "_holdesCount",
					"outputs": [
						{
							"internalType": "uint256",
							"name": "",
							"type": "uint256"
						}
					],
					"stateMutability": "view",
					"type": "function"
				},
				{
					"inputs": [
						{
							"internalType": "uint256",
							"name": "duration",
							"type": "uint256"
						}
					],
					"name": "activate",
					"outputs": [],
					"stateMutability": "nonpayable",
					"type": "function"
				},
				{
					"inputs": [
						{
							"internalType": "address",
							"name": "receiver",
							"type": "address"
						}
					],
					"name": "airdrop",
					"outputs": [],
					"stateMutability": "nonpayable",
					"type": "function"
				},
				{
					"inputs": [
						{
							"internalType": "address",
							"name": "account",
							"type": "address"
						}
					],
					"name": "balanceOfEth",
					"outputs": [
						{
							"internalType": "uint256",
							"name": "",
							"type": "uint256"
						}
					],
					"stateMutability": "view",
					"type": "function"
				},
				{
					"inputs": [
						{
							"internalType": "address",
							"name": "account",
							"type": "address"
						}
					],
					"name": "balanceOfTokens",
					"outputs": [
						{
							"internalType": "uint256",
							"name": "",
							"type": "uint256"
						}
					],
					"stateMutability": "view",
					"type": "function"
				},
				{
					"inputs": [],
					"name": "deactivate",
					"outputs": [],
					"stateMutability": "nonpayable",
					"type": "function"
				},
				{
					"inputs": [
						{
							"internalType": "uint256",
							"name": "amount",
							"type": "uint256"
						}
					],
					"name": "depositTokens",
					"outputs": [],
					"stateMutability": "nonpayable",
					"type": "function"
				},
				{
					"inputs": [],
					"name": "getICOAdr",
					"outputs": [
						{
							"internalType": "address",
							"name": "",
							"type": "address"
						}
					],
					"stateMutability": "view",
					"type": "function"
				},
				{
					"inputs": [],
					"name": "getTokenAdr",
					"outputs": [
						{
							"internalType": "address",
							"name": "",
							"type": "address"
						}
					],
					"stateMutability": "view",
					"type": "function"
				},
				{
					"inputs": [
						{
							"internalType": "address",
							"name": "",
							"type": "address"
						}
					],
					"name": "isInList",
					"outputs": [
						{
							"internalType": "bool",
							"name": "",
							"type": "bool"
						}
					],
					"stateMutability": "view",
					"type": "function"
				},
				{
					"inputs": [
						{
							"internalType": "uint256",
							"name": "amount",
							"type": "uint256"
						}
					],
					"name": "purchase",
					"outputs": [],
					"stateMutability": "payable",
					"type": "function"
				},
				{
					"inputs": [
						{
							"internalType": "address",
							"name": "newAdmin",
							"type": "address"
						}
					],
					"name": "updateAdmin",
					"outputs": [
						{
							"internalType": "bool",
							"name": "",
							"type": "bool"
						}
					],
					"stateMutability": "nonpayable",
					"type": "function"
				},
				{
					"inputs": [
						{
							"internalType": "uint256",
							"name": "amount",
							"type": "uint256"
						}
					],
					"name": "withdrawEth",
					"outputs": [],
					"stateMutability": "nonpayable",
					"type": "function"
				},
				{
					"inputs": [
						{
							"internalType": "uint256",
							"name": "amount",
							"type": "uint256"
						}
					],
					"name": "withdrawTokens",
					"outputs": [],
					"stateMutability": "nonpayable",
					"type": "function"
				}
			],
			"devdoc": {
				"kind": "dev",
				"methods": {},
				"version": 1
			},
			"evm": {
				"assembly": "    /* \"contracts/ICO/MyICO.sol\":117:3746  contract MyICO {... */\n  mstore(0x40, 0x80)\n    /* \"contracts/ICO/MyICO.sol\":225:235  10**15 wei */\n  0x038d7ea4c68000\n    /* \"contracts/ICO/MyICO.sol\":198:235  uint private _tokenPrice = 10**15 wei */\n  0x02\n  sstore\n    /* \"contracts/ICO/MyICO.sol\":272:282  100 * 1e18 */\n  0x056bc75e2d63100000\n    /* \"contracts/ICO/MyICO.sol\":242:282  uint private _airdropAmount = 100 * 1e18 */\n  0x03\n  sstore\n    /* \"contracts/ICO/MyICO.sol\":363:379  1_000_000 * 1e18 */\n  0xd3c21bcecceda1000000\n    /* \"contracts/ICO/MyICO.sol\":330:379  uint private _maxAirdropAmount = 1_000_000 * 1e18 */\n  0x05\n  sstore\n    /* \"contracts/ICO/MyICO.sol\":740:847  constructor(address token,address admin) {... */\n  callvalue\n  dup1\n  iszero\n  tag_1\n  jumpi\n  0x00\n  dup1\n  revert\ntag_1:\n  pop\n  mload(0x40)\n  sub(codesize, bytecodeSize)\n  dup1\n  bytecodeSize\n  dup4\n  codecopy\n  dup2\n  dup2\n  add\n  0x40\n  mstore\n  dup2\n  add\n  swap1\n  tag_2\n  swap2\n  swap1\n  tag_3\n  jump\t// in\ntag_2:\n    /* \"contracts/ICO/MyICO.sol\":808:813  token */\n  dup2\n    /* \"contracts/ICO/MyICO.sol\":792:798  _token */\n  0x01\n  0x00\n    /* \"contracts/ICO/MyICO.sol\":792:814  _token = IERC20(token) */\n  0x0100\n  exp\n  dup2\n  sload\n  dup2\n  0xffffffffffffffffffffffffffffffffffffffff\n  mul\n  not\n  and\n  swap1\n  dup4\n  0xffffffffffffffffffffffffffffffffffffffff\n  and\n  mul\n  or\n  swap1\n  sstore\n  pop\n    /* \"contracts/ICO/MyICO.sol\":834:839  admin */\n  dup1\n    /* \"contracts/ICO/MyICO.sol\":825:831  _admin */\n  0x00\n  dup1\n    /* \"contracts/ICO/MyICO.sol\":825:839  _admin = admin */\n  0x0100\n  exp\n  dup2\n  sload\n  dup2\n  0xffffffffffffffffffffffffffffffffffffffff\n  mul\n  not\n  and\n  swap1\n  dup4\n  0xffffffffffffffffffffffffffffffffffffffff\n  and\n  mul\n  or\n  swap1\n  sstore\n  pop\n    /* \"contracts/ICO/MyICO.sol\":740:847  constructor(address token,address admin) {... */\n  pop\n  pop\n    /* \"contracts/ICO/MyICO.sol\":117:3746  contract MyICO {... */\n  jump(tag_6)\n    /* \"#utility.yul\":88:205   */\ntag_8:\n    /* \"#utility.yul\":197:198   */\n  0x00\n    /* \"#utility.yul\":194:195   */\n  dup1\n    /* \"#utility.yul\":187:199   */\n  revert\n    /* \"#utility.yul\":334:460   */\ntag_10:\n    /* \"#utility.yul\":371:378   */\n  0x00\n    /* \"#utility.yul\":411:453   */\n  0xffffffffffffffffffffffffffffffffffffffff\n    /* \"#utility.yul\":404:409   */\n  dup3\n    /* \"#utility.yul\":400:454   */\n  and\n    /* \"#utility.yul\":389:454   */\n  swap1\n  pop\n    /* \"#utility.yul\":334:460   */\n  swap2\n  swap1\n  pop\n  jump\t// out\n    /* \"#utility.yul\":466:562   */\ntag_11:\n    /* \"#utility.yul\":503:510   */\n  0x00\n    /* \"#utility.yul\":532:556   */\n  tag_20\n    /* \"#utility.yul\":550:555   */\n  dup3\n    /* \"#utility.yul\":532:556   */\n  tag_10\n  jump\t// in\ntag_20:\n    /* \"#utility.yul\":521:556   */\n  swap1\n  pop\n    /* \"#utility.yul\":466:562   */\n  swap2\n  swap1\n  pop\n  jump\t// out\n    /* \"#utility.yul\":568:690   */\ntag_12:\n    /* \"#utility.yul\":641:665   */\n  tag_22\n    /* \"#utility.yul\":659:664   */\n  dup2\n    /* \"#utility.yul\":641:665   */\n  tag_11\n  jump\t// in\ntag_22:\n    /* \"#utility.yul\":634:639   */\n  dup2\n    /* \"#utility.yul\":631:666   */\n  eq\n    /* \"#utility.yul\":621:684   */\n  tag_23\n  jumpi\n    /* \"#utility.yul\":680:681   */\n  0x00\n    /* \"#utility.yul\":677:678   */\n  dup1\n    /* \"#utility.yul\":670:682   */\n  revert\n    /* \"#utility.yul\":621:684   */\ntag_23:\n    /* \"#utility.yul\":568:690   */\n  pop\n  jump\t// out\n    /* \"#utility.yul\":696:839   */\ntag_13:\n    /* \"#utility.yul\":753:758   */\n  0x00\n    /* \"#utility.yul\":784:790   */\n  dup2\n    /* \"#utility.yul\":778:791   */\n  mload\n    /* \"#utility.yul\":769:791   */\n  swap1\n  pop\n    /* \"#utility.yul\":800:833   */\n  tag_25\n    /* \"#utility.yul\":827:832   */\n  dup2\n    /* \"#utility.yul\":800:833   */\n  tag_12\n  jump\t// in\ntag_25:\n    /* \"#utility.yul\":696:839   */\n  swap3\n  swap2\n  pop\n  pop\n  jump\t// out\n    /* \"#utility.yul\":845:1352   */\ntag_3:\n    /* \"#utility.yul\":924:930   */\n  0x00\n    /* \"#utility.yul\":932:938   */\n  dup1\n    /* \"#utility.yul\":981:983   */\n  0x40\n    /* \"#utility.yul\":969:978   */\n  dup4\n    /* \"#utility.yul\":960:967   */\n  dup6\n    /* \"#utility.yul\":956:979   */\n  sub\n    /* \"#utility.yul\":952:984   */\n  slt\n    /* \"#utility.yul\":949:1068   */\n  iszero\n  tag_27\n  jumpi\n    /* \"#utility.yul\":987:1066   */\n  tag_28\n  tag_8\n  jump\t// in\ntag_28:\n    /* \"#utility.yul\":949:1068   */\ntag_27:\n    /* \"#utility.yul\":1107:1108   */\n  0x00\n    /* \"#utility.yul\":1132:1196   */\n  tag_29\n    /* \"#utility.yul\":1188:1195   */\n  dup6\n    /* \"#utility.yul\":1179:1185   */\n  dup3\n    /* \"#utility.yul\":1168:1177   */\n  dup7\n    /* \"#utility.yul\":1164:1186   */\n  add\n    /* \"#utility.yul\":1132:1196   */\n  tag_13\n  jump\t// in\ntag_29:\n    /* \"#utility.yul\":1122:1196   */\n  swap3\n  pop\n    /* \"#utility.yul\":1078:1206   */\n  pop\n    /* \"#utility.yul\":1245:1247   */\n  0x20\n    /* \"#utility.yul\":1271:1335   */\n  tag_30\n    /* \"#utility.yul\":1327:1334   */\n  dup6\n    /* \"#utility.yul\":1318:1324   */\n  dup3\n    /* \"#utility.yul\":1307:1316   */\n  dup7\n    /* \"#utility.yul\":1303:1325   */\n  add\n    /* \"#utility.yul\":1271:1335   */\n  tag_13\n  jump\t// in\ntag_30:\n    /* \"#utility.yul\":1261:1335   */\n  swap2\n  pop\n    /* \"#utility.yul\":1216:1345   */\n  pop\n    /* \"#utility.yul\":845:1352   */\n  swap3\n  pop\n  swap3\n  swap1\n  pop\n  jump\t// out\n    /* \"contracts/ICO/MyICO.sol\":117:3746  contract MyICO {... */\ntag_6:\n  dataSize(sub_0)\n  dup1\n  dataOffset(sub_0)\n  0x00\n  codecopy\n  0x00\n  return\nstop\n\nsub_0: assembly {\n        /* \"contracts/ICO/MyICO.sol\":117:3746  contract MyICO {... */\n      mstore(0x40, 0x80)\n      jumpi(tag_1, lt(calldatasize, 0x04))\n      shr(0xe0, calldataload(0x00))\n      dup1\n      0x446909e9\n      gt\n      tag_17\n      jumpi\n      dup1\n      0xdd49756e\n      gt\n      tag_18\n      jumpi\n      dup1\n      0xdd49756e\n      eq\n      tag_13\n      jumpi\n      dup1\n      0xe2f273bd\n      eq\n      tag_14\n      jumpi\n      dup1\n      0xefef39a1\n      eq\n      tag_15\n      jumpi\n      dup1\n      0xfa33bcf3\n      eq\n      tag_16\n      jumpi\n      jump(tag_1)\n    tag_18:\n      dup1\n      0x446909e9\n      eq\n      tag_9\n      jumpi\n      dup1\n      0x51b42b00\n      eq\n      tag_10\n      jumpi\n      dup1\n      0xb260c42a\n      eq\n      tag_11\n      jumpi\n      dup1\n      0xc311d049\n      eq\n      tag_12\n      jumpi\n      jump(tag_1)\n    tag_17:\n      dup1\n      0x2ff57da8\n      gt\n      tag_19\n      jumpi\n      dup1\n      0x2ff57da8\n      eq\n      tag_5\n      jumpi\n      dup1\n      0x315a095d\n      eq\n      tag_6\n      jumpi\n      dup1\n      0x3366ef54\n      eq\n      tag_7\n      jumpi\n      dup1\n      0x40654e14\n      eq\n      tag_8\n      jumpi\n      jump(tag_1)\n    tag_19:\n      dup1\n      0x01bc45c9\n      eq\n      tag_2\n      jumpi\n      dup1\n      0x1380a1cc\n      eq\n      tag_3\n      jumpi\n      dup1\n      0x21860a05\n      eq\n      tag_4\n      jumpi\n    tag_1:\n      0x00\n      dup1\n      revert\n        /* \"contracts/ICO/MyICO.sol\":141:163  address public  _admin */\n    tag_2:\n      callvalue\n      dup1\n      iszero\n      tag_20\n      jumpi\n      0x00\n      dup1\n      revert\n    tag_20:\n      pop\n      tag_21\n      tag_22\n      jump\t// in\n    tag_21:\n      mload(0x40)\n      tag_23\n      swap2\n      swap1\n      tag_24\n      jump\t// in\n    tag_23:\n      mload(0x40)\n      dup1\n      swap2\n      sub\n      swap1\n      return\n        /* \"contracts/ICO/MyICO.sol\":3503:3602  function getTokenAdr() public view returns(address) ... */\n    tag_3:\n      callvalue\n      dup1\n      iszero\n      tag_25\n      jumpi\n      0x00\n      dup1\n      revert\n    tag_25:\n      pop\n      tag_26\n      tag_27\n      jump\t// in\n    tag_26:\n      mload(0x40)\n      tag_28\n      swap2\n      swap1\n      tag_24\n      jump\t// in\n    tag_28:\n      mload(0x40)\n      dup1\n      swap2\n      sub\n      swap1\n      return\n        /* \"contracts/ICO/MyICO.sol\":1586:2287  function airdrop(address receiver) external icoIsActive... */\n    tag_4:\n      callvalue\n      dup1\n      iszero\n      tag_29\n      jumpi\n      0x00\n      dup1\n      revert\n    tag_29:\n      pop\n      tag_30\n      0x04\n      dup1\n      calldatasize\n      sub\n      dup2\n      add\n      swap1\n      tag_31\n      swap2\n      swap1\n      tag_32\n      jump\t// in\n    tag_31:\n      tag_33\n      jump\t// in\n    tag_30:\n      stop\n        /* \"contracts/ICO/MyICO.sol\":3268:3392  function balanceOfTokens(address account) public view returns(uint)... */\n    tag_5:\n      callvalue\n      dup1\n      iszero\n      tag_34\n      jumpi\n      0x00\n      dup1\n      revert\n    tag_34:\n      pop\n      tag_35\n      0x04\n      dup1\n      calldatasize\n      sub\n      dup2\n      add\n      swap1\n      tag_36\n      swap2\n      swap1\n      tag_32\n      jump\t// in\n    tag_36:\n      tag_37\n      jump\t// in\n    tag_35:\n      mload(0x40)\n      tag_38\n      swap2\n      swap1\n      tag_39\n      jump\t// in\n    tag_38:\n      mload(0x40)\n      dup1\n      swap2\n      sub\n      swap1\n      return\n        /* \"contracts/ICO/MyICO.sol\":2718:2906  function withdrawTokens(uint amount) external OnlyAdmin... */\n    tag_6:\n      callvalue\n      dup1\n      iszero\n      tag_40\n      jumpi\n      0x00\n      dup1\n      revert\n    tag_40:\n      pop\n      tag_41\n      0x04\n      dup1\n      calldatasize\n      sub\n      dup2\n      add\n      swap1\n      tag_42\n      swap2\n      swap1\n      tag_43\n      jump\t// in\n    tag_42:\n      tag_44\n      jump\t// in\n    tag_41:\n      stop\n        /* \"contracts/ICO/MyICO.sol\":3400:3495  function getICOAdr() public view returns(address) ... */\n    tag_7:\n      callvalue\n      dup1\n      iszero\n      tag_45\n      jumpi\n      0x00\n      dup1\n      revert\n    tag_45:\n      pop\n      tag_46\n      tag_47\n      jump\t// in\n    tag_46:\n      mload(0x40)\n      tag_48\n      swap2\n      swap1\n      tag_24\n      jump\t// in\n    tag_48:\n      mload(0x40)\n      dup1\n      swap2\n      sub\n      swap1\n      return\n        /* \"contracts/ICO/MyICO.sol\":3145:3256  function balanceOfEth(address account) public view returns(uint)... */\n    tag_8:\n      callvalue\n      dup1\n      iszero\n      tag_49\n      jumpi\n      0x00\n      dup1\n      revert\n    tag_49:\n      pop\n      tag_50\n      0x04\n      dup1\n      calldatasize\n      sub\n      dup2\n      add\n      swap1\n      tag_51\n      swap2\n      swap1\n      tag_32\n      jump\t// in\n    tag_51:\n      tag_52\n      jump\t// in\n    tag_50:\n      mload(0x40)\n      tag_53\n      swap2\n      swap1\n      tag_39\n      jump\t// in\n    tag_53:\n      mload(0x40)\n      dup1\n      swap2\n      sub\n      swap1\n      return\n        /* \"contracts/ICO/MyICO.sol\":417:441  uint public _holdesCount */\n    tag_9:\n      callvalue\n      dup1\n      iszero\n      tag_54\n      jumpi\n      0x00\n      dup1\n      revert\n    tag_54:\n      pop\n      tag_55\n      tag_56\n      jump\t// in\n    tag_55:\n      mload(0x40)\n      tag_57\n      swap2\n      swap1\n      tag_39\n      jump\t// in\n    tag_57:\n      mload(0x40)\n      dup1\n      swap2\n      sub\n      swap1\n      return\n        /* \"contracts/ICO/MyICO.sol\":1364:1450  function deactivate() external OnlyAdmin icoIsActive{... */\n    tag_10:\n      callvalue\n      dup1\n      iszero\n      tag_58\n      jumpi\n      0x00\n      dup1\n      revert\n    tag_58:\n      pop\n      tag_59\n      tag_60\n      jump\t// in\n    tag_59:\n      stop\n        /* \"contracts/ICO/MyICO.sol\":1185:1356  function activate(uint duration) external OnlyAdmin icoIsDeActive{... */\n    tag_11:\n      callvalue\n      dup1\n      iszero\n      tag_61\n      jumpi\n      0x00\n      dup1\n      revert\n    tag_61:\n      pop\n      tag_62\n      0x04\n      dup1\n      calldatasize\n      sub\n      dup2\n      add\n      swap1\n      tag_63\n      swap2\n      swap1\n      tag_43\n      jump\t// in\n    tag_63:\n      tag_64\n      jump\t// in\n    tag_62:\n      stop\n        /* \"contracts/ICO/MyICO.sol\":2914:3098  function withdrawEth(uint amount) external OnlyAdmin ... */\n    tag_12:\n      callvalue\n      dup1\n      iszero\n      tag_65\n      jumpi\n      0x00\n      dup1\n      revert\n    tag_65:\n      pop\n      tag_66\n      0x04\n      dup1\n      calldatasize\n      sub\n      dup2\n      add\n      swap1\n      tag_67\n      swap2\n      swap1\n      tag_43\n      jump\t// in\n    tag_67:\n      tag_68\n      jump\t// in\n    tag_66:\n      stop\n        /* \"contracts/ICO/MyICO.sol\":1458:1578  function depositTokens(uint amount) public ... */\n    tag_13:\n      callvalue\n      dup1\n      iszero\n      tag_69\n      jumpi\n      0x00\n      dup1\n      revert\n    tag_69:\n      pop\n      tag_70\n      0x04\n      dup1\n      calldatasize\n      sub\n      dup2\n      add\n      swap1\n      tag_71\n      swap2\n      swap1\n      tag_43\n      jump\t// in\n    tag_71:\n      tag_72\n      jump\t// in\n    tag_70:\n      stop\n        /* \"contracts/ICO/MyICO.sol\":3610:3743  function updateAdmin(address newAdmin) public OnlyAdmin returns(bool)... */\n    tag_14:\n      callvalue\n      dup1\n      iszero\n      tag_73\n      jumpi\n      0x00\n      dup1\n      revert\n    tag_73:\n      pop\n      tag_74\n      0x04\n      dup1\n      calldatasize\n      sub\n      dup2\n      add\n      swap1\n      tag_75\n      swap2\n      swap1\n      tag_32\n      jump\t// in\n    tag_75:\n      tag_76\n      jump\t// in\n    tag_74:\n      mload(0x40)\n      tag_77\n      swap2\n      swap1\n      tag_78\n      jump\t// in\n    tag_77:\n      mload(0x40)\n      dup1\n      swap2\n      sub\n      swap1\n      return\n        /* \"contracts/ICO/MyICO.sol\":2295:2710  function purchase(uint amount) external payable  icoIsActive... */\n    tag_15:\n      tag_79\n      0x04\n      dup1\n      calldatasize\n      sub\n      dup2\n      add\n      swap1\n      tag_80\n      swap2\n      swap1\n      tag_43\n      jump\t// in\n    tag_80:\n      tag_81\n      jump\t// in\n    tag_79:\n      stop\n        /* \"contracts/ICO/MyICO.sol\":547:588  mapping (address => bool) public isInList */\n    tag_16:\n      callvalue\n      dup1\n      iszero\n      tag_82\n      jumpi\n      0x00\n      dup1\n      revert\n    tag_82:\n      pop\n      tag_83\n      0x04\n      dup1\n      calldatasize\n      sub\n      dup2\n      add\n      swap1\n      tag_84\n      swap2\n      swap1\n      tag_32\n      jump\t// in\n    tag_84:\n      tag_85\n      jump\t// in\n    tag_83:\n      mload(0x40)\n      tag_86\n      swap2\n      swap1\n      tag_78\n      jump\t// in\n    tag_86:\n      mload(0x40)\n      dup1\n      swap2\n      sub\n      swap1\n      return\n        /* \"contracts/ICO/MyICO.sol\":141:163  address public  _admin */\n    tag_22:\n      0x00\n      dup1\n      sload\n      swap1\n      0x0100\n      exp\n      swap1\n      div\n      0xffffffffffffffffffffffffffffffffffffffff\n      and\n      dup2\n      jump\t// out\n        /* \"contracts/ICO/MyICO.sol\":3503:3602  function getTokenAdr() public view returns(address) ... */\n    tag_27:\n        /* \"contracts/ICO/MyICO.sol\":3546:3553  address */\n      0x00\n        /* \"contracts/ICO/MyICO.sol\":3587:3593  _token */\n      0x01\n      0x00\n      swap1\n      sload\n      swap1\n      0x0100\n      exp\n      swap1\n      div\n      0xffffffffffffffffffffffffffffffffffffffff\n      and\n        /* \"contracts/ICO/MyICO.sol\":3572:3594  return address(_token) */\n      swap1\n      pop\n        /* \"contracts/ICO/MyICO.sol\":3503:3602  function getTokenAdr() public view returns(address) ... */\n      swap1\n      jump\t// out\n        /* \"contracts/ICO/MyICO.sol\":1586:2287  function airdrop(address receiver) external icoIsActive... */\n    tag_33:\n        /* \"contracts/ICO/MyICO.sol\":1027:1042  block.timestamp */\n      timestamp\n        /* \"contracts/ICO/MyICO.sol\":1013:1024  _icoEndTime */\n      sload(0x06)\n        /* \"contracts/ICO/MyICO.sol\":1013:1042  _icoEndTime > block.timestamp */\n      gt\n        /* \"contracts/ICO/MyICO.sol\":1005:1057  require(_icoEndTime > block.timestamp,\"icoIsActive\") */\n      tag_89\n      jumpi\n      mload(0x40)\n      0x08c379a000000000000000000000000000000000000000000000000000000000\n      dup2\n      mstore\n      0x04\n      add\n      tag_90\n      swap1\n      tag_91\n      jump\t// in\n    tag_90:\n      mload(0x40)\n      dup1\n      swap2\n      sub\n      swap1\n      revert\n    tag_89:\n        /* \"contracts/ICO/MyICO.sol\":1688:1689  0 */\n      0x00\n        /* \"contracts/ICO/MyICO.sol\":1666:1674  airdrops */\n      0x08\n        /* \"contracts/ICO/MyICO.sol\":1666:1684  airdrops[receiver] */\n      0x00\n        /* \"contracts/ICO/MyICO.sol\":1675:1683  receiver */\n      dup4\n        /* \"contracts/ICO/MyICO.sol\":1666:1684  airdrops[receiver] */\n      0xffffffffffffffffffffffffffffffffffffffff\n      and\n      0xffffffffffffffffffffffffffffffffffffffff\n      and\n      dup2\n      mstore\n      0x20\n      add\n      swap1\n      dup2\n      mstore\n      0x20\n      add\n      0x00\n      keccak256\n      sload\n        /* \"contracts/ICO/MyICO.sol\":1666:1689  airdrops[receiver] == 0 */\n      eq\n        /* \"contracts/ICO/MyICO.sol\":1658:1719  require(airdrops[receiver] == 0,\"airdrop : Already has that\") */\n      tag_93\n      jumpi\n      mload(0x40)\n      0x08c379a000000000000000000000000000000000000000000000000000000000\n      dup2\n      mstore\n      0x04\n      add\n      tag_94\n      swap1\n      tag_95\n      jump\t// in\n    tag_94:\n      mload(0x40)\n      dup1\n      swap2\n      sub\n      swap1\n      revert\n    tag_93:\n        /* \"contracts/ICO/MyICO.sol\":1780:1797  _maxAirdropAmount */\n      sload(0x05)\n        /* \"contracts/ICO/MyICO.sol\":1762:1776  _airdropAmount */\n      sload(0x03)\n        /* \"contracts/ICO/MyICO.sol\":1738:1759  _totalReleasedAirdrop */\n      sload(0x04)\n        /* \"contracts/ICO/MyICO.sol\":1738:1776  _totalReleasedAirdrop + _airdropAmount */\n      tag_96\n      swap2\n      swap1\n      tag_97\n      jump\t// in\n    tag_96:\n        /* \"contracts/ICO/MyICO.sol\":1738:1797  _totalReleasedAirdrop + _airdropAmount <= _maxAirdropAmount */\n      gt\n      iszero\n        /* \"contracts/ICO/MyICO.sol\":1730:1818  require(_totalReleasedAirdrop + _airdropAmount <= _maxAirdropAmount,\"_maxAirdropAmount\") */\n      tag_98\n      jumpi\n      mload(0x40)\n      0x08c379a000000000000000000000000000000000000000000000000000000000\n      dup2\n      mstore\n      0x04\n      add\n      tag_99\n      swap1\n      tag_100\n      jump\t// in\n    tag_99:\n      mload(0x40)\n      dup1\n      swap2\n      sub\n      swap1\n      revert\n    tag_98:\n        /* \"contracts/ICO/MyICO.sol\":1871:1885  _airdropAmount */\n      sload(0x03)\n        /* \"contracts/ICO/MyICO.sol\":1837:1867  balanceOfTokens(address(this)) */\n      tag_101\n        /* \"contracts/ICO/MyICO.sol\":1861:1865  this */\n      address\n        /* \"contracts/ICO/MyICO.sol\":1837:1852  balanceOfTokens */\n      tag_37\n        /* \"contracts/ICO/MyICO.sol\":1837:1867  balanceOfTokens(address(this)) */\n      jump\t// in\n    tag_101:\n        /* \"contracts/ICO/MyICO.sol\":1837:1885  balanceOfTokens(address(this)) >= _airdropAmount */\n      lt\n      iszero\n        /* \"contracts/ICO/MyICO.sol\":1829:1906  require(balanceOfTokens(address(this)) >= _airdropAmount ,\"No Enought token\") */\n      tag_102\n      jumpi\n      mload(0x40)\n      0x08c379a000000000000000000000000000000000000000000000000000000000\n      dup2\n      mstore\n      0x04\n      add\n      tag_103\n      swap1\n      tag_104\n      jump\t// in\n    tag_103:\n      mload(0x40)\n      dup1\n      swap2\n      sub\n      swap1\n      revert\n    tag_102:\n        /* \"contracts/ICO/MyICO.sol\":1919:1925  _token */\n      0x01\n      0x00\n      swap1\n      sload\n      swap1\n      0x0100\n      exp\n      swap1\n      div\n      0xffffffffffffffffffffffffffffffffffffffff\n      and\n        /* \"contracts/ICO/MyICO.sol\":1919:1934  _token.transfer */\n      0xffffffffffffffffffffffffffffffffffffffff\n      and\n      0xa9059cbb\n        /* \"contracts/ICO/MyICO.sol\":1935:1943  receiver */\n      dup3\n        /* \"contracts/ICO/MyICO.sol\":1945:1959  _airdropAmount */\n      sload(0x03)\n        /* \"contracts/ICO/MyICO.sol\":1919:1960  _token.transfer(receiver, _airdropAmount) */\n      mload(0x40)\n      dup4\n      0xffffffff\n      and\n      0xe0\n      shl\n      dup2\n      mstore\n      0x04\n      add\n      tag_105\n      swap3\n      swap2\n      swap1\n      tag_106\n      jump\t// in\n    tag_105:\n      0x20\n      mload(0x40)\n      dup1\n      dup4\n      sub\n      dup2\n      0x00\n      dup8\n      gas\n      call\n      iszero\n      dup1\n      iszero\n      tag_108\n      jumpi\n      returndatasize\n      0x00\n      dup1\n      returndatacopy\n      revert(0x00, returndatasize)\n    tag_108:\n      pop\n      pop\n      pop\n      pop\n      mload(0x40)\n      returndatasize\n      not(0x1f)\n      0x1f\n      dup3\n      add\n      and\n      dup3\n      add\n      dup1\n      0x40\n      mstore\n      pop\n      dup2\n      add\n      swap1\n      tag_109\n      swap2\n      swap1\n      tag_110\n      jump\t// in\n    tag_109:\n      pop\n        /* \"contracts/ICO/MyICO.sol\":1994:2008  _airdropAmount */\n      sload(0x03)\n        /* \"contracts/ICO/MyICO.sol\":1973:1981  airdrops */\n      0x08\n        /* \"contracts/ICO/MyICO.sol\":1973:1991  airdrops[receiver] */\n      0x00\n        /* \"contracts/ICO/MyICO.sol\":1982:1990  receiver */\n      dup4\n        /* \"contracts/ICO/MyICO.sol\":1973:1991  airdrops[receiver] */\n      0xffffffffffffffffffffffffffffffffffffffff\n      and\n      0xffffffffffffffffffffffffffffffffffffffff\n      and\n      dup2\n      mstore\n      0x20\n      add\n      swap1\n      dup2\n      mstore\n      0x20\n      add\n      0x00\n      keccak256\n        /* \"contracts/ICO/MyICO.sol\":1973:2008  airdrops[receiver] = _airdropAmount */\n      dup2\n      swap1\n      sstore\n      pop\n        /* \"contracts/ICO/MyICO.sol\":2044:2058  _airdropAmount */\n      sload(0x03)\n        /* \"contracts/ICO/MyICO.sol\":2019:2040  _totalReleasedAirdrop */\n      0x04\n      0x00\n        /* \"contracts/ICO/MyICO.sol\":2019:2058  _totalReleasedAirdrop += _airdropAmount */\n      dup3\n      dup3\n      sload\n      tag_111\n      swap2\n      swap1\n      tag_97\n      jump\t// in\n    tag_111:\n      swap3\n      pop\n      pop\n      dup2\n      swap1\n      sstore\n      pop\n        /* \"contracts/ICO/MyICO.sol\":2074:2082  isInList */\n      0x0a\n        /* \"contracts/ICO/MyICO.sol\":2074:2092  isInList[receiver] */\n      0x00\n        /* \"contracts/ICO/MyICO.sol\":2083:2091  receiver */\n      dup3\n        /* \"contracts/ICO/MyICO.sol\":2074:2092  isInList[receiver] */\n      0xffffffffffffffffffffffffffffffffffffffff\n      and\n      0xffffffffffffffffffffffffffffffffffffffff\n      and\n      dup2\n      mstore\n      0x20\n      add\n      swap1\n      dup2\n      mstore\n      0x20\n      add\n      0x00\n      keccak256\n      0x00\n      swap1\n      sload\n      swap1\n      0x0100\n      exp\n      swap1\n      div\n      0xff\n      and\n        /* \"contracts/ICO/MyICO.sol\":2069:2184  if (!isInList[receiver])... */\n      tag_112\n      jumpi\n        /* \"contracts/ICO/MyICO.sol\":2139:2143  true */\n      0x01\n        /* \"contracts/ICO/MyICO.sol\":2118:2126  isInList */\n      0x0a\n        /* \"contracts/ICO/MyICO.sol\":2118:2136  isInList[receiver] */\n      0x00\n        /* \"contracts/ICO/MyICO.sol\":2127:2135  receiver */\n      dup4\n        /* \"contracts/ICO/MyICO.sol\":2118:2136  isInList[receiver] */\n      0xffffffffffffffffffffffffffffffffffffffff\n      and\n      0xffffffffffffffffffffffffffffffffffffffff\n      and\n      dup2\n      mstore\n      0x20\n      add\n      swap1\n      dup2\n      mstore\n      0x20\n      add\n      0x00\n      keccak256\n      0x00\n        /* \"contracts/ICO/MyICO.sol\":2118:2143  isInList[receiver] = true */\n      0x0100\n      exp\n      dup2\n      sload\n      dup2\n      0xff\n      mul\n      not\n      and\n      swap1\n      dup4\n      iszero\n      iszero\n      mul\n      or\n      swap1\n      sstore\n      pop\n        /* \"contracts/ICO/MyICO.sol\":2158:2170  _holdesCount */\n      0x07\n      0x00\n        /* \"contracts/ICO/MyICO.sol\":2158:2172  _holdesCount++ */\n      dup2\n      sload\n      dup1\n      swap3\n      swap2\n      swap1\n      tag_113\n      swap1\n      tag_114\n      jump\t// in\n    tag_113:\n      swap2\n      swap1\n      pop\n      sstore\n      pop\n        /* \"contracts/ICO/MyICO.sol\":2069:2184  if (!isInList[receiver])... */\n    tag_112:\n        /* \"contracts/ICO/MyICO.sol\":2215:2229  _airdropAmount */\n      sload(0x03)\n        /* \"contracts/ICO/MyICO.sol\":2194:2201  holders */\n      0x09\n        /* \"contracts/ICO/MyICO.sol\":2194:2211  holders[receiver] */\n      0x00\n        /* \"contracts/ICO/MyICO.sol\":2202:2210  receiver */\n      dup4\n        /* \"contracts/ICO/MyICO.sol\":2194:2211  holders[receiver] */\n      0xffffffffffffffffffffffffffffffffffffffff\n      and\n      0xffffffffffffffffffffffffffffffffffffffff\n      and\n      dup2\n      mstore\n      0x20\n      add\n      swap1\n      dup2\n      mstore\n      0x20\n      add\n      0x00\n      keccak256\n      0x00\n        /* \"contracts/ICO/MyICO.sol\":2194:2229  holders[receiver] += _airdropAmount */\n      dup3\n      dup3\n      sload\n      tag_115\n      swap2\n      swap1\n      tag_97\n      jump\t// in\n    tag_115:\n      swap3\n      pop\n      pop\n      dup2\n      swap1\n      sstore\n      pop\n        /* \"contracts/ICO/MyICO.sol\":2264:2278  _airdropAmount */\n      sload(0x03)\n        /* \"contracts/ICO/MyICO.sol\":2255:2263  receiver */\n      dup2\n        /* \"contracts/ICO/MyICO.sol\":2247:2279  Airdrop(receiver,_airdropAmount) */\n      0xffffffffffffffffffffffffffffffffffffffff\n      and\n      0x8c32c568416fcf97be35ce5b27844cfddcd63a67a1a602c3595ba5dac38f303a\n      mload(0x40)\n      mload(0x40)\n      dup1\n      swap2\n      sub\n      swap1\n      log3\n        /* \"contracts/ICO/MyICO.sol\":1586:2287  function airdrop(address receiver) external icoIsActive... */\n      pop\n      jump\t// out\n        /* \"contracts/ICO/MyICO.sol\":3268:3392  function balanceOfTokens(address account) public view returns(uint)... */\n    tag_37:\n        /* \"contracts/ICO/MyICO.sol\":3330:3334  uint */\n      0x00\n        /* \"contracts/ICO/MyICO.sol\":3359:3365  _token */\n      0x01\n      0x00\n      swap1\n      sload\n      swap1\n      0x0100\n      exp\n      swap1\n      div\n      0xffffffffffffffffffffffffffffffffffffffff\n      and\n        /* \"contracts/ICO/MyICO.sol\":3359:3375  _token.balanceOf */\n      0xffffffffffffffffffffffffffffffffffffffff\n      and\n      0x70a08231\n        /* \"contracts/ICO/MyICO.sol\":3376:3383  account */\n      dup4\n        /* \"contracts/ICO/MyICO.sol\":3359:3384  _token.balanceOf(account) */\n      mload(0x40)\n      dup3\n      0xffffffff\n      and\n      0xe0\n      shl\n      dup2\n      mstore\n      0x04\n      add\n      tag_117\n      swap2\n      swap1\n      tag_24\n      jump\t// in\n    tag_117:\n      0x20\n      mload(0x40)\n      dup1\n      dup4\n      sub\n      dup2\n      dup7\n      gas\n      staticcall\n      iszero\n      dup1\n      iszero\n      tag_119\n      jumpi\n      returndatasize\n      0x00\n      dup1\n      returndatacopy\n      revert(0x00, returndatasize)\n    tag_119:\n      pop\n      pop\n      pop\n      pop\n      mload(0x40)\n      returndatasize\n      not(0x1f)\n      0x1f\n      dup3\n      add\n      and\n      dup3\n      add\n      dup1\n      0x40\n      mstore\n      pop\n      dup2\n      add\n      swap1\n      tag_120\n      swap2\n      swap1\n      tag_121\n      jump\t// in\n    tag_120:\n        /* \"contracts/ICO/MyICO.sol\":3352:3384  return _token.balanceOf(account) */\n      swap1\n      pop\n        /* \"contracts/ICO/MyICO.sol\":3268:3392  function balanceOfTokens(address account) public view returns(uint)... */\n      swap2\n      swap1\n      pop\n      jump\t// out\n        /* \"contracts/ICO/MyICO.sol\":2718:2906  function withdrawTokens(uint amount) external OnlyAdmin... */\n    tag_44:\n        /* \"contracts/ICO/MyICO.sol\":927:933  _admin */\n      0x00\n      dup1\n      sload\n      swap1\n      0x0100\n      exp\n      swap1\n      div\n      0xffffffffffffffffffffffffffffffffffffffff\n      and\n        /* \"contracts/ICO/MyICO.sol\":914:933  msg.sender ==_admin */\n      0xffffffffffffffffffffffffffffffffffffffff\n      and\n        /* \"contracts/ICO/MyICO.sol\":914:924  msg.sender */\n      caller\n        /* \"contracts/ICO/MyICO.sol\":914:933  msg.sender ==_admin */\n      0xffffffffffffffffffffffffffffffffffffffff\n      and\n      eq\n        /* \"contracts/ICO/MyICO.sol\":906:946  require(msg.sender ==_admin,\"OnlyAdmin\") */\n      tag_123\n      jumpi\n      mload(0x40)\n      0x08c379a000000000000000000000000000000000000000000000000000000000\n      dup2\n      mstore\n      0x04\n      add\n      tag_124\n      swap1\n      tag_125\n      jump\t// in\n    tag_124:\n      mload(0x40)\n      dup1\n      swap2\n      sub\n      swap1\n      revert\n    tag_123:\n        /* \"contracts/ICO/MyICO.sol\":2808:2838  balanceOfTokens(address(this)) */\n      tag_127\n        /* \"contracts/ICO/MyICO.sol\":2832:2836  this */\n      address\n        /* \"contracts/ICO/MyICO.sol\":2808:2823  balanceOfTokens */\n      tag_37\n        /* \"contracts/ICO/MyICO.sol\":2808:2838  balanceOfTokens(address(this)) */\n      jump\t// in\n    tag_127:\n        /* \"contracts/ICO/MyICO.sol\":2798:2804  amount */\n      dup2\n        /* \"contracts/ICO/MyICO.sol\":2798:2838  amount <= balanceOfTokens(address(this)) */\n      gt\n      iszero\n        /* \"contracts/ICO/MyICO.sol\":2790:2856  require(amount <= balanceOfTokens(address(this)),\"withdrawTokens\") */\n      tag_128\n      jumpi\n      mload(0x40)\n      0x08c379a000000000000000000000000000000000000000000000000000000000\n      dup2\n      mstore\n      0x04\n      add\n      tag_129\n      swap1\n      tag_130\n      jump\t// in\n    tag_129:\n      mload(0x40)\n      dup1\n      swap2\n      sub\n      swap1\n      revert\n    tag_128:\n        /* \"contracts/ICO/MyICO.sol\":2867:2873  _token */\n      0x01\n      0x00\n      swap1\n      sload\n      swap1\n      0x0100\n      exp\n      swap1\n      div\n      0xffffffffffffffffffffffffffffffffffffffff\n      and\n        /* \"contracts/ICO/MyICO.sol\":2867:2882  _token.transfer */\n      0xffffffffffffffffffffffffffffffffffffffff\n      and\n      0xa9059cbb\n        /* \"contracts/ICO/MyICO.sol\":2883:2889  _admin */\n      0x00\n      dup1\n      sload\n      swap1\n      0x0100\n      exp\n      swap1\n      div\n      0xffffffffffffffffffffffffffffffffffffffff\n      and\n        /* \"contracts/ICO/MyICO.sol\":2891:2897  amount */\n      dup4\n        /* \"contracts/ICO/MyICO.sol\":2867:2898  _token.transfer(_admin, amount) */\n      mload(0x40)\n      dup4\n      0xffffffff\n      and\n      0xe0\n      shl\n      dup2\n      mstore\n      0x04\n      add\n      tag_131\n      swap3\n      swap2\n      swap1\n      tag_106\n      jump\t// in\n    tag_131:\n      0x20\n      mload(0x40)\n      dup1\n      dup4\n      sub\n      dup2\n      0x00\n      dup8\n      gas\n      call\n      iszero\n      dup1\n      iszero\n      tag_133\n      jumpi\n      returndatasize\n      0x00\n      dup1\n      returndatacopy\n      revert(0x00, returndatasize)\n    tag_133:\n      pop\n      pop\n      pop\n      pop\n      mload(0x40)\n      returndatasize\n      not(0x1f)\n      0x1f\n      dup3\n      add\n      and\n      dup3\n      add\n      dup1\n      0x40\n      mstore\n      pop\n      dup2\n      add\n      swap1\n      tag_134\n      swap2\n      swap1\n      tag_110\n      jump\t// in\n    tag_134:\n      pop\n        /* \"contracts/ICO/MyICO.sol\":2718:2906  function withdrawTokens(uint amount) external OnlyAdmin... */\n      pop\n      jump\t// out\n        /* \"contracts/ICO/MyICO.sol\":3400:3495  function getICOAdr() public view returns(address) ... */\n    tag_47:\n        /* \"contracts/ICO/MyICO.sol\":3441:3448  address */\n      0x00\n        /* \"contracts/ICO/MyICO.sol\":3482:3486  this */\n      address\n        /* \"contracts/ICO/MyICO.sol\":3467:3487  return address(this) */\n      swap1\n      pop\n        /* \"contracts/ICO/MyICO.sol\":3400:3495  function getICOAdr() public view returns(address) ... */\n      swap1\n      jump\t// out\n        /* \"contracts/ICO/MyICO.sol\":3145:3256  function balanceOfEth(address account) public view returns(uint)... */\n    tag_52:\n        /* \"contracts/ICO/MyICO.sol\":3204:3208  uint */\n      0x00\n        /* \"contracts/ICO/MyICO.sol\":3233:3240  account */\n      dup2\n        /* \"contracts/ICO/MyICO.sol\":3233:3248  account.balance */\n      0xffffffffffffffffffffffffffffffffffffffff\n      and\n      balance\n        /* \"contracts/ICO/MyICO.sol\":3226:3248  return account.balance */\n      swap1\n      pop\n        /* \"contracts/ICO/MyICO.sol\":3145:3256  function balanceOfEth(address account) public view returns(uint)... */\n      swap2\n      swap1\n      pop\n      jump\t// out\n        /* \"contracts/ICO/MyICO.sol\":417:441  uint public _holdesCount */\n    tag_56:\n      sload(0x07)\n      dup2\n      jump\t// out\n        /* \"contracts/ICO/MyICO.sol\":1364:1450  function deactivate() external OnlyAdmin icoIsActive{... */\n    tag_60:\n        /* \"contracts/ICO/MyICO.sol\":927:933  _admin */\n      0x00\n      dup1\n      sload\n      swap1\n      0x0100\n      exp\n      swap1\n      div\n      0xffffffffffffffffffffffffffffffffffffffff\n      and\n        /* \"contracts/ICO/MyICO.sol\":914:933  msg.sender ==_admin */\n      0xffffffffffffffffffffffffffffffffffffffff\n      and\n        /* \"contracts/ICO/MyICO.sol\":914:924  msg.sender */\n      caller\n        /* \"contracts/ICO/MyICO.sol\":914:933  msg.sender ==_admin */\n      0xffffffffffffffffffffffffffffffffffffffff\n      and\n      eq\n        /* \"contracts/ICO/MyICO.sol\":906:946  require(msg.sender ==_admin,\"OnlyAdmin\") */\n      tag_138\n      jumpi\n      mload(0x40)\n      0x08c379a000000000000000000000000000000000000000000000000000000000\n      dup2\n      mstore\n      0x04\n      add\n      tag_139\n      swap1\n      tag_125\n      jump\t// in\n    tag_139:\n      mload(0x40)\n      dup1\n      swap2\n      sub\n      swap1\n      revert\n    tag_138:\n        /* \"contracts/ICO/MyICO.sol\":1027:1042  block.timestamp */\n      timestamp\n        /* \"contracts/ICO/MyICO.sol\":1013:1024  _icoEndTime */\n      sload(0x06)\n        /* \"contracts/ICO/MyICO.sol\":1013:1042  _icoEndTime > block.timestamp */\n      gt\n        /* \"contracts/ICO/MyICO.sol\":1005:1057  require(_icoEndTime > block.timestamp,\"icoIsActive\") */\n      tag_141\n      jumpi\n      mload(0x40)\n      0x08c379a000000000000000000000000000000000000000000000000000000000\n      dup2\n      mstore\n      0x04\n      add\n      tag_142\n      swap1\n      tag_91\n      jump\t// in\n    tag_142:\n      mload(0x40)\n      dup1\n      swap2\n      sub\n      swap1\n      revert\n    tag_141:\n        /* \"contracts/ICO/MyICO.sol\":1441:1442  0 */\n      0x00\n        /* \"contracts/ICO/MyICO.sol\":1427:1438  _icoEndTime */\n      0x06\n        /* \"contracts/ICO/MyICO.sol\":1427:1442  _icoEndTime = 0 */\n      dup2\n      swap1\n      sstore\n      pop\n        /* \"contracts/ICO/MyICO.sol\":1364:1450  function deactivate() external OnlyAdmin icoIsActive{... */\n      jump\t// out\n        /* \"contracts/ICO/MyICO.sol\":1185:1356  function activate(uint duration) external OnlyAdmin icoIsDeActive{... */\n    tag_64:\n        /* \"contracts/ICO/MyICO.sol\":927:933  _admin */\n      0x00\n      dup1\n      sload\n      swap1\n      0x0100\n      exp\n      swap1\n      div\n      0xffffffffffffffffffffffffffffffffffffffff\n      and\n        /* \"contracts/ICO/MyICO.sol\":914:933  msg.sender ==_admin */\n      0xffffffffffffffffffffffffffffffffffffffff\n      and\n        /* \"contracts/ICO/MyICO.sol\":914:924  msg.sender */\n      caller\n        /* \"contracts/ICO/MyICO.sol\":914:933  msg.sender ==_admin */\n      0xffffffffffffffffffffffffffffffffffffffff\n      and\n      eq\n        /* \"contracts/ICO/MyICO.sol\":906:946  require(msg.sender ==_admin,\"OnlyAdmin\") */\n      tag_145\n      jumpi\n      mload(0x40)\n      0x08c379a000000000000000000000000000000000000000000000000000000000\n      dup2\n      mstore\n      0x04\n      add\n      tag_146\n      swap1\n      tag_125\n      jump\t// in\n    tag_146:\n      mload(0x40)\n      dup1\n      swap2\n      sub\n      swap1\n      revert\n    tag_145:\n        /* \"contracts/ICO/MyICO.sol\":1141:1142  0 */\n      0x00\n        /* \"contracts/ICO/MyICO.sol\":1126:1137  _icoEndTime */\n      sload(0x06)\n        /* \"contracts/ICO/MyICO.sol\":1126:1142  _icoEndTime == 0 */\n      eq\n        /* \"contracts/ICO/MyICO.sol\":1118:1157  require(_icoEndTime == 0,\"icoIsActive\") */\n      tag_148\n      jumpi\n      mload(0x40)\n      0x08c379a000000000000000000000000000000000000000000000000000000000\n      dup2\n      mstore\n      0x04\n      add\n      tag_149\n      swap1\n      tag_91\n      jump\t// in\n    tag_149:\n      mload(0x40)\n      dup1\n      swap2\n      sub\n      swap1\n      revert\n    tag_148:\n        /* \"contracts/ICO/MyICO.sol\":1280:1281  0 */\n      0x00\n        /* \"contracts/ICO/MyICO.sol\":1269:1277  duration */\n      dup2\n        /* \"contracts/ICO/MyICO.sol\":1269:1281  duration > 0 */\n      gt\n        /* \"contracts/ICO/MyICO.sol\":1261:1297  require(duration > 0,\"duration > 0\") */\n      tag_151\n      jumpi\n      mload(0x40)\n      0x08c379a000000000000000000000000000000000000000000000000000000000\n      dup2\n      mstore\n      0x04\n      add\n      tag_152\n      swap1\n      tag_153\n      jump\t// in\n    tag_152:\n      mload(0x40)\n      dup1\n      swap2\n      sub\n      swap1\n      revert\n    tag_151:\n        /* \"contracts/ICO/MyICO.sol\":1340:1348  duration */\n      dup1\n        /* \"contracts/ICO/MyICO.sol\":1322:1337  block.timestamp */\n      timestamp\n        /* \"contracts/ICO/MyICO.sol\":1322:1348  block.timestamp + duration */\n      tag_154\n      swap2\n      swap1\n      tag_97\n      jump\t// in\n    tag_154:\n        /* \"contracts/ICO/MyICO.sol\":1308:1319  _icoEndTime */\n      0x06\n        /* \"contracts/ICO/MyICO.sol\":1308:1348  _icoEndTime = block.timestamp + duration */\n      dup2\n      swap1\n      sstore\n      pop\n        /* \"contracts/ICO/MyICO.sol\":1185:1356  function activate(uint duration) external OnlyAdmin icoIsDeActive{... */\n      pop\n      jump\t// out\n        /* \"contracts/ICO/MyICO.sol\":2914:3098  function withdrawEth(uint amount) external OnlyAdmin ... */\n    tag_68:\n        /* \"contracts/ICO/MyICO.sol\":927:933  _admin */\n      0x00\n      dup1\n      sload\n      swap1\n      0x0100\n      exp\n      swap1\n      div\n      0xffffffffffffffffffffffffffffffffffffffff\n      and\n        /* \"contracts/ICO/MyICO.sol\":914:933  msg.sender ==_admin */\n      0xffffffffffffffffffffffffffffffffffffffff\n      and\n        /* \"contracts/ICO/MyICO.sol\":914:924  msg.sender */\n      caller\n        /* \"contracts/ICO/MyICO.sol\":914:933  msg.sender ==_admin */\n      0xffffffffffffffffffffffffffffffffffffffff\n      and\n      eq\n        /* \"contracts/ICO/MyICO.sol\":906:946  require(msg.sender ==_admin,\"OnlyAdmin\") */\n      tag_156\n      jumpi\n      mload(0x40)\n      0x08c379a000000000000000000000000000000000000000000000000000000000\n      dup2\n      mstore\n      0x04\n      add\n      tag_157\n      swap1\n      tag_125\n      jump\t// in\n    tag_157:\n      mload(0x40)\n      dup1\n      swap2\n      sub\n      swap1\n      revert\n    tag_156:\n        /* \"contracts/ICO/MyICO.sol\":3002:3029  balanceOfEth(address(this)) */\n      tag_159\n        /* \"contracts/ICO/MyICO.sol\":3023:3027  this */\n      address\n        /* \"contracts/ICO/MyICO.sol\":3002:3014  balanceOfEth */\n      tag_52\n        /* \"contracts/ICO/MyICO.sol\":3002:3029  balanceOfEth(address(this)) */\n      jump\t// in\n    tag_159:\n        /* \"contracts/ICO/MyICO.sol\":2992:2998  amount */\n      dup2\n        /* \"contracts/ICO/MyICO.sol\":2992:3029  amount <= balanceOfEth(address(this)) */\n      gt\n      iszero\n        /* \"contracts/ICO/MyICO.sol\":2984:3047  require(amount <= balanceOfEth(address(this)),\"withdrawTokens\") */\n      tag_160\n      jumpi\n      mload(0x40)\n      0x08c379a000000000000000000000000000000000000000000000000000000000\n      dup2\n      mstore\n      0x04\n      add\n      tag_161\n      swap1\n      tag_130\n      jump\t// in\n    tag_161:\n      mload(0x40)\n      dup1\n      swap2\n      sub\n      swap1\n      revert\n    tag_160:\n        /* \"contracts/ICO/MyICO.sol\":3066:3072  _admin */\n      0x00\n      dup1\n      sload\n      swap1\n      0x0100\n      exp\n      swap1\n      div\n      0xffffffffffffffffffffffffffffffffffffffff\n      and\n        /* \"contracts/ICO/MyICO.sol\":3058:3082  payable(_admin).transfer */\n      0xffffffffffffffffffffffffffffffffffffffff\n      and\n        /* \"contracts/ICO/MyICO.sol\":3058:3090  payable(_admin).transfer(amount) */\n      0x08fc\n        /* \"contracts/ICO/MyICO.sol\":3083:3089  amount */\n      dup3\n        /* \"contracts/ICO/MyICO.sol\":3058:3090  payable(_admin).transfer(amount) */\n      swap1\n      dup2\n      iszero\n      mul\n      swap1\n      mload(0x40)\n      0x00\n      mload(0x40)\n      dup1\n      dup4\n      sub\n      dup2\n      dup6\n      dup9\n      dup9\n      call\n      swap4\n      pop\n      pop\n      pop\n      pop\n      iszero\n      dup1\n      iszero\n      tag_163\n      jumpi\n      returndatasize\n      0x00\n      dup1\n      returndatacopy\n      revert(0x00, returndatasize)\n    tag_163:\n      pop\n        /* \"contracts/ICO/MyICO.sol\":2914:3098  function withdrawEth(uint amount) external OnlyAdmin ... */\n      pop\n      jump\t// out\n        /* \"contracts/ICO/MyICO.sol\":1458:1578  function depositTokens(uint amount) public ... */\n    tag_72:\n        /* \"contracts/ICO/MyICO.sol\":1518:1524  _token */\n      0x01\n      0x00\n      swap1\n      sload\n      swap1\n      0x0100\n      exp\n      swap1\n      div\n      0xffffffffffffffffffffffffffffffffffffffff\n      and\n        /* \"contracts/ICO/MyICO.sol\":1518:1537  _token.transferFrom */\n      0xffffffffffffffffffffffffffffffffffffffff\n      and\n      0x23b872dd\n        /* \"contracts/ICO/MyICO.sol\":1538:1544  _admin */\n      0x00\n      dup1\n      sload\n      swap1\n      0x0100\n      exp\n      swap1\n      div\n      0xffffffffffffffffffffffffffffffffffffffff\n      and\n        /* \"contracts/ICO/MyICO.sol\":1555:1559  this */\n      address\n        /* \"contracts/ICO/MyICO.sol\":1563:1569  amount */\n      dup5\n        /* \"contracts/ICO/MyICO.sol\":1518:1570  _token.transferFrom(_admin, (address(this)), amount) */\n      mload(0x40)\n      dup5\n      0xffffffff\n      and\n      0xe0\n      shl\n      dup2\n      mstore\n      0x04\n      add\n      tag_165\n      swap4\n      swap3\n      swap2\n      swap1\n      tag_166\n      jump\t// in\n    tag_165:\n      0x20\n      mload(0x40)\n      dup1\n      dup4\n      sub\n      dup2\n      0x00\n      dup8\n      gas\n      call\n      iszero\n      dup1\n      iszero\n      tag_168\n      jumpi\n      returndatasize\n      0x00\n      dup1\n      returndatacopy\n      revert(0x00, returndatasize)\n    tag_168:\n      pop\n      pop\n      pop\n      pop\n      mload(0x40)\n      returndatasize\n      not(0x1f)\n      0x1f\n      dup3\n      add\n      and\n      dup3\n      add\n      dup1\n      0x40\n      mstore\n      pop\n      dup2\n      add\n      swap1\n      tag_169\n      swap2\n      swap1\n      tag_110\n      jump\t// in\n    tag_169:\n      pop\n        /* \"contracts/ICO/MyICO.sol\":1458:1578  function depositTokens(uint amount) public ... */\n      pop\n      jump\t// out\n        /* \"contracts/ICO/MyICO.sol\":3610:3743  function updateAdmin(address newAdmin) public OnlyAdmin returns(bool)... */\n    tag_76:\n        /* \"contracts/ICO/MyICO.sol\":3674:3678  bool */\n      0x00\n        /* \"contracts/ICO/MyICO.sol\":927:933  _admin */\n      dup1\n      0x00\n      swap1\n      sload\n      swap1\n      0x0100\n      exp\n      swap1\n      div\n      0xffffffffffffffffffffffffffffffffffffffff\n      and\n        /* \"contracts/ICO/MyICO.sol\":914:933  msg.sender ==_admin */\n      0xffffffffffffffffffffffffffffffffffffffff\n      and\n        /* \"contracts/ICO/MyICO.sol\":914:924  msg.sender */\n      caller\n        /* \"contracts/ICO/MyICO.sol\":914:933  msg.sender ==_admin */\n      0xffffffffffffffffffffffffffffffffffffffff\n      and\n      eq\n        /* \"contracts/ICO/MyICO.sol\":906:946  require(msg.sender ==_admin,\"OnlyAdmin\") */\n      tag_171\n      jumpi\n      mload(0x40)\n      0x08c379a000000000000000000000000000000000000000000000000000000000\n      dup2\n      mstore\n      0x04\n      add\n      tag_172\n      swap1\n      tag_125\n      jump\t// in\n    tag_172:\n      mload(0x40)\n      dup1\n      swap2\n      sub\n      swap1\n      revert\n    tag_171:\n        /* \"contracts/ICO/MyICO.sol\":3705:3713  newAdmin */\n      dup2\n        /* \"contracts/ICO/MyICO.sol\":3696:3702  _admin */\n      0x00\n      dup1\n        /* \"contracts/ICO/MyICO.sol\":3696:3713  _admin = newAdmin */\n      0x0100\n      exp\n      dup2\n      sload\n      dup2\n      0xffffffffffffffffffffffffffffffffffffffff\n      mul\n      not\n      and\n      swap1\n      dup4\n      0xffffffffffffffffffffffffffffffffffffffff\n      and\n      mul\n      or\n      swap1\n      sstore\n      pop\n        /* \"contracts/ICO/MyICO.sol\":3731:3735  true */\n      0x01\n        /* \"contracts/ICO/MyICO.sol\":3724:3735  return true */\n      swap1\n      pop\n        /* \"contracts/ICO/MyICO.sol\":3610:3743  function updateAdmin(address newAdmin) public OnlyAdmin returns(bool)... */\n      swap2\n      swap1\n      pop\n      jump\t// out\n        /* \"contracts/ICO/MyICO.sol\":2295:2710  function purchase(uint amount) external payable  icoIsActive... */\n    tag_81:\n        /* \"contracts/ICO/MyICO.sol\":1027:1042  block.timestamp */\n      timestamp\n        /* \"contracts/ICO/MyICO.sol\":1013:1024  _icoEndTime */\n      sload(0x06)\n        /* \"contracts/ICO/MyICO.sol\":1013:1042  _icoEndTime > block.timestamp */\n      gt\n        /* \"contracts/ICO/MyICO.sol\":1005:1057  require(_icoEndTime > block.timestamp,\"icoIsActive\") */\n      tag_175\n      jumpi\n      mload(0x40)\n      0x08c379a000000000000000000000000000000000000000000000000000000000\n      dup2\n      mstore\n      0x04\n      add\n      tag_176\n      swap1\n      tag_91\n      jump\t// in\n    tag_176:\n      mload(0x40)\n      dup1\n      swap2\n      sub\n      swap1\n      revert\n    tag_175:\n        /* \"contracts/ICO/MyICO.sol\":2418:2422  1e18 */\n      0x0de0b6b3a7640000\n        /* \"contracts/ICO/MyICO.sol\":2409:2415  amount */\n      dup2\n        /* \"contracts/ICO/MyICO.sol\":2409:2422  amount / 1e18 */\n      tag_178\n      swap2\n      swap1\n      tag_179\n      jump\t// in\n    tag_178:\n        /* \"contracts/ICO/MyICO.sol\":2394:2405  _tokenPrice */\n      sload(0x02)\n        /* \"contracts/ICO/MyICO.sol\":2394:2423  _tokenPrice * (amount / 1e18) */\n      tag_180\n      swap2\n      swap1\n      tag_181\n      jump\t// in\n    tag_180:\n        /* \"contracts/ICO/MyICO.sol\":2380:2389  msg.value */\n      callvalue\n        /* \"contracts/ICO/MyICO.sol\":2380:2424  msg.value == (_tokenPrice * (amount / 1e18)) */\n      eq\n        /* \"contracts/ICO/MyICO.sol\":2372:2442  require(msg.value == (_tokenPrice * (amount / 1e18)),\"purchase price\") */\n      tag_182\n      jumpi\n      mload(0x40)\n      0x08c379a000000000000000000000000000000000000000000000000000000000\n      dup2\n      mstore\n      0x04\n      add\n      tag_183\n      swap1\n      tag_184\n      jump\t// in\n    tag_183:\n      mload(0x40)\n      dup1\n      swap2\n      sub\n      swap1\n      revert\n    tag_182:\n        /* \"contracts/ICO/MyICO.sol\":2454:2460  _token */\n      0x01\n      0x00\n      swap1\n      sload\n      swap1\n      0x0100\n      exp\n      swap1\n      div\n      0xffffffffffffffffffffffffffffffffffffffff\n      and\n        /* \"contracts/ICO/MyICO.sol\":2454:2469  _token.transfer */\n      0xffffffffffffffffffffffffffffffffffffffff\n      and\n      0xa9059cbb\n        /* \"contracts/ICO/MyICO.sol\":2470:2480  msg.sender */\n      caller\n        /* \"contracts/ICO/MyICO.sol\":2482:2488  amount */\n      dup4\n        /* \"contracts/ICO/MyICO.sol\":2454:2489  _token.transfer(msg.sender, amount) */\n      mload(0x40)\n      dup4\n      0xffffffff\n      and\n      0xe0\n      shl\n      dup2\n      mstore\n      0x04\n      add\n      tag_185\n      swap3\n      swap2\n      swap1\n      tag_106\n      jump\t// in\n    tag_185:\n      0x20\n      mload(0x40)\n      dup1\n      dup4\n      sub\n      dup2\n      0x00\n      dup8\n      gas\n      call\n      iszero\n      dup1\n      iszero\n      tag_187\n      jumpi\n      returndatasize\n      0x00\n      dup1\n      returndatacopy\n      revert(0x00, returndatasize)\n    tag_187:\n      pop\n      pop\n      pop\n      pop\n      mload(0x40)\n      returndatasize\n      not(0x1f)\n      0x1f\n      dup3\n      add\n      and\n      dup3\n      add\n      dup1\n      0x40\n      mstore\n      pop\n      dup2\n      add\n      swap1\n      tag_188\n      swap2\n      swap1\n      tag_110\n      jump\t// in\n    tag_188:\n      pop\n        /* \"contracts/ICO/MyICO.sol\":2509:2517  isInList */\n      0x0a\n        /* \"contracts/ICO/MyICO.sol\":2509:2529  isInList[msg.sender] */\n      0x00\n        /* \"contracts/ICO/MyICO.sol\":2518:2528  msg.sender */\n      caller\n        /* \"contracts/ICO/MyICO.sol\":2509:2529  isInList[msg.sender] */\n      0xffffffffffffffffffffffffffffffffffffffff\n      and\n      0xffffffffffffffffffffffffffffffffffffffff\n      and\n      dup2\n      mstore\n      0x20\n      add\n      swap1\n      dup2\n      mstore\n      0x20\n      add\n      0x00\n      keccak256\n      0x00\n      swap1\n      sload\n      swap1\n      0x0100\n      exp\n      swap1\n      div\n      0xff\n      and\n        /* \"contracts/ICO/MyICO.sol\":2504:2623  if (!isInList[msg.sender])... */\n      tag_189\n      jumpi\n        /* \"contracts/ICO/MyICO.sol\":2578:2582  true */\n      0x01\n        /* \"contracts/ICO/MyICO.sol\":2555:2563  isInList */\n      0x0a\n        /* \"contracts/ICO/MyICO.sol\":2555:2575  isInList[msg.sender] */\n      0x00\n        /* \"contracts/ICO/MyICO.sol\":2564:2574  msg.sender */\n      caller\n        /* \"contracts/ICO/MyICO.sol\":2555:2575  isInList[msg.sender] */\n      0xffffffffffffffffffffffffffffffffffffffff\n      and\n      0xffffffffffffffffffffffffffffffffffffffff\n      and\n      dup2\n      mstore\n      0x20\n      add\n      swap1\n      dup2\n      mstore\n      0x20\n      add\n      0x00\n      keccak256\n      0x00\n        /* \"contracts/ICO/MyICO.sol\":2555:2582  isInList[msg.sender] = true */\n      0x0100\n      exp\n      dup2\n      sload\n      dup2\n      0xff\n      mul\n      not\n      and\n      swap1\n      dup4\n      iszero\n      iszero\n      mul\n      or\n      swap1\n      sstore\n      pop\n        /* \"contracts/ICO/MyICO.sol\":2597:2609  _holdesCount */\n      0x07\n      0x00\n        /* \"contracts/ICO/MyICO.sol\":2597:2611  _holdesCount++ */\n      dup2\n      sload\n      dup1\n      swap3\n      swap2\n      swap1\n      tag_190\n      swap1\n      tag_114\n      jump\t// in\n    tag_190:\n      swap2\n      swap1\n      pop\n      sstore\n      pop\n        /* \"contracts/ICO/MyICO.sol\":2504:2623  if (!isInList[msg.sender])... */\n    tag_189:\n        /* \"contracts/ICO/MyICO.sol\":2656:2662  amount */\n      dup1\n        /* \"contracts/ICO/MyICO.sol\":2633:2640  holders */\n      0x09\n        /* \"contracts/ICO/MyICO.sol\":2633:2652  holders[msg.sender] */\n      0x00\n        /* \"contracts/ICO/MyICO.sol\":2641:2651  msg.sender */\n      caller\n        /* \"contracts/ICO/MyICO.sol\":2633:2652  holders[msg.sender] */\n      0xffffffffffffffffffffffffffffffffffffffff\n      and\n      0xffffffffffffffffffffffffffffffffffffffff\n      and\n      dup2\n      mstore\n      0x20\n      add\n      swap1\n      dup2\n      mstore\n      0x20\n      add\n      0x00\n      keccak256\n      0x00\n        /* \"contracts/ICO/MyICO.sol\":2633:2662  holders[msg.sender] += amount */\n      dup3\n      dup3\n      sload\n      tag_191\n      swap2\n      swap1\n      tag_97\n      jump\t// in\n    tag_191:\n      swap3\n      pop\n      pop\n      dup2\n      swap1\n      sstore\n      pop\n        /* \"contracts/ICO/MyICO.sol\":2695:2701  amount */\n      dup1\n        /* \"contracts/ICO/MyICO.sol\":2684:2694  msg.sender */\n      caller\n        /* \"contracts/ICO/MyICO.sol\":2680:2702  Buy(msg.sender,amount) */\n      0xffffffffffffffffffffffffffffffffffffffff\n      and\n      0xe3d4187f6ca4248660cc0ac8b8056515bac4a8132be2eca31d6d0cc170722a7e\n      mload(0x40)\n      mload(0x40)\n      dup1\n      swap2\n      sub\n      swap1\n      log3\n        /* \"contracts/ICO/MyICO.sol\":2295:2710  function purchase(uint amount) external payable  icoIsActive... */\n      pop\n      jump\t// out\n        /* \"contracts/ICO/MyICO.sol\":547:588  mapping (address => bool) public isInList */\n    tag_85:\n      mstore(0x20, 0x0a)\n      dup1\n      0x00\n      mstore\n      keccak256(0x00, 0x40)\n      0x00\n      swap2\n      pop\n      sload\n      swap1\n      0x0100\n      exp\n      swap1\n      div\n      0xff\n      and\n      dup2\n      jump\t// out\n        /* \"#utility.yul\":7:133   */\n    tag_192:\n        /* \"#utility.yul\":44:51   */\n      0x00\n        /* \"#utility.yul\":84:126   */\n      0xffffffffffffffffffffffffffffffffffffffff\n        /* \"#utility.yul\":77:82   */\n      dup3\n        /* \"#utility.yul\":73:127   */\n      and\n        /* \"#utility.yul\":62:127   */\n      swap1\n      pop\n        /* \"#utility.yul\":7:133   */\n      swap2\n      swap1\n      pop\n      jump\t// out\n        /* \"#utility.yul\":139:235   */\n    tag_193:\n        /* \"#utility.yul\":176:183   */\n      0x00\n        /* \"#utility.yul\":205:229   */\n      tag_231\n        /* \"#utility.yul\":223:228   */\n      dup3\n        /* \"#utility.yul\":205:229   */\n      tag_192\n      jump\t// in\n    tag_231:\n        /* \"#utility.yul\":194:229   */\n      swap1\n      pop\n        /* \"#utility.yul\":139:235   */\n      swap2\n      swap1\n      pop\n      jump\t// out\n        /* \"#utility.yul\":241:359   */\n    tag_194:\n        /* \"#utility.yul\":328:352   */\n      tag_233\n        /* \"#utility.yul\":346:351   */\n      dup2\n        /* \"#utility.yul\":328:352   */\n      tag_193\n      jump\t// in\n    tag_233:\n        /* \"#utility.yul\":323:326   */\n      dup3\n        /* \"#utility.yul\":316:353   */\n      mstore\n        /* \"#utility.yul\":241:359   */\n      pop\n      pop\n      jump\t// out\n        /* \"#utility.yul\":365:587   */\n    tag_24:\n        /* \"#utility.yul\":458:462   */\n      0x00\n        /* \"#utility.yul\":496:498   */\n      0x20\n        /* \"#utility.yul\":485:494   */\n      dup3\n        /* \"#utility.yul\":481:499   */\n      add\n        /* \"#utility.yul\":473:499   */\n      swap1\n      pop\n        /* \"#utility.yul\":509:580   */\n      tag_235\n        /* \"#utility.yul\":577:578   */\n      0x00\n        /* \"#utility.yul\":566:575   */\n      dup4\n        /* \"#utility.yul\":562:579   */\n      add\n        /* \"#utility.yul\":553:559   */\n      dup5\n        /* \"#utility.yul\":509:580   */\n      tag_194\n      jump\t// in\n    tag_235:\n        /* \"#utility.yul\":365:587   */\n      swap3\n      swap2\n      pop\n      pop\n      jump\t// out\n        /* \"#utility.yul\":674:791   */\n    tag_196:\n        /* \"#utility.yul\":783:784   */\n      0x00\n        /* \"#utility.yul\":780:781   */\n      dup1\n        /* \"#utility.yul\":773:785   */\n      revert\n        /* \"#utility.yul\":920:1042   */\n    tag_198:\n        /* \"#utility.yul\":993:1017   */\n      tag_240\n        /* \"#utility.yul\":1011:1016   */\n      dup2\n        /* \"#utility.yul\":993:1017   */\n      tag_193\n      jump\t// in\n    tag_240:\n        /* \"#utility.yul\":986:991   */\n      dup2\n        /* \"#utility.yul\":983:1018   */\n      eq\n        /* \"#utility.yul\":973:1036   */\n      tag_241\n      jumpi\n        /* \"#utility.yul\":1032:1033   */\n      0x00\n        /* \"#utility.yul\":1029:1030   */\n      dup1\n        /* \"#utility.yul\":1022:1034   */\n      revert\n        /* \"#utility.yul\":973:1036   */\n    tag_241:\n        /* \"#utility.yul\":920:1042   */\n      pop\n      jump\t// out\n        /* \"#utility.yul\":1048:1187   */\n    tag_199:\n        /* \"#utility.yul\":1094:1099   */\n      0x00\n        /* \"#utility.yul\":1132:1138   */\n      dup2\n        /* \"#utility.yul\":1119:1139   */\n      calldataload\n        /* \"#utility.yul\":1110:1139   */\n      swap1\n      pop\n        /* \"#utility.yul\":1148:1181   */\n      tag_243\n        /* \"#utility.yul\":1175:1180   */\n      dup2\n        /* \"#utility.yul\":1148:1181   */\n      tag_198\n      jump\t// in\n    tag_243:\n        /* \"#utility.yul\":1048:1187   */\n      swap3\n      swap2\n      pop\n      pop\n      jump\t// out\n        /* \"#utility.yul\":1193:1522   */\n    tag_32:\n        /* \"#utility.yul\":1252:1258   */\n      0x00\n        /* \"#utility.yul\":1301:1303   */\n      0x20\n        /* \"#utility.yul\":1289:1298   */\n      dup3\n        /* \"#utility.yul\":1280:1287   */\n      dup5\n        /* \"#utility.yul\":1276:1299   */\n      sub\n        /* \"#utility.yul\":1272:1304   */\n      slt\n        /* \"#utility.yul\":1269:1388   */\n      iszero\n      tag_245\n      jumpi\n        /* \"#utility.yul\":1307:1386   */\n      tag_246\n      tag_196\n      jump\t// in\n    tag_246:\n        /* \"#utility.yul\":1269:1388   */\n    tag_245:\n        /* \"#utility.yul\":1427:1428   */\n      0x00\n        /* \"#utility.yul\":1452:1505   */\n      tag_247\n        /* \"#utility.yul\":1497:1504   */\n      dup5\n        /* \"#utility.yul\":1488:1494   */\n      dup3\n        /* \"#utility.yul\":1477:1486   */\n      dup6\n        /* \"#utility.yul\":1473:1495   */\n      add\n        /* \"#utility.yul\":1452:1505   */\n      tag_199\n      jump\t// in\n    tag_247:\n        /* \"#utility.yul\":1442:1505   */\n      swap2\n      pop\n        /* \"#utility.yul\":1398:1515   */\n      pop\n        /* \"#utility.yul\":1193:1522   */\n      swap3\n      swap2\n      pop\n      pop\n      jump\t// out\n        /* \"#utility.yul\":1528:1605   */\n    tag_200:\n        /* \"#utility.yul\":1565:1572   */\n      0x00\n        /* \"#utility.yul\":1594:1599   */\n      dup2\n        /* \"#utility.yul\":1583:1599   */\n      swap1\n      pop\n        /* \"#utility.yul\":1528:1605   */\n      swap2\n      swap1\n      pop\n      jump\t// out\n        /* \"#utility.yul\":1611:1729   */\n    tag_201:\n        /* \"#utility.yul\":1698:1722   */\n      tag_250\n        /* \"#utility.yul\":1716:1721   */\n      dup2\n        /* \"#utility.yul\":1698:1722   */\n      tag_200\n      jump\t// in\n    tag_250:\n        /* \"#utility.yul\":1693:1696   */\n      dup3\n        /* \"#utility.yul\":1686:1723   */\n      mstore\n        /* \"#utility.yul\":1611:1729   */\n      pop\n      pop\n      jump\t// out\n        /* \"#utility.yul\":1735:1957   */\n    tag_39:\n        /* \"#utility.yul\":1828:1832   */\n      0x00\n        /* \"#utility.yul\":1866:1868   */\n      0x20\n        /* \"#utility.yul\":1855:1864   */\n      dup3\n        /* \"#utility.yul\":1851:1869   */\n      add\n        /* \"#utility.yul\":1843:1869   */\n      swap1\n      pop\n        /* \"#utility.yul\":1879:1950   */\n      tag_252\n        /* \"#utility.yul\":1947:1948   */\n      0x00\n        /* \"#utility.yul\":1936:1945   */\n      dup4\n        /* \"#utility.yul\":1932:1949   */\n      add\n        /* \"#utility.yul\":1923:1929   */\n      dup5\n        /* \"#utility.yul\":1879:1950   */\n      tag_201\n      jump\t// in\n    tag_252:\n        /* \"#utility.yul\":1735:1957   */\n      swap3\n      swap2\n      pop\n      pop\n      jump\t// out\n        /* \"#utility.yul\":1963:2085   */\n    tag_202:\n        /* \"#utility.yul\":2036:2060   */\n      tag_254\n        /* \"#utility.yul\":2054:2059   */\n      dup2\n        /* \"#utility.yul\":2036:2060   */\n      tag_200\n      jump\t// in\n    tag_254:\n        /* \"#utility.yul\":2029:2034   */\n      dup2\n        /* \"#utility.yul\":2026:2061   */\n      eq\n        /* \"#utility.yul\":2016:2079   */\n      tag_255\n      jumpi\n        /* \"#utility.yul\":2075:2076   */\n      0x00\n        /* \"#utility.yul\":2072:2073   */\n      dup1\n        /* \"#utility.yul\":2065:2077   */\n      revert\n        /* \"#utility.yul\":2016:2079   */\n    tag_255:\n        /* \"#utility.yul\":1963:2085   */\n      pop\n      jump\t// out\n        /* \"#utility.yul\":2091:2230   */\n    tag_203:\n        /* \"#utility.yul\":2137:2142   */\n      0x00\n        /* \"#utility.yul\":2175:2181   */\n      dup2\n        /* \"#utility.yul\":2162:2182   */\n      calldataload\n        /* \"#utility.yul\":2153:2182   */\n      swap1\n      pop\n        /* \"#utility.yul\":2191:2224   */\n      tag_257\n        /* \"#utility.yul\":2218:2223   */\n      dup2\n        /* \"#utility.yul\":2191:2224   */\n      tag_202\n      jump\t// in\n    tag_257:\n        /* \"#utility.yul\":2091:2230   */\n      swap3\n      swap2\n      pop\n      pop\n      jump\t// out\n        /* \"#utility.yul\":2236:2565   */\n    tag_43:\n        /* \"#utility.yul\":2295:2301   */\n      0x00\n        /* \"#utility.yul\":2344:2346   */\n      0x20\n        /* \"#utility.yul\":2332:2341   */\n      dup3\n        /* \"#utility.yul\":2323:2330   */\n      dup5\n        /* \"#utility.yul\":2319:2342   */\n      sub\n        /* \"#utility.yul\":2315:2347   */\n      slt\n        /* \"#utility.yul\":2312:2431   */\n      iszero\n      tag_259\n      jumpi\n        /* \"#utility.yul\":2350:2429   */\n      tag_260\n      tag_196\n      jump\t// in\n    tag_260:\n        /* \"#utility.yul\":2312:2431   */\n    tag_259:\n        /* \"#utility.yul\":2470:2471   */\n      0x00\n        /* \"#utility.yul\":2495:2548   */\n      tag_261\n        /* \"#utility.yul\":2540:2547   */\n      dup5\n        /* \"#utility.yul\":2531:2537   */\n      dup3\n        /* \"#utility.yul\":2520:2529   */\n      dup6\n        /* \"#utility.yul\":2516:2538   */\n      add\n        /* \"#utility.yul\":2495:2548   */\n      tag_203\n      jump\t// in\n    tag_261:\n        /* \"#utility.yul\":2485:2548   */\n      swap2\n      pop\n        /* \"#utility.yul\":2441:2558   */\n      pop\n        /* \"#utility.yul\":2236:2565   */\n      swap3\n      swap2\n      pop\n      pop\n      jump\t// out\n        /* \"#utility.yul\":2571:2661   */\n    tag_204:\n        /* \"#utility.yul\":2605:2612   */\n      0x00\n        /* \"#utility.yul\":2648:2653   */\n      dup2\n        /* \"#utility.yul\":2641:2654   */\n      iszero\n        /* \"#utility.yul\":2634:2655   */\n      iszero\n        /* \"#utility.yul\":2623:2655   */\n      swap1\n      pop\n        /* \"#utility.yul\":2571:2661   */\n      swap2\n      swap1\n      pop\n      jump\t// out\n        /* \"#utility.yul\":2667:2776   */\n    tag_205:\n        /* \"#utility.yul\":2748:2769   */\n      tag_264\n        /* \"#utility.yul\":2763:2768   */\n      dup2\n        /* \"#utility.yul\":2748:2769   */\n      tag_204\n      jump\t// in\n    tag_264:\n        /* \"#utility.yul\":2743:2746   */\n      dup3\n        /* \"#utility.yul\":2736:2770   */\n      mstore\n        /* \"#utility.yul\":2667:2776   */\n      pop\n      pop\n      jump\t// out\n        /* \"#utility.yul\":2782:2992   */\n    tag_78:\n        /* \"#utility.yul\":2869:2873   */\n      0x00\n        /* \"#utility.yul\":2907:2909   */\n      0x20\n        /* \"#utility.yul\":2896:2905   */\n      dup3\n        /* \"#utility.yul\":2892:2910   */\n      add\n        /* \"#utility.yul\":2884:2910   */\n      swap1\n      pop\n        /* \"#utility.yul\":2920:2985   */\n      tag_266\n        /* \"#utility.yul\":2982:2983   */\n      0x00\n        /* \"#utility.yul\":2971:2980   */\n      dup4\n        /* \"#utility.yul\":2967:2984   */\n      add\n        /* \"#utility.yul\":2958:2964   */\n      dup5\n        /* \"#utility.yul\":2920:2985   */\n      tag_205\n      jump\t// in\n    tag_266:\n        /* \"#utility.yul\":2782:2992   */\n      swap3\n      swap2\n      pop\n      pop\n      jump\t// out\n        /* \"#utility.yul\":2998:3167   */\n    tag_206:\n        /* \"#utility.yul\":3082:3093   */\n      0x00\n        /* \"#utility.yul\":3116:3122   */\n      dup3\n        /* \"#utility.yul\":3111:3114   */\n      dup3\n        /* \"#utility.yul\":3104:3123   */\n      mstore\n        /* \"#utility.yul\":3156:3160   */\n      0x20\n        /* \"#utility.yul\":3151:3154   */\n      dup3\n        /* \"#utility.yul\":3147:3161   */\n      add\n        /* \"#utility.yul\":3132:3161   */\n      swap1\n      pop\n        /* \"#utility.yul\":2998:3167   */\n      swap3\n      swap2\n      pop\n      pop\n      jump\t// out\n        /* \"#utility.yul\":3173:3334   */\n    tag_207:\n        /* \"#utility.yul\":3313:3326   */\n      0x69636f4973416374697665000000000000000000000000000000000000000000\n        /* \"#utility.yul\":3309:3310   */\n      0x00\n        /* \"#utility.yul\":3301:3307   */\n      dup3\n        /* \"#utility.yul\":3297:3311   */\n      add\n        /* \"#utility.yul\":3290:3327   */\n      mstore\n        /* \"#utility.yul\":3173:3334   */\n      pop\n      jump\t// out\n        /* \"#utility.yul\":3340:3706   */\n    tag_208:\n        /* \"#utility.yul\":3482:3485   */\n      0x00\n        /* \"#utility.yul\":3503:3570   */\n      tag_270\n        /* \"#utility.yul\":3567:3569   */\n      0x0b\n        /* \"#utility.yul\":3562:3565   */\n      dup4\n        /* \"#utility.yul\":3503:3570   */\n      tag_206\n      jump\t// in\n    tag_270:\n        /* \"#utility.yul\":3496:3570   */\n      swap2\n      pop\n        /* \"#utility.yul\":3579:3672   */\n      tag_271\n        /* \"#utility.yul\":3668:3671   */\n      dup3\n        /* \"#utility.yul\":3579:3672   */\n      tag_207\n      jump\t// in\n    tag_271:\n        /* \"#utility.yul\":3697:3699   */\n      0x20\n        /* \"#utility.yul\":3692:3695   */\n      dup3\n        /* \"#utility.yul\":3688:3700   */\n      add\n        /* \"#utility.yul\":3681:3700   */\n      swap1\n      pop\n        /* \"#utility.yul\":3340:3706   */\n      swap2\n      swap1\n      pop\n      jump\t// out\n        /* \"#utility.yul\":3712:4131   */\n    tag_91:\n        /* \"#utility.yul\":3878:3882   */\n      0x00\n        /* \"#utility.yul\":3916:3918   */\n      0x20\n        /* \"#utility.yul\":3905:3914   */\n      dup3\n        /* \"#utility.yul\":3901:3919   */\n      add\n        /* \"#utility.yul\":3893:3919   */\n      swap1\n      pop\n        /* \"#utility.yul\":3965:3974   */\n      dup2\n        /* \"#utility.yul\":3959:3963   */\n      dup2\n        /* \"#utility.yul\":3955:3975   */\n      sub\n        /* \"#utility.yul\":3951:3952   */\n      0x00\n        /* \"#utility.yul\":3940:3949   */\n      dup4\n        /* \"#utility.yul\":3936:3953   */\n      add\n        /* \"#utility.yul\":3929:3976   */\n      mstore\n        /* \"#utility.yul\":3993:4124   */\n      tag_273\n        /* \"#utility.yul\":4119:4123   */\n      dup2\n        /* \"#utility.yul\":3993:4124   */\n      tag_208\n      jump\t// in\n    tag_273:\n        /* \"#utility.yul\":3985:4124   */\n      swap1\n      pop\n        /* \"#utility.yul\":3712:4131   */\n      swap2\n      swap1\n      pop\n      jump\t// out\n        /* \"#utility.yul\":4137:4313   */\n    tag_209:\n        /* \"#utility.yul\":4277:4305   */\n      0x61697264726f70203a20416c7265616479206861732074686174000000000000\n        /* \"#utility.yul\":4273:4274   */\n      0x00\n        /* \"#utility.yul\":4265:4271   */\n      dup3\n        /* \"#utility.yul\":4261:4275   */\n      add\n        /* \"#utility.yul\":4254:4306   */\n      mstore\n        /* \"#utility.yul\":4137:4313   */\n      pop\n      jump\t// out\n        /* \"#utility.yul\":4319:4685   */\n    tag_210:\n        /* \"#utility.yul\":4461:4464   */\n      0x00\n        /* \"#utility.yul\":4482:4549   */\n      tag_276\n        /* \"#utility.yul\":4546:4548   */\n      0x1a\n        /* \"#utility.yul\":4541:4544   */\n      dup4\n        /* \"#utility.yul\":4482:4549   */\n      tag_206\n      jump\t// in\n    tag_276:\n        /* \"#utility.yul\":4475:4549   */\n      swap2\n      pop\n        /* \"#utility.yul\":4558:4651   */\n      tag_277\n        /* \"#utility.yul\":4647:4650   */\n      dup3\n        /* \"#utility.yul\":4558:4651   */\n      tag_209\n      jump\t// in\n    tag_277:\n        /* \"#utility.yul\":4676:4678   */\n      0x20\n        /* \"#utility.yul\":4671:4674   */\n      dup3\n        /* \"#utility.yul\":4667:4679   */\n      add\n        /* \"#utility.yul\":4660:4679   */\n      swap1\n      pop\n        /* \"#utility.yul\":4319:4685   */\n      swap2\n      swap1\n      pop\n      jump\t// out\n        /* \"#utility.yul\":4691:5110   */\n    tag_95:\n        /* \"#utility.yul\":4857:4861   */\n      0x00\n        /* \"#utility.yul\":4895:4897   */\n      0x20\n        /* \"#utility.yul\":4884:4893   */\n      dup3\n        /* \"#utility.yul\":4880:4898   */\n      add\n        /* \"#utility.yul\":4872:4898   */\n      swap1\n      pop\n        /* \"#utility.yul\":4944:4953   */\n      dup2\n        /* \"#utility.yul\":4938:4942   */\n      dup2\n        /* \"#utility.yul\":4934:4954   */\n      sub\n        /* \"#utility.yul\":4930:4931   */\n      0x00\n        /* \"#utility.yul\":4919:4928   */\n      dup4\n        /* \"#utility.yul\":4915:4932   */\n      add\n        /* \"#utility.yul\":4908:4955   */\n      mstore\n        /* \"#utility.yul\":4972:5103   */\n      tag_279\n        /* \"#utility.yul\":5098:5102   */\n      dup2\n        /* \"#utility.yul\":4972:5103   */\n      tag_210\n      jump\t// in\n    tag_279:\n        /* \"#utility.yul\":4964:5103   */\n      swap1\n      pop\n        /* \"#utility.yul\":4691:5110   */\n      swap2\n      swap1\n      pop\n      jump\t// out\n        /* \"#utility.yul\":5116:5296   */\n    tag_211:\n        /* \"#utility.yul\":5164:5241   */\n      0x4e487b7100000000000000000000000000000000000000000000000000000000\n        /* \"#utility.yul\":5161:5162   */\n      0x00\n        /* \"#utility.yul\":5154:5242   */\n      mstore\n        /* \"#utility.yul\":5261:5265   */\n      0x11\n        /* \"#utility.yul\":5258:5259   */\n      0x04\n        /* \"#utility.yul\":5251:5266   */\n      mstore\n        /* \"#utility.yul\":5285:5289   */\n      0x24\n        /* \"#utility.yul\":5282:5283   */\n      0x00\n        /* \"#utility.yul\":5275:5290   */\n      revert\n        /* \"#utility.yul\":5302:5493   */\n    tag_97:\n        /* \"#utility.yul\":5342:5345   */\n      0x00\n        /* \"#utility.yul\":5361:5381   */\n      tag_282\n        /* \"#utility.yul\":5379:5380   */\n      dup3\n        /* \"#utility.yul\":5361:5381   */\n      tag_200\n      jump\t// in\n    tag_282:\n        /* \"#utility.yul\":5356:5381   */\n      swap2\n      pop\n        /* \"#utility.yul\":5395:5415   */\n      tag_283\n        /* \"#utility.yul\":5413:5414   */\n      dup4\n        /* \"#utility.yul\":5395:5415   */\n      tag_200\n      jump\t// in\n    tag_283:\n        /* \"#utility.yul\":5390:5415   */\n      swap3\n      pop\n        /* \"#utility.yul\":5438:5439   */\n      dup3\n        /* \"#utility.yul\":5435:5436   */\n      dup3\n        /* \"#utility.yul\":5431:5440   */\n      add\n        /* \"#utility.yul\":5424:5440   */\n      swap1\n      pop\n        /* \"#utility.yul\":5459:5462   */\n      dup1\n        /* \"#utility.yul\":5456:5457   */\n      dup3\n        /* \"#utility.yul\":5453:5463   */\n      gt\n        /* \"#utility.yul\":5450:5486   */\n      iszero\n      tag_284\n      jumpi\n        /* \"#utility.yul\":5466:5484   */\n      tag_285\n      tag_211\n      jump\t// in\n    tag_285:\n        /* \"#utility.yul\":5450:5486   */\n    tag_284:\n        /* \"#utility.yul\":5302:5493   */\n      swap3\n      swap2\n      pop\n      pop\n      jump\t// out\n        /* \"#utility.yul\":5499:5666   */\n    tag_212:\n        /* \"#utility.yul\":5639:5658   */\n      0x5f6d617841697264726f70416d6f756e74000000000000000000000000000000\n        /* \"#utility.yul\":5635:5636   */\n      0x00\n        /* \"#utility.yul\":5627:5633   */\n      dup3\n        /* \"#utility.yul\":5623:5637   */\n      add\n        /* \"#utility.yul\":5616:5659   */\n      mstore\n        /* \"#utility.yul\":5499:5666   */\n      pop\n      jump\t// out\n        /* \"#utility.yul\":5672:6038   */\n    tag_213:\n        /* \"#utility.yul\":5814:5817   */\n      0x00\n        /* \"#utility.yul\":5835:5902   */\n      tag_288\n        /* \"#utility.yul\":5899:5901   */\n      0x11\n        /* \"#utility.yul\":5894:5897   */\n      dup4\n        /* \"#utility.yul\":5835:5902   */\n      tag_206\n      jump\t// in\n    tag_288:\n        /* \"#utility.yul\":5828:5902   */\n      swap2\n      pop\n        /* \"#utility.yul\":5911:6004   */\n      tag_289\n        /* \"#utility.yul\":6000:6003   */\n      dup3\n        /* \"#utility.yul\":5911:6004   */\n      tag_212\n      jump\t// in\n    tag_289:\n        /* \"#utility.yul\":6029:6031   */\n      0x20\n        /* \"#utility.yul\":6024:6027   */\n      dup3\n        /* \"#utility.yul\":6020:6032   */\n      add\n        /* \"#utility.yul\":6013:6032   */\n      swap1\n      pop\n        /* \"#utility.yul\":5672:6038   */\n      swap2\n      swap1\n      pop\n      jump\t// out\n        /* \"#utility.yul\":6044:6463   */\n    tag_100:\n        /* \"#utility.yul\":6210:6214   */\n      0x00\n        /* \"#utility.yul\":6248:6250   */\n      0x20\n        /* \"#utility.yul\":6237:6246   */\n      dup3\n        /* \"#utility.yul\":6233:6251   */\n      add\n        /* \"#utility.yul\":6225:6251   */\n      swap1\n      pop\n        /* \"#utility.yul\":6297:6306   */\n      dup2\n        /* \"#utility.yul\":6291:6295   */\n      dup2\n        /* \"#utility.yul\":6287:6307   */\n      sub\n        /* \"#utility.yul\":6283:6284   */\n      0x00\n        /* \"#utility.yul\":6272:6281   */\n      dup4\n        /* \"#utility.yul\":6268:6285   */\n      add\n        /* \"#utility.yul\":6261:6308   */\n      mstore\n        /* \"#utility.yul\":6325:6456   */\n      tag_291\n        /* \"#utility.yul\":6451:6455   */\n      dup2\n        /* \"#utility.yul\":6325:6456   */\n      tag_213\n      jump\t// in\n    tag_291:\n        /* \"#utility.yul\":6317:6456   */\n      swap1\n      pop\n        /* \"#utility.yul\":6044:6463   */\n      swap2\n      swap1\n      pop\n      jump\t// out\n        /* \"#utility.yul\":6469:6635   */\n    tag_214:\n        /* \"#utility.yul\":6609:6627   */\n      0x4e6f20456e6f7567687420746f6b656e00000000000000000000000000000000\n        /* \"#utility.yul\":6605:6606   */\n      0x00\n        /* \"#utility.yul\":6597:6603   */\n      dup3\n        /* \"#utility.yul\":6593:6607   */\n      add\n        /* \"#utility.yul\":6586:6628   */\n      mstore\n        /* \"#utility.yul\":6469:6635   */\n      pop\n      jump\t// out\n        /* \"#utility.yul\":6641:7007   */\n    tag_215:\n        /* \"#utility.yul\":6783:6786   */\n      0x00\n        /* \"#utility.yul\":6804:6871   */\n      tag_294\n        /* \"#utility.yul\":6868:6870   */\n      0x10\n        /* \"#utility.yul\":6863:6866   */\n      dup4\n        /* \"#utility.yul\":6804:6871   */\n      tag_206\n      jump\t// in\n    tag_294:\n        /* \"#utility.yul\":6797:6871   */\n      swap2\n      pop\n        /* \"#utility.yul\":6880:6973   */\n      tag_295\n        /* \"#utility.yul\":6969:6972   */\n      dup3\n        /* \"#utility.yul\":6880:6973   */\n      tag_214\n      jump\t// in\n    tag_295:\n        /* \"#utility.yul\":6998:7000   */\n      0x20\n        /* \"#utility.yul\":6993:6996   */\n      dup3\n        /* \"#utility.yul\":6989:7001   */\n      add\n        /* \"#utility.yul\":6982:7001   */\n      swap1\n      pop\n        /* \"#utility.yul\":6641:7007   */\n      swap2\n      swap1\n      pop\n      jump\t// out\n        /* \"#utility.yul\":7013:7432   */\n    tag_104:\n        /* \"#utility.yul\":7179:7183   */\n      0x00\n        /* \"#utility.yul\":7217:7219   */\n      0x20\n        /* \"#utility.yul\":7206:7215   */\n      dup3\n        /* \"#utility.yul\":7202:7220   */\n      add\n        /* \"#utility.yul\":7194:7220   */\n      swap1\n      pop\n        /* \"#utility.yul\":7266:7275   */\n      dup2\n        /* \"#utility.yul\":7260:7264   */\n      dup2\n        /* \"#utility.yul\":7256:7276   */\n      sub\n        /* \"#utility.yul\":7252:7253   */\n      0x00\n        /* \"#utility.yul\":7241:7250   */\n      dup4\n        /* \"#utility.yul\":7237:7254   */\n      add\n        /* \"#utility.yul\":7230:7277   */\n      mstore\n        /* \"#utility.yul\":7294:7425   */\n      tag_297\n        /* \"#utility.yul\":7420:7424   */\n      dup2\n        /* \"#utility.yul\":7294:7425   */\n      tag_215\n      jump\t// in\n    tag_297:\n        /* \"#utility.yul\":7286:7425   */\n      swap1\n      pop\n        /* \"#utility.yul\":7013:7432   */\n      swap2\n      swap1\n      pop\n      jump\t// out\n        /* \"#utility.yul\":7438:7770   */\n    tag_106:\n        /* \"#utility.yul\":7559:7563   */\n      0x00\n        /* \"#utility.yul\":7597:7599   */\n      0x40\n        /* \"#utility.yul\":7586:7595   */\n      dup3\n        /* \"#utility.yul\":7582:7600   */\n      add\n        /* \"#utility.yul\":7574:7600   */\n      swap1\n      pop\n        /* \"#utility.yul\":7610:7681   */\n      tag_299\n        /* \"#utility.yul\":7678:7679   */\n      0x00\n        /* \"#utility.yul\":7667:7676   */\n      dup4\n        /* \"#utility.yul\":7663:7680   */\n      add\n        /* \"#utility.yul\":7654:7660   */\n      dup6\n        /* \"#utility.yul\":7610:7681   */\n      tag_194\n      jump\t// in\n    tag_299:\n        /* \"#utility.yul\":7691:7763   */\n      tag_300\n        /* \"#utility.yul\":7759:7761   */\n      0x20\n        /* \"#utility.yul\":7748:7757   */\n      dup4\n        /* \"#utility.yul\":7744:7762   */\n      add\n        /* \"#utility.yul\":7735:7741   */\n      dup5\n        /* \"#utility.yul\":7691:7763   */\n      tag_201\n      jump\t// in\n    tag_300:\n        /* \"#utility.yul\":7438:7770   */\n      swap4\n      swap3\n      pop\n      pop\n      pop\n      jump\t// out\n        /* \"#utility.yul\":7776:7892   */\n    tag_216:\n        /* \"#utility.yul\":7846:7867   */\n      tag_302\n        /* \"#utility.yul\":7861:7866   */\n      dup2\n        /* \"#utility.yul\":7846:7867   */\n      tag_204\n      jump\t// in\n    tag_302:\n        /* \"#utility.yul\":7839:7844   */\n      dup2\n        /* \"#utility.yul\":7836:7868   */\n      eq\n        /* \"#utility.yul\":7826:7886   */\n      tag_303\n      jumpi\n        /* \"#utility.yul\":7882:7883   */\n      0x00\n        /* \"#utility.yul\":7879:7880   */\n      dup1\n        /* \"#utility.yul\":7872:7884   */\n      revert\n        /* \"#utility.yul\":7826:7886   */\n    tag_303:\n        /* \"#utility.yul\":7776:7892   */\n      pop\n      jump\t// out\n        /* \"#utility.yul\":7898:8035   */\n    tag_217:\n        /* \"#utility.yul\":7952:7957   */\n      0x00\n        /* \"#utility.yul\":7983:7989   */\n      dup2\n        /* \"#utility.yul\":7977:7990   */\n      mload\n        /* \"#utility.yul\":7968:7990   */\n      swap1\n      pop\n        /* \"#utility.yul\":7999:8029   */\n      tag_305\n        /* \"#utility.yul\":8023:8028   */\n      dup2\n        /* \"#utility.yul\":7999:8029   */\n      tag_216\n      jump\t// in\n    tag_305:\n        /* \"#utility.yul\":7898:8035   */\n      swap3\n      swap2\n      pop\n      pop\n      jump\t// out\n        /* \"#utility.yul\":8041:8386   */\n    tag_110:\n        /* \"#utility.yul\":8108:8114   */\n      0x00\n        /* \"#utility.yul\":8157:8159   */\n      0x20\n        /* \"#utility.yul\":8145:8154   */\n      dup3\n        /* \"#utility.yul\":8136:8143   */\n      dup5\n        /* \"#utility.yul\":8132:8155   */\n      sub\n        /* \"#utility.yul\":8128:8160   */\n      slt\n        /* \"#utility.yul\":8125:8244   */\n      iszero\n      tag_307\n      jumpi\n        /* \"#utility.yul\":8163:8242   */\n      tag_308\n      tag_196\n      jump\t// in\n    tag_308:\n        /* \"#utility.yul\":8125:8244   */\n    tag_307:\n        /* \"#utility.yul\":8283:8284   */\n      0x00\n        /* \"#utility.yul\":8308:8369   */\n      tag_309\n        /* \"#utility.yul\":8361:8368   */\n      dup5\n        /* \"#utility.yul\":8352:8358   */\n      dup3\n        /* \"#utility.yul\":8341:8350   */\n      dup6\n        /* \"#utility.yul\":8337:8359   */\n      add\n        /* \"#utility.yul\":8308:8369   */\n      tag_217\n      jump\t// in\n    tag_309:\n        /* \"#utility.yul\":8298:8369   */\n      swap2\n      pop\n        /* \"#utility.yul\":8254:8379   */\n      pop\n        /* \"#utility.yul\":8041:8386   */\n      swap3\n      swap2\n      pop\n      pop\n      jump\t// out\n        /* \"#utility.yul\":8392:8625   */\n    tag_114:\n        /* \"#utility.yul\":8431:8434   */\n      0x00\n        /* \"#utility.yul\":8454:8478   */\n      tag_311\n        /* \"#utility.yul\":8472:8477   */\n      dup3\n        /* \"#utility.yul\":8454:8478   */\n      tag_200\n      jump\t// in\n    tag_311:\n        /* \"#utility.yul\":8445:8478   */\n      swap2\n      pop\n        /* \"#utility.yul\":8500:8566   */\n      0xffffffffffffffffffffffffffffffffffffffffffffffffffffffffffffffff\n        /* \"#utility.yul\":8493:8498   */\n      dup3\n        /* \"#utility.yul\":8490:8567   */\n      sub\n        /* \"#utility.yul\":8487:8590   */\n      tag_312\n      jumpi\n        /* \"#utility.yul\":8570:8588   */\n      tag_313\n      tag_211\n      jump\t// in\n    tag_313:\n        /* \"#utility.yul\":8487:8590   */\n    tag_312:\n        /* \"#utility.yul\":8617:8618   */\n      0x01\n        /* \"#utility.yul\":8610:8615   */\n      dup3\n        /* \"#utility.yul\":8606:8619   */\n      add\n        /* \"#utility.yul\":8599:8619   */\n      swap1\n      pop\n        /* \"#utility.yul\":8392:8625   */\n      swap2\n      swap1\n      pop\n      jump\t// out\n        /* \"#utility.yul\":8631:8774   */\n    tag_218:\n        /* \"#utility.yul\":8688:8693   */\n      0x00\n        /* \"#utility.yul\":8719:8725   */\n      dup2\n        /* \"#utility.yul\":8713:8726   */\n      mload\n        /* \"#utility.yul\":8704:8726   */\n      swap1\n      pop\n        /* \"#utility.yul\":8735:8768   */\n      tag_315\n        /* \"#utility.yul\":8762:8767   */\n      dup2\n        /* \"#utility.yul\":8735:8768   */\n      tag_202\n      jump\t// in\n    tag_315:\n        /* \"#utility.yul\":8631:8774   */\n      swap3\n      swap2\n      pop\n      pop\n      jump\t// out\n        /* \"#utility.yul\":8780:9131   */\n    tag_121:\n        /* \"#utility.yul\":8850:8856   */\n      0x00\n        /* \"#utility.yul\":8899:8901   */\n      0x20\n        /* \"#utility.yul\":8887:8896   */\n      dup3\n        /* \"#utility.yul\":8878:8885   */\n      dup5\n        /* \"#utility.yul\":8874:8897   */\n      sub\n        /* \"#utility.yul\":8870:8902   */\n      slt\n        /* \"#utility.yul\":8867:8986   */\n      iszero\n      tag_317\n      jumpi\n        /* \"#utility.yul\":8905:8984   */\n      tag_318\n      tag_196\n      jump\t// in\n    tag_318:\n        /* \"#utility.yul\":8867:8986   */\n    tag_317:\n        /* \"#utility.yul\":9025:9026   */\n      0x00\n        /* \"#utility.yul\":9050:9114   */\n      tag_319\n        /* \"#utility.yul\":9106:9113   */\n      dup5\n        /* \"#utility.yul\":9097:9103   */\n      dup3\n        /* \"#utility.yul\":9086:9095   */\n      dup6\n        /* \"#utility.yul\":9082:9104   */\n      add\n        /* \"#utility.yul\":9050:9114   */\n      tag_218\n      jump\t// in\n    tag_319:\n        /* \"#utility.yul\":9040:9114   */\n      swap2\n      pop\n        /* \"#utility.yul\":8996:9124   */\n      pop\n        /* \"#utility.yul\":8780:9131   */\n      swap3\n      swap2\n      pop\n      pop\n      jump\t// out\n        /* \"#utility.yul\":9137:9296   */\n    tag_219:\n        /* \"#utility.yul\":9277:9288   */\n      0x4f6e6c7941646d696e0000000000000000000000000000000000000000000000\n        /* \"#utility.yul\":9273:9274   */\n      0x00\n        /* \"#utility.yul\":9265:9271   */\n      dup3\n        /* \"#utility.yul\":9261:9275   */\n      add\n        /* \"#utility.yul\":9254:9289   */\n      mstore\n        /* \"#utility.yul\":9137:9296   */\n      pop\n      jump\t// out\n        /* \"#utility.yul\":9302:9667   */\n    tag_220:\n        /* \"#utility.yul\":9444:9447   */\n      0x00\n        /* \"#utility.yul\":9465:9531   */\n      tag_322\n        /* \"#utility.yul\":9529:9530   */\n      0x09\n        /* \"#utility.yul\":9524:9527   */\n      dup4\n        /* \"#utility.yul\":9465:9531   */\n      tag_206\n      jump\t// in\n    tag_322:\n        /* \"#utility.yul\":9458:9531   */\n      swap2\n      pop\n        /* \"#utility.yul\":9540:9633   */\n      tag_323\n        /* \"#utility.yul\":9629:9632   */\n      dup3\n        /* \"#utility.yul\":9540:9633   */\n      tag_219\n      jump\t// in\n    tag_323:\n        /* \"#utility.yul\":9658:9660   */\n      0x20\n        /* \"#utility.yul\":9653:9656   */\n      dup3\n        /* \"#utility.yul\":9649:9661   */\n      add\n        /* \"#utility.yul\":9642:9661   */\n      swap1\n      pop\n        /* \"#utility.yul\":9302:9667   */\n      swap2\n      swap1\n      pop\n      jump\t// out\n        /* \"#utility.yul\":9673:10092   */\n    tag_125:\n        /* \"#utility.yul\":9839:9843   */\n      0x00\n        /* \"#utility.yul\":9877:9879   */\n      0x20\n        /* \"#utility.yul\":9866:9875   */\n      dup3\n        /* \"#utility.yul\":9862:9880   */\n      add\n        /* \"#utility.yul\":9854:9880   */\n      swap1\n      pop\n        /* \"#utility.yul\":9926:9935   */\n      dup2\n        /* \"#utility.yul\":9920:9924   */\n      dup2\n        /* \"#utility.yul\":9916:9936   */\n      sub\n        /* \"#utility.yul\":9912:9913   */\n      0x00\n        /* \"#utility.yul\":9901:9910   */\n      dup4\n        /* \"#utility.yul\":9897:9914   */\n      add\n        /* \"#utility.yul\":9890:9937   */\n      mstore\n        /* \"#utility.yul\":9954:10085   */\n      tag_325\n        /* \"#utility.yul\":10080:10084   */\n      dup2\n        /* \"#utility.yul\":9954:10085   */\n      tag_220\n      jump\t// in\n    tag_325:\n        /* \"#utility.yul\":9946:10085   */\n      swap1\n      pop\n        /* \"#utility.yul\":9673:10092   */\n      swap2\n      swap1\n      pop\n      jump\t// out\n        /* \"#utility.yul\":10098:10262   */\n    tag_221:\n        /* \"#utility.yul\":10238:10254   */\n      0x7769746864726177546f6b656e73000000000000000000000000000000000000\n        /* \"#utility.yul\":10234:10235   */\n      0x00\n        /* \"#utility.yul\":10226:10232   */\n      dup3\n        /* \"#utility.yul\":10222:10236   */\n      add\n        /* \"#utility.yul\":10215:10255   */\n      mstore\n        /* \"#utility.yul\":10098:10262   */\n      pop\n      jump\t// out\n        /* \"#utility.yul\":10268:10634   */\n    tag_222:\n        /* \"#utility.yul\":10410:10413   */\n      0x00\n        /* \"#utility.yul\":10431:10498   */\n      tag_328\n        /* \"#utility.yul\":10495:10497   */\n      0x0e\n        /* \"#utility.yul\":10490:10493   */\n      dup4\n        /* \"#utility.yul\":10431:10498   */\n      tag_206\n      jump\t// in\n    tag_328:\n        /* \"#utility.yul\":10424:10498   */\n      swap2\n      pop\n        /* \"#utility.yul\":10507:10600   */\n      tag_329\n        /* \"#utility.yul\":10596:10599   */\n      dup3\n        /* \"#utility.yul\":10507:10600   */\n      tag_221\n      jump\t// in\n    tag_329:\n        /* \"#utility.yul\":10625:10627   */\n      0x20\n        /* \"#utility.yul\":10620:10623   */\n      dup3\n        /* \"#utility.yul\":10616:10628   */\n      add\n        /* \"#utility.yul\":10609:10628   */\n      swap1\n      pop\n        /* \"#utility.yul\":10268:10634   */\n      swap2\n      swap1\n      pop\n      jump\t// out\n        /* \"#utility.yul\":10640:11059   */\n    tag_130:\n        /* \"#utility.yul\":10806:10810   */\n      0x00\n        /* \"#utility.yul\":10844:10846   */\n      0x20\n        /* \"#utility.yul\":10833:10842   */\n      dup3\n        /* \"#utility.yul\":10829:10847   */\n      add\n        /* \"#utility.yul\":10821:10847   */\n      swap1\n      pop\n        /* \"#utility.yul\":10893:10902   */\n      dup2\n        /* \"#utility.yul\":10887:10891   */\n      dup2\n        /* \"#utility.yul\":10883:10903   */\n      sub\n        /* \"#utility.yul\":10879:10880   */\n      0x00\n        /* \"#utility.yul\":10868:10877   */\n      dup4\n        /* \"#utility.yul\":10864:10881   */\n      add\n        /* \"#utility.yul\":10857:10904   */\n      mstore\n        /* \"#utility.yul\":10921:11052   */\n      tag_331\n        /* \"#utility.yul\":11047:11051   */\n      dup2\n        /* \"#utility.yul\":10921:11052   */\n      tag_222\n      jump\t// in\n    tag_331:\n        /* \"#utility.yul\":10913:11052   */\n      swap1\n      pop\n        /* \"#utility.yul\":10640:11059   */\n      swap2\n      swap1\n      pop\n      jump\t// out\n        /* \"#utility.yul\":11065:11227   */\n    tag_223:\n        /* \"#utility.yul\":11205:11219   */\n      0x6475726174696f6e203e20300000000000000000000000000000000000000000\n        /* \"#utility.yul\":11201:11202   */\n      0x00\n        /* \"#utility.yul\":11193:11199   */\n      dup3\n        /* \"#utility.yul\":11189:11203   */\n      add\n        /* \"#utility.yul\":11182:11220   */\n      mstore\n        /* \"#utility.yul\":11065:11227   */\n      pop\n      jump\t// out\n        /* \"#utility.yul\":11233:11599   */\n    tag_224:\n        /* \"#utility.yul\":11375:11378   */\n      0x00\n        /* \"#utility.yul\":11396:11463   */\n      tag_334\n        /* \"#utility.yul\":11460:11462   */\n      0x0c\n        /* \"#utility.yul\":11455:11458   */\n      dup4\n        /* \"#utility.yul\":11396:11463   */\n      tag_206\n      jump\t// in\n    tag_334:\n        /* \"#utility.yul\":11389:11463   */\n      swap2\n      pop\n        /* \"#utility.yul\":11472:11565   */\n      tag_335\n        /* \"#utility.yul\":11561:11564   */\n      dup3\n        /* \"#utility.yul\":11472:11565   */\n      tag_223\n      jump\t// in\n    tag_335:\n        /* \"#utility.yul\":11590:11592   */\n      0x20\n        /* \"#utility.yul\":11585:11588   */\n      dup3\n        /* \"#utility.yul\":11581:11593   */\n      add\n        /* \"#utility.yul\":11574:11593   */\n      swap1\n      pop\n        /* \"#utility.yul\":11233:11599   */\n      swap2\n      swap1\n      pop\n      jump\t// out\n        /* \"#utility.yul\":11605:12024   */\n    tag_153:\n        /* \"#utility.yul\":11771:11775   */\n      0x00\n        /* \"#utility.yul\":11809:11811   */\n      0x20\n        /* \"#utility.yul\":11798:11807   */\n      dup3\n        /* \"#utility.yul\":11794:11812   */\n      add\n        /* \"#utility.yul\":11786:11812   */\n      swap1\n      pop\n        /* \"#utility.yul\":11858:11867   */\n      dup2\n        /* \"#utility.yul\":11852:11856   */\n      dup2\n        /* \"#utility.yul\":11848:11868   */\n      sub\n        /* \"#utility.yul\":11844:11845   */\n      0x00\n        /* \"#utility.yul\":11833:11842   */\n      dup4\n        /* \"#utility.yul\":11829:11846   */\n      add\n        /* \"#utility.yul\":11822:11869   */\n      mstore\n        /* \"#utility.yul\":11886:12017   */\n      tag_337\n        /* \"#utility.yul\":12012:12016   */\n      dup2\n        /* \"#utility.yul\":11886:12017   */\n      tag_224\n      jump\t// in\n    tag_337:\n        /* \"#utility.yul\":11878:12017   */\n      swap1\n      pop\n        /* \"#utility.yul\":11605:12024   */\n      swap2\n      swap1\n      pop\n      jump\t// out\n        /* \"#utility.yul\":12030:12472   */\n    tag_166:\n        /* \"#utility.yul\":12179:12183   */\n      0x00\n        /* \"#utility.yul\":12217:12219   */\n      0x60\n        /* \"#utility.yul\":12206:12215   */\n      dup3\n        /* \"#utility.yul\":12202:12220   */\n      add\n        /* \"#utility.yul\":12194:12220   */\n      swap1\n      pop\n        /* \"#utility.yul\":12230:12301   */\n      tag_339\n        /* \"#utility.yul\":12298:12299   */\n      0x00\n        /* \"#utility.yul\":12287:12296   */\n      dup4\n        /* \"#utility.yul\":12283:12300   */\n      add\n        /* \"#utility.yul\":12274:12280   */\n      dup7\n        /* \"#utility.yul\":12230:12301   */\n      tag_194\n      jump\t// in\n    tag_339:\n        /* \"#utility.yul\":12311:12383   */\n      tag_340\n        /* \"#utility.yul\":12379:12381   */\n      0x20\n        /* \"#utility.yul\":12368:12377   */\n      dup4\n        /* \"#utility.yul\":12364:12382   */\n      add\n        /* \"#utility.yul\":12355:12361   */\n      dup6\n        /* \"#utility.yul\":12311:12383   */\n      tag_194\n      jump\t// in\n    tag_340:\n        /* \"#utility.yul\":12393:12465   */\n      tag_341\n        /* \"#utility.yul\":12461:12463   */\n      0x40\n        /* \"#utility.yul\":12450:12459   */\n      dup4\n        /* \"#utility.yul\":12446:12464   */\n      add\n        /* \"#utility.yul\":12437:12443   */\n      dup5\n        /* \"#utility.yul\":12393:12465   */\n      tag_201\n      jump\t// in\n    tag_341:\n        /* \"#utility.yul\":12030:12472   */\n      swap5\n      swap4\n      pop\n      pop\n      pop\n      pop\n      jump\t// out\n        /* \"#utility.yul\":12478:12658   */\n    tag_225:\n        /* \"#utility.yul\":12526:12603   */\n      0x4e487b7100000000000000000000000000000000000000000000000000000000\n        /* \"#utility.yul\":12523:12524   */\n      0x00\n        /* \"#utility.yul\":12516:12604   */\n      mstore\n        /* \"#utility.yul\":12623:12627   */\n      0x12\n        /* \"#utility.yul\":12620:12621   */\n      0x04\n        /* \"#utility.yul\":12613:12628   */\n      mstore\n        /* \"#utility.yul\":12647:12651   */\n      0x24\n        /* \"#utility.yul\":12644:12645   */\n      0x00\n        /* \"#utility.yul\":12637:12652   */\n      revert\n        /* \"#utility.yul\":12664:12849   */\n    tag_179:\n        /* \"#utility.yul\":12704:12705   */\n      0x00\n        /* \"#utility.yul\":12721:12741   */\n      tag_344\n        /* \"#utility.yul\":12739:12740   */\n      dup3\n        /* \"#utility.yul\":12721:12741   */\n      tag_200\n      jump\t// in\n    tag_344:\n        /* \"#utility.yul\":12716:12741   */\n      swap2\n      pop\n        /* \"#utility.yul\":12755:12775   */\n      tag_345\n        /* \"#utility.yul\":12773:12774   */\n      dup4\n        /* \"#utility.yul\":12755:12775   */\n      tag_200\n      jump\t// in\n    tag_345:\n        /* \"#utility.yul\":12750:12775   */\n      swap3\n      pop\n        /* \"#utility.yul\":12794:12795   */\n      dup3\n        /* \"#utility.yul\":12784:12819   */\n      tag_346\n      jumpi\n        /* \"#utility.yul\":12799:12817   */\n      tag_347\n      tag_225\n      jump\t// in\n    tag_347:\n        /* \"#utility.yul\":12784:12819   */\n    tag_346:\n        /* \"#utility.yul\":12841:12842   */\n      dup3\n        /* \"#utility.yul\":12838:12839   */\n      dup3\n        /* \"#utility.yul\":12834:12843   */\n      div\n        /* \"#utility.yul\":12829:12843   */\n      swap1\n      pop\n        /* \"#utility.yul\":12664:12849   */\n      swap3\n      swap2\n      pop\n      pop\n      jump\t// out\n        /* \"#utility.yul\":12855:13265   */\n    tag_181:\n        /* \"#utility.yul\":12895:12902   */\n      0x00\n        /* \"#utility.yul\":12918:12938   */\n      tag_349\n        /* \"#utility.yul\":12936:12937   */\n      dup3\n        /* \"#utility.yul\":12918:12938   */\n      tag_200\n      jump\t// in\n    tag_349:\n        /* \"#utility.yul\":12913:12938   */\n      swap2\n      pop\n        /* \"#utility.yul\":12952:12972   */\n      tag_350\n        /* \"#utility.yul\":12970:12971   */\n      dup4\n        /* \"#utility.yul\":12952:12972   */\n      tag_200\n      jump\t// in\n    tag_350:\n        /* \"#utility.yul\":12947:12972   */\n      swap3\n      pop\n        /* \"#utility.yul\":13007:13008   */\n      dup3\n        /* \"#utility.yul\":13004:13005   */\n      dup3\n        /* \"#utility.yul\":13000:13009   */\n      mul\n        /* \"#utility.yul\":13029:13059   */\n      tag_351\n        /* \"#utility.yul\":13047:13058   */\n      dup2\n        /* \"#utility.yul\":13029:13059   */\n      tag_200\n      jump\t// in\n    tag_351:\n        /* \"#utility.yul\":13018:13059   */\n      swap2\n      pop\n        /* \"#utility.yul\":13208:13209   */\n      dup3\n        /* \"#utility.yul\":13199:13206   */\n      dup3\n        /* \"#utility.yul\":13195:13210   */\n      div\n        /* \"#utility.yul\":13192:13193   */\n      dup5\n        /* \"#utility.yul\":13189:13211   */\n      eq\n        /* \"#utility.yul\":13169:13170   */\n      dup4\n        /* \"#utility.yul\":13162:13171   */\n      iszero\n        /* \"#utility.yul\":13142:13225   */\n      or\n        /* \"#utility.yul\":13119:13258   */\n      tag_352\n      jumpi\n        /* \"#utility.yul\":13238:13256   */\n      tag_353\n      tag_211\n      jump\t// in\n    tag_353:\n        /* \"#utility.yul\":13119:13258   */\n    tag_352:\n        /* \"#utility.yul\":12903:13265   */\n      pop\n        /* \"#utility.yul\":12855:13265   */\n      swap3\n      swap2\n      pop\n      pop\n      jump\t// out\n        /* \"#utility.yul\":13271:13435   */\n    tag_226:\n        /* \"#utility.yul\":13411:13427   */\n      0x7075726368617365207072696365000000000000000000000000000000000000\n        /* \"#utility.yul\":13407:13408   */\n      0x00\n        /* \"#utility.yul\":13399:13405   */\n      dup3\n        /* \"#utility.yul\":13395:13409   */\n      add\n        /* \"#utility.yul\":13388:13428   */\n      mstore\n        /* \"#utility.yul\":13271:13435   */\n      pop\n      jump\t// out\n        /* \"#utility.yul\":13441:13807   */\n    tag_227:\n        /* \"#utility.yul\":13583:13586   */\n      0x00\n        /* \"#utility.yul\":13604:13671   */\n      tag_356\n        /* \"#utility.yul\":13668:13670   */\n      0x0e\n        /* \"#utility.yul\":13663:13666   */\n      dup4\n        /* \"#utility.yul\":13604:13671   */\n      tag_206\n      jump\t// in\n    tag_356:\n        /* \"#utility.yul\":13597:13671   */\n      swap2\n      pop\n        /* \"#utility.yul\":13680:13773   */\n      tag_357\n        /* \"#utility.yul\":13769:13772   */\n      dup3\n        /* \"#utility.yul\":13680:13773   */\n      tag_226\n      jump\t// in\n    tag_357:\n        /* \"#utility.yul\":13798:13800   */\n      0x20\n        /* \"#utility.yul\":13793:13796   */\n      dup3\n        /* \"#utility.yul\":13789:13801   */\n      add\n        /* \"#utility.yul\":13782:13801   */\n      swap1\n      pop\n        /* \"#utility.yul\":13441:13807   */\n      swap2\n      swap1\n      pop\n      jump\t// out\n        /* \"#utility.yul\":13813:14232   */\n    tag_184:\n        /* \"#utility.yul\":13979:13983   */\n      0x00\n        /* \"#utility.yul\":14017:14019   */\n      0x20\n        /* \"#utility.yul\":14006:14015   */\n      dup3\n        /* \"#utility.yul\":14002:14020   */\n      add\n        /* \"#utility.yul\":13994:14020   */\n      swap1\n      pop\n        /* \"#utility.yul\":14066:14075   */\n      dup2\n        /* \"#utility.yul\":14060:14064   */\n      dup2\n        /* \"#utility.yul\":14056:14076   */\n      sub\n        /* \"#utility.yul\":14052:14053   */\n      0x00\n        /* \"#utility.yul\":14041:14050   */\n      dup4\n        /* \"#utility.yul\":14037:14054   */\n      add\n        /* \"#utility.yul\":14030:14077   */\n      mstore\n        /* \"#utility.yul\":14094:14225   */\n      tag_359\n        /* \"#utility.yul\":14220:14224   */\n      dup2\n        /* \"#utility.yul\":14094:14225   */\n      tag_227\n      jump\t// in\n    tag_359:\n        /* \"#utility.yul\":14086:14225   */\n      swap1\n      pop\n        /* \"#utility.yul\":13813:14232   */\n      swap2\n      swap1\n      pop\n      jump\t// out\n\n    auxdata: 0xa26469706673582212207e881c688832a6086de3b3081f18f9994f835cee4fcf0545c4f8f2a7238dd7c664736f6c634300081a0033\n}\n",
				"bytecode": {
					"linkReferences": {},
					"object": "608060405266038d7ea4c6800060025568056bc75e2d6310000060035569d3c21bcecceda1000000600555348015610035575f80fd5b50604051611a1f380380611a1f8339818101604052810190610057919061013b565b8160015f6101000a81548173ffffffffffffffffffffffffffffffffffffffff021916908373ffffffffffffffffffffffffffffffffffffffff160217905550805f806101000a81548173ffffffffffffffffffffffffffffffffffffffff021916908373ffffffffffffffffffffffffffffffffffffffff1602179055505050610179565b5f80fd5b5f73ffffffffffffffffffffffffffffffffffffffff82169050919050565b5f61010a826100e1565b9050919050565b61011a81610100565b8114610124575f80fd5b50565b5f8151905061013581610111565b92915050565b5f8060408385031215610151576101506100dd565b5b5f61015e85828601610127565b925050602061016f85828601610127565b9150509250929050565b611899806101865f395ff3fe6080604052600436106100e7575f3560e01c8063446909e911610089578063dd49756e11610058578063dd49756e146102c1578063e2f273bd146102e9578063efef39a114610325578063fa33bcf314610341576100e7565b8063446909e91461023157806351b42b001461025b578063b260c42a14610271578063c311d04914610299576100e7565b80632ff57da8116100c55780632ff57da814610167578063315a095d146101a35780633366ef54146101cb57806340654e14146101f5576100e7565b806301bc45c9146100eb5780631380a1cc1461011557806321860a051461013f575b5f80fd5b3480156100f6575f80fd5b506100ff61037d565b60405161010c91906111b3565b60405180910390f35b348015610120575f80fd5b506101296103a0565b60405161013691906111b3565b60405180910390f35b34801561014a575f80fd5b50610165600480360381019061016091906111fa565b6103c8565b005b348015610172575f80fd5b5061018d600480360381019061018891906111fa565b610782565b60405161019a919061123d565b60405180910390f35b3480156101ae575f80fd5b506101c960048036038101906101c49190611280565b610823565b005b3480156101d6575f80fd5b506101df6109ba565b6040516101ec91906111b3565b60405180910390f35b348015610200575f80fd5b5061021b600480360381019061021691906111fa565b6109c1565b604051610228919061123d565b60405180910390f35b34801561023c575f80fd5b506102456109e1565b604051610252919061123d565b60405180910390f35b348015610266575f80fd5b5061026f6109e7565b005b34801561027c575f80fd5b5061029760048036038101906102929190611280565b610ac1565b005b3480156102a4575f80fd5b506102bf60048036038101906102ba9190611280565b610be9565b005b3480156102cc575f80fd5b506102e760048036038101906102e29190611280565b610d27565b005b3480156102f4575f80fd5b5061030f600480360381019061030a91906111fa565b610de8565b60405161031c91906112c5565b60405180910390f35b61033f600480360381019061033a9190611280565b610ebf565b005b34801561034c575f80fd5b50610367600480360381019061036291906111fa565b611157565b60405161037491906112c5565b60405180910390f35b5f8054906101000a900473ffffffffffffffffffffffffffffffffffffffff1681565b5f60015f9054906101000a900473ffffffffffffffffffffffffffffffffffffffff16905090565b426006541161040c576040517f08c379a000000000000000000000000000000000000000000000000000000000815260040161040390611338565b60405180910390fd5b5f60085f8373ffffffffffffffffffffffffffffffffffffffff1673ffffffffffffffffffffffffffffffffffffffff1681526020019081526020015f20541461048b576040517f08c379a0000000000000000000000000000000000000000000000000000000008152600401610482906113a0565b60405180910390fd5b60055460035460045461049e91906113eb565b11156104df576040517f08c379a00000000000000000000000000000000000000000000000000000000081526004016104d690611468565b60405180910390fd5b6003546104eb30610782565b101561052c576040517f08c379a0000000000000000000000000000000000000000000000000000000008152600401610523906114d0565b60405180910390fd5b60015f9054906101000a900473ffffffffffffffffffffffffffffffffffffffff1673ffffffffffffffffffffffffffffffffffffffff1663a9059cbb826003546040518363ffffffff1660e01b815260040161058a9291906114ee565b6020604051808303815f875af11580156105a6573d5f803e3d5ffd5b505050506040513d601f19601f820116820180604052508101906105ca919061153f565b5060035460085f8373ffffffffffffffffffffffffffffffffffffffff1673ffffffffffffffffffffffffffffffffffffffff1681526020019081526020015f208190555060035460045f82825461062291906113eb565b92505081905550600a5f8273ffffffffffffffffffffffffffffffffffffffff1673ffffffffffffffffffffffffffffffffffffffff1681526020019081526020015f205f9054906101000a900460ff166106e4576001600a5f8373ffffffffffffffffffffffffffffffffffffffff1673ffffffffffffffffffffffffffffffffffffffff1681526020019081526020015f205f6101000a81548160ff02191690831515021790555060075f8154809291906106de9061156a565b91905055505b60035460095f8373ffffffffffffffffffffffffffffffffffffffff1673ffffffffffffffffffffffffffffffffffffffff1681526020019081526020015f205f82825461073291906113eb565b925050819055506003548173ffffffffffffffffffffffffffffffffffffffff167f8c32c568416fcf97be35ce5b27844cfddcd63a67a1a602c3595ba5dac38f303a60405160405180910390a350565b5f60015f9054906101000a900473ffffffffffffffffffffffffffffffffffffffff1673ffffffffffffffffffffffffffffffffffffffff166370a08231836040518263ffffffff1660e01b81526004016107dd91906111b3565b602060405180830381865afa1580156107f8573d5f803e3d5ffd5b505050506040513d601f19601f8201168201806040525081019061081c91906115c5565b9050919050565b5f8054906101000a900473ffffffffffffffffffffffffffffffffffffffff1673ffffffffffffffffffffffffffffffffffffffff163373ffffffffffffffffffffffffffffffffffffffff16146108b0576040517f08c379a00000000000000000000000000000000000000000000000000000000081526004016108a79061163a565b60405180910390fd5b6108b930610782565b8111156108fb576040517f08c379a00000000000000000000000000000000000000000000000000000000081526004016108f2906116a2565b60405180910390fd5b60015f9054906101000a900473ffffffffffffffffffffffffffffffffffffffff1673ffffffffffffffffffffffffffffffffffffffff1663a9059cbb5f8054906101000a900473ffffffffffffffffffffffffffffffffffffffff16836040518363ffffffff1660e01b81526004016109769291906114ee565b6020604051808303815f875af1158015610992573d5f803e3d5ffd5b505050506040513d601f19601f820116820180604052508101906109b6919061153f565b5050565b5f30905090565b5f8173ffffffffffffffffffffffffffffffffffffffff16319050919050565b60075481565b5f8054906101000a900473ffffffffffffffffffffffffffffffffffffffff1673ffffffffffffffffffffffffffffffffffffffff163373ffffffffffffffffffffffffffffffffffffffff1614610a74576040517f08c379a0000000000000000000000000000000000000000000000000000000008152600401610a6b9061163a565b60405180910390fd5b4260065411610ab8576040517f08c379a0000000000000000000000000000000000000000000000000000000008152600401610aaf90611338565b60405180910390fd5b5f600681905550565b5f8054906101000a900473ffffffffffffffffffffffffffffffffffffffff1673ffffffffffffffffffffffffffffffffffffffff163373ffffffffffffffffffffffffffffffffffffffff1614610b4e576040517f08c379a0000000000000000000000000000000000000000000000000000000008152600401610b459061163a565b60405180910390fd5b5f60065414610b92576040517f08c379a0000000000000000000000000000000000000000000000000000000008152600401610b8990611338565b60405180910390fd5b5f8111610bd4576040517f08c379a0000000000000000000000000000000000000000000000000000000008152600401610bcb9061170a565b60405180910390fd5b8042610be091906113eb565b60068190555050565b5f8054906101000a900473ffffffffffffffffffffffffffffffffffffffff1673ffffffffffffffffffffffffffffffffffffffff163373ffffffffffffffffffffffffffffffffffffffff1614610c76576040517f08c379a0000000000000000000000000000000000000000000000000000000008152600401610c6d9061163a565b60405180910390fd5b610c7f306109c1565b811115610cc1576040517f08c379a0000000000000000000000000000000000000000000000000000000008152600401610cb8906116a2565b60405180910390fd5b5f8054906101000a900473ffffffffffffffffffffffffffffffffffffffff1673ffffffffffffffffffffffffffffffffffffffff166108fc8290811502906040515f60405180830381858888f19350505050158015610d23573d5f803e3d5ffd5b5050565b60015f9054906101000a900473ffffffffffffffffffffffffffffffffffffffff1673ffffffffffffffffffffffffffffffffffffffff166323b872dd5f8054906101000a900473ffffffffffffffffffffffffffffffffffffffff1630846040518463ffffffff1660e01b8152600401610da493929190611728565b6020604051808303815f875af1158015610dc0573d5f803e3d5ffd5b505050506040513d601f19601f82011682018060405250810190610de4919061153f565b5050565b5f805f9054906101000a900473ffffffffffffffffffffffffffffffffffffffff1673ffffffffffffffffffffffffffffffffffffffff163373ffffffffffffffffffffffffffffffffffffffff1614610e77576040517f08c379a0000000000000000000000000000000000000000000000000000000008152600401610e6e9061163a565b60405180910390fd5b815f806101000a81548173ffffffffffffffffffffffffffffffffffffffff021916908373ffffffffffffffffffffffffffffffffffffffff16021790555060019050919050565b4260065411610f03576040517f08c379a0000000000000000000000000000000000000000000000000000000008152600401610efa90611338565b60405180910390fd5b670de0b6b3a764000081610f17919061178a565b600254610f2491906117ba565b3414610f65576040517f08c379a0000000000000000000000000000000000000000000000000000000008152600401610f5c90611845565b60405180910390fd5b60015f9054906101000a900473ffffffffffffffffffffffffffffffffffffffff1673ffffffffffffffffffffffffffffffffffffffff1663a9059cbb33836040518363ffffffff1660e01b8152600401610fc19291906114ee565b6020604051808303815f875af1158015610fdd573d5f803e3d5ffd5b505050506040513d601f19601f82011682018060405250810190611001919061153f565b50600a5f3373ffffffffffffffffffffffffffffffffffffffff1673ffffffffffffffffffffffffffffffffffffffff1681526020019081526020015f205f9054906101000a900460ff166110bd576001600a5f3373ffffffffffffffffffffffffffffffffffffffff1673ffffffffffffffffffffffffffffffffffffffff1681526020019081526020015f205f6101000a81548160ff02191690831515021790555060075f8154809291906110b79061156a565b91905055505b8060095f3373ffffffffffffffffffffffffffffffffffffffff1673ffffffffffffffffffffffffffffffffffffffff1681526020019081526020015f205f82825461110991906113eb565b92505081905550803373ffffffffffffffffffffffffffffffffffffffff167fe3d4187f6ca4248660cc0ac8b8056515bac4a8132be2eca31d6d0cc170722a7e60405160405180910390a350565b600a602052805f5260405f205f915054906101000a900460ff1681565b5f73ffffffffffffffffffffffffffffffffffffffff82169050919050565b5f61119d82611174565b9050919050565b6111ad81611193565b82525050565b5f6020820190506111c65f8301846111a4565b92915050565b5f80fd5b6111d981611193565b81146111e3575f80fd5b50565b5f813590506111f4816111d0565b92915050565b5f6020828403121561120f5761120e6111cc565b5b5f61121c848285016111e6565b91505092915050565b5f819050919050565b61123781611225565b82525050565b5f6020820190506112505f83018461122e565b92915050565b61125f81611225565b8114611269575f80fd5b50565b5f8135905061127a81611256565b92915050565b5f60208284031215611295576112946111cc565b5b5f6112a28482850161126c565b91505092915050565b5f8115159050919050565b6112bf816112ab565b82525050565b5f6020820190506112d85f8301846112b6565b92915050565b5f82825260208201905092915050565b7f69636f49734163746976650000000000000000000000000000000000000000005f82015250565b5f611322600b836112de565b915061132d826112ee565b602082019050919050565b5f6020820190508181035f83015261134f81611316565b9050919050565b7f61697264726f70203a20416c72656164792068617320746861740000000000005f82015250565b5f61138a601a836112de565b915061139582611356565b602082019050919050565b5f6020820190508181035f8301526113b78161137e565b9050919050565b7f4e487b71000000000000000000000000000000000000000000000000000000005f52601160045260245ffd5b5f6113f582611225565b915061140083611225565b9250828201905080821115611418576114176113be565b5b92915050565b7f5f6d617841697264726f70416d6f756e740000000000000000000000000000005f82015250565b5f6114526011836112de565b915061145d8261141e565b602082019050919050565b5f6020820190508181035f83015261147f81611446565b9050919050565b7f4e6f20456e6f7567687420746f6b656e000000000000000000000000000000005f82015250565b5f6114ba6010836112de565b91506114c582611486565b602082019050919050565b5f6020820190508181035f8301526114e7816114ae565b9050919050565b5f6040820190506115015f8301856111a4565b61150e602083018461122e565b9392505050565b61151e816112ab565b8114611528575f80fd5b50565b5f8151905061153981611515565b92915050565b5f60208284031215611554576115536111cc565b5b5f6115618482850161152b565b91505092915050565b5f61157482611225565b91507fffffffffffffffffffffffffffffffffffffffffffffffffffffffffffffffff82036115a6576115a56113be565b5b600182019050919050565b5f815190506115bf81611256565b92915050565b5f602082840312156115da576115d96111cc565b5b5f6115e7848285016115b1565b91505092915050565b7f4f6e6c7941646d696e00000000000000000000000000000000000000000000005f82015250565b5f6116246009836112de565b915061162f826115f0565b602082019050919050565b5f6020820190508181035f83015261165181611618565b9050919050565b7f7769746864726177546f6b656e730000000000000000000000000000000000005f82015250565b5f61168c600e836112de565b915061169782611658565b602082019050919050565b5f6020820190508181035f8301526116b981611680565b9050919050565b7f6475726174696f6e203e203000000000000000000000000000000000000000005f82015250565b5f6116f4600c836112de565b91506116ff826116c0565b602082019050919050565b5f6020820190508181035f830152611721816116e8565b9050919050565b5f60608201905061173b5f8301866111a4565b61174860208301856111a4565b611755604083018461122e565b949350505050565b7f4e487b71000000000000000000000000000000000000000000000000000000005f52601260045260245ffd5b5f61179482611225565b915061179f83611225565b9250826117af576117ae61175d565b5b828204905092915050565b5f6117c482611225565b91506117cf83611225565b92508282026117dd81611225565b915082820484148315176117f4576117f36113be565b5b5092915050565b7f70757263686173652070726963650000000000000000000000000000000000005f82015250565b5f61182f600e836112de565b915061183a826117fb565b602082019050919050565b5f6020820190508181035f83015261185c81611823565b905091905056fea26469706673582212207e881c688832a6086de3b3081f18f9994f835cee4fcf0545c4f8f2a7238dd7c664736f6c634300081a0033",
					"opcodes": "PUSH1 0x80 PUSH1 0x40 MSTORE PUSH7 0x38D7EA4C68000 PUSH1 0x2 SSTORE PUSH9 0x56BC75E2D63100000 PUSH1 0x3 SSTORE PUSH10 0xD3C21BCECCEDA1000000 PUSH1 0x5 SSTORE CALLVALUE DUP1 ISZERO PUSH2 0x35 JUMPI PUSH0 DUP1 REVERT JUMPDEST POP PUSH1 0x40 MLOAD PUSH2 0x1A1F CODESIZE SUB DUP1 PUSH2 0x1A1F DUP4 CODECOPY DUP2 DUP2 ADD PUSH1 0x40 MSTORE DUP2 ADD SWAP1 PUSH2 0x57 SWAP2 SWAP1 PUSH2 0x13B JUMP JUMPDEST DUP2 PUSH1 0x1 PUSH0 PUSH2 0x100 EXP DUP2 SLOAD DUP2 PUSH20 0xFFFFFFFFFFFFFFFFFFFFFFFFFFFFFFFFFFFFFFFF MUL NOT AND SWAP1 DUP4 PUSH20 0xFFFFFFFFFFFFFFFFFFFFFFFFFFFFFFFFFFFFFFFF AND MUL OR SWAP1 SSTORE POP DUP1 PUSH0 DUP1 PUSH2 0x100 EXP DUP2 SLOAD DUP2 PUSH20 0xFFFFFFFFFFFFFFFFFFFFFFFFFFFFFFFFFFFFFFFF MUL NOT AND SWAP1 DUP4 PUSH20 0xFFFFFFFFFFFFFFFFFFFFFFFFFFFFFFFFFFFFFFFF AND MUL OR SWAP1 SSTORE POP POP POP PUSH2 0x179 JUMP JUMPDEST PUSH0 DUP1 REVERT JUMPDEST PUSH0 PUSH20 0xFFFFFFFFFFFFFFFFFFFFFFFFFFFFFFFFFFFFFFFF DUP3 AND SWAP1 POP SWAP2 SWAP1 POP JUMP JUMPDEST PUSH0 PUSH2 0x10A DUP3 PUSH2 0xE1 JUMP JUMPDEST SWAP1 POP SWAP2 SWAP1 POP JUMP JUMPDEST PUSH2 0x11A DUP2 PUSH2 0x100 JUMP JUMPDEST DUP2 EQ PUSH2 0x124 JUMPI PUSH0 DUP1 REVERT JUMPDEST POP JUMP JUMPDEST PUSH0 DUP2 MLOAD SWAP1 POP PUSH2 0x135 DUP2 PUSH2 0x111 JUMP JUMPDEST SWAP3 SWAP2 POP POP JUMP JUMPDEST PUSH0 DUP1 PUSH1 0x40 DUP4 DUP6 SUB SLT ISZERO PUSH2 0x151 JUMPI PUSH2 0x150 PUSH2 0xDD JUMP JUMPDEST JUMPDEST PUSH0 PUSH2 0x15E DUP6 DUP3 DUP7 ADD PUSH2 0x127 JUMP JUMPDEST SWAP3 POP POP PUSH1 0x20 PUSH2 0x16F DUP6 DUP3 DUP7 ADD PUSH2 0x127 JUMP JUMPDEST SWAP2 POP POP SWAP3 POP SWAP3 SWAP1 POP JUMP JUMPDEST PUSH2 0x1899 DUP1 PUSH2 0x186 PUSH0 CODECOPY PUSH0 RETURN INVALID PUSH1 0x80 PUSH1 0x40 MSTORE PUSH1 0x4 CALLDATASIZE LT PUSH2 0xE7 JUMPI PUSH0 CALLDATALOAD PUSH1 0xE0 SHR DUP1 PUSH4 0x446909E9 GT PUSH2 0x89 JUMPI DUP1 PUSH4 0xDD49756E GT PUSH2 0x58 JUMPI DUP1 PUSH4 0xDD49756E EQ PUSH2 0x2C1 JUMPI DUP1 PUSH4 0xE2F273BD EQ PUSH2 0x2E9 JUMPI DUP1 PUSH4 0xEFEF39A1 EQ PUSH2 0x325 JUMPI DUP1 PUSH4 0xFA33BCF3 EQ PUSH2 0x341 JUMPI PUSH2 0xE7 JUMP JUMPDEST DUP1 PUSH4 0x446909E9 EQ PUSH2 0x231 JUMPI DUP1 PUSH4 0x51B42B00 EQ PUSH2 0x25B JUMPI DUP1 PUSH4 0xB260C42A EQ PUSH2 0x271 JUMPI DUP1 PUSH4 0xC311D049 EQ PUSH2 0x299 JUMPI PUSH2 0xE7 JUMP JUMPDEST DUP1 PUSH4 0x2FF57DA8 GT PUSH2 0xC5 JUMPI DUP1 PUSH4 0x2FF57DA8 EQ PUSH2 0x167 JUMPI DUP1 PUSH4 0x315A095D EQ PUSH2 0x1A3 JUMPI DUP1 PUSH4 0x3366EF54 EQ PUSH2 0x1CB JUMPI DUP1 PUSH4 0x40654E14 EQ PUSH2 0x1F5 JUMPI PUSH2 0xE7 JUMP JUMPDEST DUP1 PUSH4 0x1BC45C9 EQ PUSH2 0xEB JUMPI DUP1 PUSH4 0x1380A1CC EQ PUSH2 0x115 JUMPI DUP1 PUSH4 0x21860A05 EQ PUSH2 0x13F JUMPI JUMPDEST PUSH0 DUP1 REVERT JUMPDEST CALLVALUE DUP1 ISZERO PUSH2 0xF6 JUMPI PUSH0 DUP1 REVERT JUMPDEST POP PUSH2 0xFF PUSH2 0x37D JUMP JUMPDEST PUSH1 0x40 MLOAD PUSH2 0x10C SWAP2 SWAP1 PUSH2 0x11B3 JUMP JUMPDEST PUSH1 0x40 MLOAD DUP1 SWAP2 SUB SWAP1 RETURN JUMPDEST CALLVALUE DUP1 ISZERO PUSH2 0x120 JUMPI PUSH0 DUP1 REVERT JUMPDEST POP PUSH2 0x129 PUSH2 0x3A0 JUMP JUMPDEST PUSH1 0x40 MLOAD PUSH2 0x136 SWAP2 SWAP1 PUSH2 0x11B3 JUMP JUMPDEST PUSH1 0x40 MLOAD DUP1 SWAP2 SUB SWAP1 RETURN JUMPDEST CALLVALUE DUP1 ISZERO PUSH2 0x14A JUMPI PUSH0 DUP1 REVERT JUMPDEST POP PUSH2 0x165 PUSH1 0x4 DUP1 CALLDATASIZE SUB DUP2 ADD SWAP1 PUSH2 0x160 SWAP2 SWAP1 PUSH2 0x11FA JUMP JUMPDEST PUSH2 0x3C8 JUMP JUMPDEST STOP JUMPDEST CALLVALUE DUP1 ISZERO PUSH2 0x172 JUMPI PUSH0 DUP1 REVERT JUMPDEST POP PUSH2 0x18D PUSH1 0x4 DUP1 CALLDATASIZE SUB DUP2 ADD SWAP1 PUSH2 0x188 SWAP2 SWAP1 PUSH2 0x11FA JUMP JUMPDEST PUSH2 0x782 JUMP JUMPDEST PUSH1 0x40 MLOAD PUSH2 0x19A SWAP2 SWAP1 PUSH2 0x123D JUMP JUMPDEST PUSH1 0x40 MLOAD DUP1 SWAP2 SUB SWAP1 RETURN JUMPDEST CALLVALUE DUP1 ISZERO PUSH2 0x1AE JUMPI PUSH0 DUP1 REVERT JUMPDEST POP PUSH2 0x1C9 PUSH1 0x4 DUP1 CALLDATASIZE SUB DUP2 ADD SWAP1 PUSH2 0x1C4 SWAP2 SWAP1 PUSH2 0x1280 JUMP JUMPDEST PUSH2 0x823 JUMP JUMPDEST STOP JUMPDEST CALLVALUE DUP1 ISZERO PUSH2 0x1D6 JUMPI PUSH0 DUP1 REVERT JUMPDEST POP PUSH2 0x1DF PUSH2 0x9BA JUMP JUMPDEST PUSH1 0x40 MLOAD PUSH2 0x1EC SWAP2 SWAP1 PUSH2 0x11B3 JUMP JUMPDEST PUSH1 0x40 MLOAD DUP1 SWAP2 SUB SWAP1 RETURN JUMPDEST CALLVALUE DUP1 ISZERO PUSH2 0x200 JUMPI PUSH0 DUP1 REVERT JUMPDEST POP PUSH2 0x21B PUSH1 0x4 DUP1 CALLDATASIZE SUB DUP2 ADD SWAP1 PUSH2 0x216 SWAP2 SWAP1 PUSH2 0x11FA JUMP JUMPDEST PUSH2 0x9C1 JUMP JUMPDEST PUSH1 0x40 MLOAD PUSH2 0x228 SWAP2 SWAP1 PUSH2 0x123D JUMP JUMPDEST PUSH1 0x40 MLOAD DUP1 SWAP2 SUB SWAP1 RETURN JUMPDEST CALLVALUE DUP1 ISZERO PUSH2 0x23C JUMPI PUSH0 DUP1 REVERT JUMPDEST POP PUSH2 0x245 PUSH2 0x9E1 JUMP JUMPDEST PUSH1 0x40 MLOAD PUSH2 0x252 SWAP2 SWAP1 PUSH2 0x123D JUMP JUMPDEST PUSH1 0x40 MLOAD DUP1 SWAP2 SUB SWAP1 RETURN JUMPDEST CALLVALUE DUP1 ISZERO PUSH2 0x266 JUMPI PUSH0 DUP1 REVERT JUMPDEST POP PUSH2 0x26F PUSH2 0x9E7 JUMP JUMPDEST STOP JUMPDEST CALLVALUE DUP1 ISZERO PUSH2 0x27C JUMPI PUSH0 DUP1 REVERT JUMPDEST POP PUSH2 0x297 PUSH1 0x4 DUP1 CALLDATASIZE SUB DUP2 ADD SWAP1 PUSH2 0x292 SWAP2 SWAP1 PUSH2 0x1280 JUMP JUMPDEST PUSH2 0xAC1 JUMP JUMPDEST STOP JUMPDEST CALLVALUE DUP1 ISZERO PUSH2 0x2A4 JUMPI PUSH0 DUP1 REVERT JUMPDEST POP PUSH2 0x2BF PUSH1 0x4 DUP1 CALLDATASIZE SUB DUP2 ADD SWAP1 PUSH2 0x2BA SWAP2 SWAP1 PUSH2 0x1280 JUMP JUMPDEST PUSH2 0xBE9 JUMP JUMPDEST STOP JUMPDEST CALLVALUE DUP1 ISZERO PUSH2 0x2CC JUMPI PUSH0 DUP1 REVERT JUMPDEST POP PUSH2 0x2E7 PUSH1 0x4 DUP1 CALLDATASIZE SUB DUP2 ADD SWAP1 PUSH2 0x2E2 SWAP2 SWAP1 PUSH2 0x1280 JUMP JUMPDEST PUSH2 0xD27 JUMP JUMPDEST STOP JUMPDEST CALLVALUE DUP1 ISZERO PUSH2 0x2F4 JUMPI PUSH0 DUP1 REVERT JUMPDEST POP PUSH2 0x30F PUSH1 0x4 DUP1 CALLDATASIZE SUB DUP2 ADD SWAP1 PUSH2 0x30A SWAP2 SWAP1 PUSH2 0x11FA JUMP JUMPDEST PUSH2 0xDE8 JUMP JUMPDEST PUSH1 0x40 MLOAD PUSH2 0x31C SWAP2 SWAP1 PUSH2 0x12C5 JUMP JUMPDEST PUSH1 0x40 MLOAD DUP1 SWAP2 SUB SWAP1 RETURN JUMPDEST PUSH2 0x33F PUSH1 0x4 DUP1 CALLDATASIZE SUB DUP2 ADD SWAP1 PUSH2 0x33A SWAP2 SWAP1 PUSH2 0x1280 JUMP JUMPDEST PUSH2 0xEBF JUMP JUMPDEST STOP JUMPDEST CALLVALUE DUP1 ISZERO PUSH2 0x34C JUMPI PUSH0 DUP1 REVERT JUMPDEST POP PUSH2 0x367 PUSH1 0x4 DUP1 CALLDATASIZE SUB DUP2 ADD SWAP1 PUSH2 0x362 SWAP2 SWAP1 PUSH2 0x11FA JUMP JUMPDEST PUSH2 0x1157 JUMP JUMPDEST PUSH1 0x40 MLOAD PUSH2 0x374 SWAP2 SWAP1 PUSH2 0x12C5 JUMP JUMPDEST PUSH1 0x40 MLOAD DUP1 SWAP2 SUB SWAP1 RETURN JUMPDEST PUSH0 DUP1 SLOAD SWAP1 PUSH2 0x100 EXP SWAP1 DIV PUSH20 0xFFFFFFFFFFFFFFFFFFFFFFFFFFFFFFFFFFFFFFFF AND DUP2 JUMP JUMPDEST PUSH0 PUSH1 0x1 PUSH0 SWAP1 SLOAD SWAP1 PUSH2 0x100 EXP SWAP1 DIV PUSH20 0xFFFFFFFFFFFFFFFFFFFFFFFFFFFFFFFFFFFFFFFF AND SWAP1 POP SWAP1 JUMP JUMPDEST TIMESTAMP PUSH1 0x6 SLOAD GT PUSH2 0x40C JUMPI PUSH1 0x40 MLOAD PUSH32 0x8C379A000000000000000000000000000000000000000000000000000000000 DUP2 MSTORE PUSH1 0x4 ADD PUSH2 0x403 SWAP1 PUSH2 0x1338 JUMP JUMPDEST PUSH1 0x40 MLOAD DUP1 SWAP2 SUB SWAP1 REVERT JUMPDEST PUSH0 PUSH1 0x8 PUSH0 DUP4 PUSH20 0xFFFFFFFFFFFFFFFFFFFFFFFFFFFFFFFFFFFFFFFF AND PUSH20 0xFFFFFFFFFFFFFFFFFFFFFFFFFFFFFFFFFFFFFFFF AND DUP2 MSTORE PUSH1 0x20 ADD SWAP1 DUP2 MSTORE PUSH1 0x20 ADD PUSH0 KECCAK256 SLOAD EQ PUSH2 0x48B JUMPI PUSH1 0x40 MLOAD PUSH32 0x8C379A000000000000000000000000000000000000000000000000000000000 DUP2 MSTORE PUSH1 0x4 ADD PUSH2 0x482 SWAP1 PUSH2 0x13A0 JUMP JUMPDEST PUSH1 0x40 MLOAD DUP1 SWAP2 SUB SWAP1 REVERT JUMPDEST PUSH1 0x5 SLOAD PUSH1 0x3 SLOAD PUSH1 0x4 SLOAD PUSH2 0x49E SWAP2 SWAP1 PUSH2 0x13EB JUMP JUMPDEST GT ISZERO PUSH2 0x4DF JUMPI PUSH1 0x40 MLOAD PUSH32 0x8C379A000000000000000000000000000000000000000000000000000000000 DUP2 MSTORE PUSH1 0x4 ADD PUSH2 0x4D6 SWAP1 PUSH2 0x1468 JUMP JUMPDEST PUSH1 0x40 MLOAD DUP1 SWAP2 SUB SWAP1 REVERT JUMPDEST PUSH1 0x3 SLOAD PUSH2 0x4EB ADDRESS PUSH2 0x782 JUMP JUMPDEST LT ISZERO PUSH2 0x52C JUMPI PUSH1 0x40 MLOAD PUSH32 0x8C379A000000000000000000000000000000000000000000000000000000000 DUP2 MSTORE PUSH1 0x4 ADD PUSH2 0x523 SWAP1 PUSH2 0x14D0 JUMP JUMPDEST PUSH1 0x40 MLOAD DUP1 SWAP2 SUB SWAP1 REVERT JUMPDEST PUSH1 0x1 PUSH0 SWAP1 SLOAD SWAP1 PUSH2 0x100 EXP SWAP1 DIV PUSH20 0xFFFFFFFFFFFFFFFFFFFFFFFFFFFFFFFFFFFFFFFF AND PUSH20 0xFFFFFFFFFFFFFFFFFFFFFFFFFFFFFFFFFFFFFFFF AND PUSH4 0xA9059CBB DUP3 PUSH1 0x3 SLOAD PUSH1 0x40 MLOAD DUP4 PUSH4 0xFFFFFFFF AND PUSH1 0xE0 SHL DUP2 MSTORE PUSH1 0x4 ADD PUSH2 0x58A SWAP3 SWAP2 SWAP1 PUSH2 0x14EE JUMP JUMPDEST PUSH1 0x20 PUSH1 0x40 MLOAD DUP1 DUP4 SUB DUP2 PUSH0 DUP8 GAS CALL ISZERO DUP1 ISZERO PUSH2 0x5A6 JUMPI RETURNDATASIZE PUSH0 DUP1 RETURNDATACOPY RETURNDATASIZE PUSH0 REVERT JUMPDEST POP POP POP POP PUSH1 0x40 MLOAD RETURNDATASIZE PUSH1 0x1F NOT PUSH1 0x1F DUP3 ADD AND DUP3 ADD DUP1 PUSH1 0x40 MSTORE POP DUP2 ADD SWAP1 PUSH2 0x5CA SWAP2 SWAP1 PUSH2 0x153F JUMP JUMPDEST POP PUSH1 0x3 SLOAD PUSH1 0x8 PUSH0 DUP4 PUSH20 0xFFFFFFFFFFFFFFFFFFFFFFFFFFFFFFFFFFFFFFFF AND PUSH20 0xFFFFFFFFFFFFFFFFFFFFFFFFFFFFFFFFFFFFFFFF AND DUP2 MSTORE PUSH1 0x20 ADD SWAP1 DUP2 MSTORE PUSH1 0x20 ADD PUSH0 KECCAK256 DUP2 SWAP1 SSTORE POP PUSH1 0x3 SLOAD PUSH1 0x4 PUSH0 DUP3 DUP3 SLOAD PUSH2 0x622 SWAP2 SWAP1 PUSH2 0x13EB JUMP JUMPDEST SWAP3 POP POP DUP2 SWAP1 SSTORE POP PUSH1 0xA PUSH0 DUP3 PUSH20 0xFFFFFFFFFFFFFFFFFFFFFFFFFFFFFFFFFFFFFFFF AND PUSH20 0xFFFFFFFFFFFFFFFFFFFFFFFFFFFFFFFFFFFFFFFF AND DUP2 MSTORE PUSH1 0x20 ADD SWAP1 DUP2 MSTORE PUSH1 0x20 ADD PUSH0 KECCAK256 PUSH0 SWAP1 SLOAD SWAP1 PUSH2 0x100 EXP SWAP1 DIV PUSH1 0xFF AND PUSH2 0x6E4 JUMPI PUSH1 0x1 PUSH1 0xA PUSH0 DUP4 PUSH20 0xFFFFFFFFFFFFFFFFFFFFFFFFFFFFFFFFFFFFFFFF AND PUSH20 0xFFFFFFFFFFFFFFFFFFFFFFFFFFFFFFFFFFFFFFFF AND DUP2 MSTORE PUSH1 0x20 ADD SWAP1 DUP2 MSTORE PUSH1 0x20 ADD PUSH0 KECCAK256 PUSH0 PUSH2 0x100 EXP DUP2 SLOAD DUP2 PUSH1 0xFF MUL NOT AND SWAP1 DUP4 ISZERO ISZERO MUL OR SWAP1 SSTORE POP PUSH1 0x7 PUSH0 DUP2 SLOAD DUP1 SWAP3 SWAP2 SWAP1 PUSH2 0x6DE SWAP1 PUSH2 0x156A JUMP JUMPDEST SWAP2 SWAP1 POP SSTORE POP JUMPDEST PUSH1 0x3 SLOAD PUSH1 0x9 PUSH0 DUP4 PUSH20 0xFFFFFFFFFFFFFFFFFFFFFFFFFFFFFFFFFFFFFFFF AND PUSH20 0xFFFFFFFFFFFFFFFFFFFFFFFFFFFFFFFFFFFFFFFF AND DUP2 MSTORE PUSH1 0x20 ADD SWAP1 DUP2 MSTORE PUSH1 0x20 ADD PUSH0 KECCAK256 PUSH0 DUP3 DUP3 SLOAD PUSH2 0x732 SWAP2 SWAP1 PUSH2 0x13EB JUMP JUMPDEST SWAP3 POP POP DUP2 SWAP1 SSTORE POP PUSH1 0x3 SLOAD DUP2 PUSH20 0xFFFFFFFFFFFFFFFFFFFFFFFFFFFFFFFFFFFFFFFF AND PUSH32 0x8C32C568416FCF97BE35CE5B27844CFDDCD63A67A1A602C3595BA5DAC38F303A PUSH1 0x40 MLOAD PUSH1 0x40 MLOAD DUP1 SWAP2 SUB SWAP1 LOG3 POP JUMP JUMPDEST PUSH0 PUSH1 0x1 PUSH0 SWAP1 SLOAD SWAP1 PUSH2 0x100 EXP SWAP1 DIV PUSH20 0xFFFFFFFFFFFFFFFFFFFFFFFFFFFFFFFFFFFFFFFF AND PUSH20 0xFFFFFFFFFFFFFFFFFFFFFFFFFFFFFFFFFFFFFFFF AND PUSH4 0x70A08231 DUP4 PUSH1 0x40 MLOAD DUP3 PUSH4 0xFFFFFFFF AND PUSH1 0xE0 SHL DUP2 MSTORE PUSH1 0x4 ADD PUSH2 0x7DD SWAP2 SWAP1 PUSH2 0x11B3 JUMP JUMPDEST PUSH1 0x20 PUSH1 0x40 MLOAD DUP1 DUP4 SUB DUP2 DUP7 GAS STATICCALL ISZERO DUP1 ISZERO PUSH2 0x7F8 JUMPI RETURNDATASIZE PUSH0 DUP1 RETURNDATACOPY RETURNDATASIZE PUSH0 REVERT JUMPDEST POP POP POP POP PUSH1 0x40 MLOAD RETURNDATASIZE PUSH1 0x1F NOT PUSH1 0x1F DUP3 ADD AND DUP3 ADD DUP1 PUSH1 0x40 MSTORE POP DUP2 ADD SWAP1 PUSH2 0x81C SWAP2 SWAP1 PUSH2 0x15C5 JUMP JUMPDEST SWAP1 POP SWAP2 SWAP1 POP JUMP JUMPDEST PUSH0 DUP1 SLOAD SWAP1 PUSH2 0x100 EXP SWAP1 DIV PUSH20 0xFFFFFFFFFFFFFFFFFFFFFFFFFFFFFFFFFFFFFFFF AND PUSH20 0xFFFFFFFFFFFFFFFFFFFFFFFFFFFFFFFFFFFFFFFF AND CALLER PUSH20 0xFFFFFFFFFFFFFFFFFFFFFFFFFFFFFFFFFFFFFFFF AND EQ PUSH2 0x8B0 JUMPI PUSH1 0x40 MLOAD PUSH32 0x8C379A000000000000000000000000000000000000000000000000000000000 DUP2 MSTORE PUSH1 0x4 ADD PUSH2 0x8A7 SWAP1 PUSH2 0x163A JUMP JUMPDEST PUSH1 0x40 MLOAD DUP1 SWAP2 SUB SWAP1 REVERT JUMPDEST PUSH2 0x8B9 ADDRESS PUSH2 0x782 JUMP JUMPDEST DUP2 GT ISZERO PUSH2 0x8FB JUMPI PUSH1 0x40 MLOAD PUSH32 0x8C379A000000000000000000000000000000000000000000000000000000000 DUP2 MSTORE PUSH1 0x4 ADD PUSH2 0x8F2 SWAP1 PUSH2 0x16A2 JUMP JUMPDEST PUSH1 0x40 MLOAD DUP1 SWAP2 SUB SWAP1 REVERT JUMPDEST PUSH1 0x1 PUSH0 SWAP1 SLOAD SWAP1 PUSH2 0x100 EXP SWAP1 DIV PUSH20 0xFFFFFFFFFFFFFFFFFFFFFFFFFFFFFFFFFFFFFFFF AND PUSH20 0xFFFFFFFFFFFFFFFFFFFFFFFFFFFFFFFFFFFFFFFF AND PUSH4 0xA9059CBB PUSH0 DUP1 SLOAD SWAP1 PUSH2 0x100 EXP SWAP1 DIV PUSH20 0xFFFFFFFFFFFFFFFFFFFFFFFFFFFFFFFFFFFFFFFF AND DUP4 PUSH1 0x40 MLOAD DUP4 PUSH4 0xFFFFFFFF AND PUSH1 0xE0 SHL DUP2 MSTORE PUSH1 0x4 ADD PUSH2 0x976 SWAP3 SWAP2 SWAP1 PUSH2 0x14EE JUMP JUMPDEST PUSH1 0x20 PUSH1 0x40 MLOAD DUP1 DUP4 SUB DUP2 PUSH0 DUP8 GAS CALL ISZERO DUP1 ISZERO PUSH2 0x992 JUMPI RETURNDATASIZE PUSH0 DUP1 RETURNDATACOPY RETURNDATASIZE PUSH0 REVERT JUMPDEST POP POP POP POP PUSH1 0x40 MLOAD RETURNDATASIZE PUSH1 0x1F NOT PUSH1 0x1F DUP3 ADD AND DUP3 ADD DUP1 PUSH1 0x40 MSTORE POP DUP2 ADD SWAP1 PUSH2 0x9B6 SWAP2 SWAP1 PUSH2 0x153F JUMP JUMPDEST POP POP JUMP JUMPDEST PUSH0 ADDRESS SWAP1 POP SWAP1 JUMP JUMPDEST PUSH0 DUP2 PUSH20 0xFFFFFFFFFFFFFFFFFFFFFFFFFFFFFFFFFFFFFFFF AND BALANCE SWAP1 POP SWAP2 SWAP1 POP JUMP JUMPDEST PUSH1 0x7 SLOAD DUP2 JUMP JUMPDEST PUSH0 DUP1 SLOAD SWAP1 PUSH2 0x100 EXP SWAP1 DIV PUSH20 0xFFFFFFFFFFFFFFFFFFFFFFFFFFFFFFFFFFFFFFFF AND PUSH20 0xFFFFFFFFFFFFFFFFFFFFFFFFFFFFFFFFFFFFFFFF AND CALLER PUSH20 0xFFFFFFFFFFFFFFFFFFFFFFFFFFFFFFFFFFFFFFFF AND EQ PUSH2 0xA74 JUMPI PUSH1 0x40 MLOAD PUSH32 0x8C379A000000000000000000000000000000000000000000000000000000000 DUP2 MSTORE PUSH1 0x4 ADD PUSH2 0xA6B SWAP1 PUSH2 0x163A JUMP JUMPDEST PUSH1 0x40 MLOAD DUP1 SWAP2 SUB SWAP1 REVERT JUMPDEST TIMESTAMP PUSH1 0x6 SLOAD GT PUSH2 0xAB8 JUMPI PUSH1 0x40 MLOAD PUSH32 0x8C379A000000000000000000000000000000000000000000000000000000000 DUP2 MSTORE PUSH1 0x4 ADD PUSH2 0xAAF SWAP1 PUSH2 0x1338 JUMP JUMPDEST PUSH1 0x40 MLOAD DUP1 SWAP2 SUB SWAP1 REVERT JUMPDEST PUSH0 PUSH1 0x6 DUP2 SWAP1 SSTORE POP JUMP JUMPDEST PUSH0 DUP1 SLOAD SWAP1 PUSH2 0x100 EXP SWAP1 DIV PUSH20 0xFFFFFFFFFFFFFFFFFFFFFFFFFFFFFFFFFFFFFFFF AND PUSH20 0xFFFFFFFFFFFFFFFFFFFFFFFFFFFFFFFFFFFFFFFF AND CALLER PUSH20 0xFFFFFFFFFFFFFFFFFFFFFFFFFFFFFFFFFFFFFFFF AND EQ PUSH2 0xB4E JUMPI PUSH1 0x40 MLOAD PUSH32 0x8C379A000000000000000000000000000000000000000000000000000000000 DUP2 MSTORE PUSH1 0x4 ADD PUSH2 0xB45 SWAP1 PUSH2 0x163A JUMP JUMPDEST PUSH1 0x40 MLOAD DUP1 SWAP2 SUB SWAP1 REVERT JUMPDEST PUSH0 PUSH1 0x6 SLOAD EQ PUSH2 0xB92 JUMPI PUSH1 0x40 MLOAD PUSH32 0x8C379A000000000000000000000000000000000000000000000000000000000 DUP2 MSTORE PUSH1 0x4 ADD PUSH2 0xB89 SWAP1 PUSH2 0x1338 JUMP JUMPDEST PUSH1 0x40 MLOAD DUP1 SWAP2 SUB SWAP1 REVERT JUMPDEST PUSH0 DUP2 GT PUSH2 0xBD4 JUMPI PUSH1 0x40 MLOAD PUSH32 0x8C379A000000000000000000000000000000000000000000000000000000000 DUP2 MSTORE PUSH1 0x4 ADD PUSH2 0xBCB SWAP1 PUSH2 0x170A JUMP JUMPDEST PUSH1 0x40 MLOAD DUP1 SWAP2 SUB SWAP1 REVERT JUMPDEST DUP1 TIMESTAMP PUSH2 0xBE0 SWAP2 SWAP1 PUSH2 0x13EB JUMP JUMPDEST PUSH1 0x6 DUP2 SWAP1 SSTORE POP POP JUMP JUMPDEST PUSH0 DUP1 SLOAD SWAP1 PUSH2 0x100 EXP SWAP1 DIV PUSH20 0xFFFFFFFFFFFFFFFFFFFFFFFFFFFFFFFFFFFFFFFF AND PUSH20 0xFFFFFFFFFFFFFFFFFFFFFFFFFFFFFFFFFFFFFFFF AND CALLER PUSH20 0xFFFFFFFFFFFFFFFFFFFFFFFFFFFFFFFFFFFFFFFF AND EQ PUSH2 0xC76 JUMPI PUSH1 0x40 MLOAD PUSH32 0x8C379A000000000000000000000000000000000000000000000000000000000 DUP2 MSTORE PUSH1 0x4 ADD PUSH2 0xC6D SWAP1 PUSH2 0x163A JUMP JUMPDEST PUSH1 0x40 MLOAD DUP1 SWAP2 SUB SWAP1 REVERT JUMPDEST PUSH2 0xC7F ADDRESS PUSH2 0x9C1 JUMP JUMPDEST DUP2 GT ISZERO PUSH2 0xCC1 JUMPI PUSH1 0x40 MLOAD PUSH32 0x8C379A000000000000000000000000000000000000000000000000000000000 DUP2 MSTORE PUSH1 0x4 ADD PUSH2 0xCB8 SWAP1 PUSH2 0x16A2 JUMP JUMPDEST PUSH1 0x40 MLOAD DUP1 SWAP2 SUB SWAP1 REVERT JUMPDEST PUSH0 DUP1 SLOAD SWAP1 PUSH2 0x100 EXP SWAP1 DIV PUSH20 0xFFFFFFFFFFFFFFFFFFFFFFFFFFFFFFFFFFFFFFFF AND PUSH20 0xFFFFFFFFFFFFFFFFFFFFFFFFFFFFFFFFFFFFFFFF AND PUSH2 0x8FC DUP3 SWAP1 DUP2 ISZERO MUL SWAP1 PUSH1 0x40 MLOAD PUSH0 PUSH1 0x40 MLOAD DUP1 DUP4 SUB DUP2 DUP6 DUP9 DUP9 CALL SWAP4 POP POP POP POP ISZERO DUP1 ISZERO PUSH2 0xD23 JUMPI RETURNDATASIZE PUSH0 DUP1 RETURNDATACOPY RETURNDATASIZE PUSH0 REVERT JUMPDEST POP POP JUMP JUMPDEST PUSH1 0x1 PUSH0 SWAP1 SLOAD SWAP1 PUSH2 0x100 EXP SWAP1 DIV PUSH20 0xFFFFFFFFFFFFFFFFFFFFFFFFFFFFFFFFFFFFFFFF AND PUSH20 0xFFFFFFFFFFFFFFFFFFFFFFFFFFFFFFFFFFFFFFFF AND PUSH4 0x23B872DD PUSH0 DUP1 SLOAD SWAP1 PUSH2 0x100 EXP SWAP1 DIV PUSH20 0xFFFFFFFFFFFFFFFFFFFFFFFFFFFFFFFFFFFFFFFF AND ADDRESS DUP5 PUSH1 0x40 MLOAD DUP5 PUSH4 0xFFFFFFFF AND PUSH1 0xE0 SHL DUP2 MSTORE PUSH1 0x4 ADD PUSH2 0xDA4 SWAP4 SWAP3 SWAP2 SWAP1 PUSH2 0x1728 JUMP JUMPDEST PUSH1 0x20 PUSH1 0x40 MLOAD DUP1 DUP4 SUB DUP2 PUSH0 DUP8 GAS CALL ISZERO DUP1 ISZERO PUSH2 0xDC0 JUMPI RETURNDATASIZE PUSH0 DUP1 RETURNDATACOPY RETURNDATASIZE PUSH0 REVERT JUMPDEST POP POP POP POP PUSH1 0x40 MLOAD RETURNDATASIZE PUSH1 0x1F NOT PUSH1 0x1F DUP3 ADD AND DUP3 ADD DUP1 PUSH1 0x40 MSTORE POP DUP2 ADD SWAP1 PUSH2 0xDE4 SWAP2 SWAP1 PUSH2 0x153F JUMP JUMPDEST POP POP JUMP JUMPDEST PUSH0 DUP1 PUSH0 SWAP1 SLOAD SWAP1 PUSH2 0x100 EXP SWAP1 DIV PUSH20 0xFFFFFFFFFFFFFFFFFFFFFFFFFFFFFFFFFFFFFFFF AND PUSH20 0xFFFFFFFFFFFFFFFFFFFFFFFFFFFFFFFFFFFFFFFF AND CALLER PUSH20 0xFFFFFFFFFFFFFFFFFFFFFFFFFFFFFFFFFFFFFFFF AND EQ PUSH2 0xE77 JUMPI PUSH1 0x40 MLOAD PUSH32 0x8C379A000000000000000000000000000000000000000000000000000000000 DUP2 MSTORE PUSH1 0x4 ADD PUSH2 0xE6E SWAP1 PUSH2 0x163A JUMP JUMPDEST PUSH1 0x40 MLOAD DUP1 SWAP2 SUB SWAP1 REVERT JUMPDEST DUP2 PUSH0 DUP1 PUSH2 0x100 EXP DUP2 SLOAD DUP2 PUSH20 0xFFFFFFFFFFFFFFFFFFFFFFFFFFFFFFFFFFFFFFFF MUL NOT AND SWAP1 DUP4 PUSH20 0xFFFFFFFFFFFFFFFFFFFFFFFFFFFFFFFFFFFFFFFF AND MUL OR SWAP1 SSTORE POP PUSH1 0x1 SWAP1 POP SWAP2 SWAP1 POP JUMP JUMPDEST TIMESTAMP PUSH1 0x6 SLOAD GT PUSH2 0xF03 JUMPI PUSH1 0x40 MLOAD PUSH32 0x8C379A000000000000000000000000000000000000000000000000000000000 DUP2 MSTORE PUSH1 0x4 ADD PUSH2 0xEFA SWAP1 PUSH2 0x1338 JUMP JUMPDEST PUSH1 0x40 MLOAD DUP1 SWAP2 SUB SWAP1 REVERT JUMPDEST PUSH8 0xDE0B6B3A7640000 DUP2 PUSH2 0xF17 SWAP2 SWAP1 PUSH2 0x178A JUMP JUMPDEST PUSH1 0x2 SLOAD PUSH2 0xF24 SWAP2 SWAP1 PUSH2 0x17BA JUMP JUMPDEST CALLVALUE EQ PUSH2 0xF65 JUMPI PUSH1 0x40 MLOAD PUSH32 0x8C379A000000000000000000000000000000000000000000000000000000000 DUP2 MSTORE PUSH1 0x4 ADD PUSH2 0xF5C SWAP1 PUSH2 0x1845 JUMP JUMPDEST PUSH1 0x40 MLOAD DUP1 SWAP2 SUB SWAP1 REVERT JUMPDEST PUSH1 0x1 PUSH0 SWAP1 SLOAD SWAP1 PUSH2 0x100 EXP SWAP1 DIV PUSH20 0xFFFFFFFFFFFFFFFFFFFFFFFFFFFFFFFFFFFFFFFF AND PUSH20 0xFFFFFFFFFFFFFFFFFFFFFFFFFFFFFFFFFFFFFFFF AND PUSH4 0xA9059CBB CALLER DUP4 PUSH1 0x40 MLOAD DUP4 PUSH4 0xFFFFFFFF AND PUSH1 0xE0 SHL DUP2 MSTORE PUSH1 0x4 ADD PUSH2 0xFC1 SWAP3 SWAP2 SWAP1 PUSH2 0x14EE JUMP JUMPDEST PUSH1 0x20 PUSH1 0x40 MLOAD DUP1 DUP4 SUB DUP2 PUSH0 DUP8 GAS CALL ISZERO DUP1 ISZERO PUSH2 0xFDD JUMPI RETURNDATASIZE PUSH0 DUP1 RETURNDATACOPY RETURNDATASIZE PUSH0 REVERT JUMPDEST POP POP POP POP PUSH1 0x40 MLOAD RETURNDATASIZE PUSH1 0x1F NOT PUSH1 0x1F DUP3 ADD AND DUP3 ADD DUP1 PUSH1 0x40 MSTORE POP DUP2 ADD SWAP1 PUSH2 0x1001 SWAP2 SWAP1 PUSH2 0x153F JUMP JUMPDEST POP PUSH1 0xA PUSH0 CALLER PUSH20 0xFFFFFFFFFFFFFFFFFFFFFFFFFFFFFFFFFFFFFFFF AND PUSH20 0xFFFFFFFFFFFFFFFFFFFFFFFFFFFFFFFFFFFFFFFF AND DUP2 MSTORE PUSH1 0x20 ADD SWAP1 DUP2 MSTORE PUSH1 0x20 ADD PUSH0 KECCAK256 PUSH0 SWAP1 SLOAD SWAP1 PUSH2 0x100 EXP SWAP1 DIV PUSH1 0xFF AND PUSH2 0x10BD JUMPI PUSH1 0x1 PUSH1 0xA PUSH0 CALLER PUSH20 0xFFFFFFFFFFFFFFFFFFFFFFFFFFFFFFFFFFFFFFFF AND PUSH20 0xFFFFFFFFFFFFFFFFFFFFFFFFFFFFFFFFFFFFFFFF AND DUP2 MSTORE PUSH1 0x20 ADD SWAP1 DUP2 MSTORE PUSH1 0x20 ADD PUSH0 KECCAK256 PUSH0 PUSH2 0x100 EXP DUP2 SLOAD DUP2 PUSH1 0xFF MUL NOT AND SWAP1 DUP4 ISZERO ISZERO MUL OR SWAP1 SSTORE POP PUSH1 0x7 PUSH0 DUP2 SLOAD DUP1 SWAP3 SWAP2 SWAP1 PUSH2 0x10B7 SWAP1 PUSH2 0x156A JUMP JUMPDEST SWAP2 SWAP1 POP SSTORE POP JUMPDEST DUP1 PUSH1 0x9 PUSH0 CALLER PUSH20 0xFFFFFFFFFFFFFFFFFFFFFFFFFFFFFFFFFFFFFFFF AND PUSH20 0xFFFFFFFFFFFFFFFFFFFFFFFFFFFFFFFFFFFFFFFF AND DUP2 MSTORE PUSH1 0x20 ADD SWAP1 DUP2 MSTORE PUSH1 0x20 ADD PUSH0 KECCAK256 PUSH0 DUP3 DUP3 SLOAD PUSH2 0x1109 SWAP2 SWAP1 PUSH2 0x13EB JUMP JUMPDEST SWAP3 POP POP DUP2 SWAP1 SSTORE POP DUP1 CALLER PUSH20 0xFFFFFFFFFFFFFFFFFFFFFFFFFFFFFFFFFFFFFFFF AND PUSH32 0xE3D4187F6CA4248660CC0AC8B8056515BAC4A8132BE2ECA31D6D0CC170722A7E PUSH1 0x40 MLOAD PUSH1 0x40 MLOAD DUP1 SWAP2 SUB SWAP1 LOG3 POP JUMP JUMPDEST PUSH1 0xA PUSH1 0x20 MSTORE DUP1 PUSH0 MSTORE PUSH1 0x40 PUSH0 KECCAK256 PUSH0 SWAP2 POP SLOAD SWAP1 PUSH2 0x100 EXP SWAP1 DIV PUSH1 0xFF AND DUP2 JUMP JUMPDEST PUSH0 PUSH20 0xFFFFFFFFFFFFFFFFFFFFFFFFFFFFFFFFFFFFFFFF DUP3 AND SWAP1 POP SWAP2 SWAP1 POP JUMP JUMPDEST PUSH0 PUSH2 0x119D DUP3 PUSH2 0x1174 JUMP JUMPDEST SWAP1 POP SWAP2 SWAP1 POP JUMP JUMPDEST PUSH2 0x11AD DUP2 PUSH2 0x1193 JUMP JUMPDEST DUP3 MSTORE POP POP JUMP JUMPDEST PUSH0 PUSH1 0x20 DUP3 ADD SWAP1 POP PUSH2 0x11C6 PUSH0 DUP4 ADD DUP5 PUSH2 0x11A4 JUMP JUMPDEST SWAP3 SWAP2 POP POP JUMP JUMPDEST PUSH0 DUP1 REVERT JUMPDEST PUSH2 0x11D9 DUP2 PUSH2 0x1193 JUMP JUMPDEST DUP2 EQ PUSH2 0x11E3 JUMPI PUSH0 DUP1 REVERT JUMPDEST POP JUMP JUMPDEST PUSH0 DUP2 CALLDATALOAD SWAP1 POP PUSH2 0x11F4 DUP2 PUSH2 0x11D0 JUMP JUMPDEST SWAP3 SWAP2 POP POP JUMP JUMPDEST PUSH0 PUSH1 0x20 DUP3 DUP5 SUB SLT ISZERO PUSH2 0x120F JUMPI PUSH2 0x120E PUSH2 0x11CC JUMP JUMPDEST JUMPDEST PUSH0 PUSH2 0x121C DUP5 DUP3 DUP6 ADD PUSH2 0x11E6 JUMP JUMPDEST SWAP2 POP POP SWAP3 SWAP2 POP POP JUMP JUMPDEST PUSH0 DUP2 SWAP1 POP SWAP2 SWAP1 POP JUMP JUMPDEST PUSH2 0x1237 DUP2 PUSH2 0x1225 JUMP JUMPDEST DUP3 MSTORE POP POP JUMP JUMPDEST PUSH0 PUSH1 0x20 DUP3 ADD SWAP1 POP PUSH2 0x1250 PUSH0 DUP4 ADD DUP5 PUSH2 0x122E JUMP JUMPDEST SWAP3 SWAP2 POP POP JUMP JUMPDEST PUSH2 0x125F DUP2 PUSH2 0x1225 JUMP JUMPDEST DUP2 EQ PUSH2 0x1269 JUMPI PUSH0 DUP1 REVERT JUMPDEST POP JUMP JUMPDEST PUSH0 DUP2 CALLDATALOAD SWAP1 POP PUSH2 0x127A DUP2 PUSH2 0x1256 JUMP JUMPDEST SWAP3 SWAP2 POP POP JUMP JUMPDEST PUSH0 PUSH1 0x20 DUP3 DUP5 SUB SLT ISZERO PUSH2 0x1295 JUMPI PUSH2 0x1294 PUSH2 0x11CC JUMP JUMPDEST JUMPDEST PUSH0 PUSH2 0x12A2 DUP5 DUP3 DUP6 ADD PUSH2 0x126C JUMP JUMPDEST SWAP2 POP POP SWAP3 SWAP2 POP POP JUMP JUMPDEST PUSH0 DUP2 ISZERO ISZERO SWAP1 POP SWAP2 SWAP1 POP JUMP JUMPDEST PUSH2 0x12BF DUP2 PUSH2 0x12AB JUMP JUMPDEST DUP3 MSTORE POP POP JUMP JUMPDEST PUSH0 PUSH1 0x20 DUP3 ADD SWAP1 POP PUSH2 0x12D8 PUSH0 DUP4 ADD DUP5 PUSH2 0x12B6 JUMP JUMPDEST SWAP3 SWAP2 POP POP JUMP JUMPDEST PUSH0 DUP3 DUP3 MSTORE PUSH1 0x20 DUP3 ADD SWAP1 POP SWAP3 SWAP2 POP POP JUMP JUMPDEST PUSH32 0x69636F4973416374697665000000000000000000000000000000000000000000 PUSH0 DUP3 ADD MSTORE POP JUMP JUMPDEST PUSH0 PUSH2 0x1322 PUSH1 0xB DUP4 PUSH2 0x12DE JUMP JUMPDEST SWAP2 POP PUSH2 0x132D DUP3 PUSH2 0x12EE JUMP JUMPDEST PUSH1 0x20 DUP3 ADD SWAP1 POP SWAP2 SWAP1 POP JUMP JUMPDEST PUSH0 PUSH1 0x20 DUP3 ADD SWAP1 POP DUP2 DUP2 SUB PUSH0 DUP4 ADD MSTORE PUSH2 0x134F DUP2 PUSH2 0x1316 JUMP JUMPDEST SWAP1 POP SWAP2 SWAP1 POP JUMP JUMPDEST PUSH32 0x61697264726F70203A20416C7265616479206861732074686174000000000000 PUSH0 DUP3 ADD MSTORE POP JUMP JUMPDEST PUSH0 PUSH2 0x138A PUSH1 0x1A DUP4 PUSH2 0x12DE JUMP JUMPDEST SWAP2 POP PUSH2 0x1395 DUP3 PUSH2 0x1356 JUMP JUMPDEST PUSH1 0x20 DUP3 ADD SWAP1 POP SWAP2 SWAP1 POP JUMP JUMPDEST PUSH0 PUSH1 0x20 DUP3 ADD SWAP1 POP DUP2 DUP2 SUB PUSH0 DUP4 ADD MSTORE PUSH2 0x13B7 DUP2 PUSH2 0x137E JUMP JUMPDEST SWAP1 POP SWAP2 SWAP1 POP JUMP JUMPDEST PUSH32 0x4E487B7100000000000000000000000000000000000000000000000000000000 PUSH0 MSTORE PUSH1 0x11 PUSH1 0x4 MSTORE PUSH1 0x24 PUSH0 REVERT JUMPDEST PUSH0 PUSH2 0x13F5 DUP3 PUSH2 0x1225 JUMP JUMPDEST SWAP2 POP PUSH2 0x1400 DUP4 PUSH2 0x1225 JUMP JUMPDEST SWAP3 POP DUP3 DUP3 ADD SWAP1 POP DUP1 DUP3 GT ISZERO PUSH2 0x1418 JUMPI PUSH2 0x1417 PUSH2 0x13BE JUMP JUMPDEST JUMPDEST SWAP3 SWAP2 POP POP JUMP JUMPDEST PUSH32 0x5F6D617841697264726F70416D6F756E74000000000000000000000000000000 PUSH0 DUP3 ADD MSTORE POP JUMP JUMPDEST PUSH0 PUSH2 0x1452 PUSH1 0x11 DUP4 PUSH2 0x12DE JUMP JUMPDEST SWAP2 POP PUSH2 0x145D DUP3 PUSH2 0x141E JUMP JUMPDEST PUSH1 0x20 DUP3 ADD SWAP1 POP SWAP2 SWAP1 POP JUMP JUMPDEST PUSH0 PUSH1 0x20 DUP3 ADD SWAP1 POP DUP2 DUP2 SUB PUSH0 DUP4 ADD MSTORE PUSH2 0x147F DUP2 PUSH2 0x1446 JUMP JUMPDEST SWAP1 POP SWAP2 SWAP1 POP JUMP JUMPDEST PUSH32 0x4E6F20456E6F7567687420746F6B656E00000000000000000000000000000000 PUSH0 DUP3 ADD MSTORE POP JUMP JUMPDEST PUSH0 PUSH2 0x14BA PUSH1 0x10 DUP4 PUSH2 0x12DE JUMP JUMPDEST SWAP2 POP PUSH2 0x14C5 DUP3 PUSH2 0x1486 JUMP JUMPDEST PUSH1 0x20 DUP3 ADD SWAP1 POP SWAP2 SWAP1 POP JUMP JUMPDEST PUSH0 PUSH1 0x20 DUP3 ADD SWAP1 POP DUP2 DUP2 SUB PUSH0 DUP4 ADD MSTORE PUSH2 0x14E7 DUP2 PUSH2 0x14AE JUMP JUMPDEST SWAP1 POP SWAP2 SWAP1 POP JUMP JUMPDEST PUSH0 PUSH1 0x40 DUP3 ADD SWAP1 POP PUSH2 0x1501 PUSH0 DUP4 ADD DUP6 PUSH2 0x11A4 JUMP JUMPDEST PUSH2 0x150E PUSH1 0x20 DUP4 ADD DUP5 PUSH2 0x122E JUMP JUMPDEST SWAP4 SWAP3 POP POP POP JUMP JUMPDEST PUSH2 0x151E DUP2 PUSH2 0x12AB JUMP JUMPDEST DUP2 EQ PUSH2 0x1528 JUMPI PUSH0 DUP1 REVERT JUMPDEST POP JUMP JUMPDEST PUSH0 DUP2 MLOAD SWAP1 POP PUSH2 0x1539 DUP2 PUSH2 0x1515 JUMP JUMPDEST SWAP3 SWAP2 POP POP JUMP JUMPDEST PUSH0 PUSH1 0x20 DUP3 DUP5 SUB SLT ISZERO PUSH2 0x1554 JUMPI PUSH2 0x1553 PUSH2 0x11CC JUMP JUMPDEST JUMPDEST PUSH0 PUSH2 0x1561 DUP5 DUP3 DUP6 ADD PUSH2 0x152B JUMP JUMPDEST SWAP2 POP POP SWAP3 SWAP2 POP POP JUMP JUMPDEST PUSH0 PUSH2 0x1574 DUP3 PUSH2 0x1225 JUMP JUMPDEST SWAP2 POP PUSH32 0xFFFFFFFFFFFFFFFFFFFFFFFFFFFFFFFFFFFFFFFFFFFFFFFFFFFFFFFFFFFFFFFF DUP3 SUB PUSH2 0x15A6 JUMPI PUSH2 0x15A5 PUSH2 0x13BE JUMP JUMPDEST JUMPDEST PUSH1 0x1 DUP3 ADD SWAP1 POP SWAP2 SWAP1 POP JUMP JUMPDEST PUSH0 DUP2 MLOAD SWAP1 POP PUSH2 0x15BF DUP2 PUSH2 0x1256 JUMP JUMPDEST SWAP3 SWAP2 POP POP JUMP JUMPDEST PUSH0 PUSH1 0x20 DUP3 DUP5 SUB SLT ISZERO PUSH2 0x15DA JUMPI PUSH2 0x15D9 PUSH2 0x11CC JUMP JUMPDEST JUMPDEST PUSH0 PUSH2 0x15E7 DUP5 DUP3 DUP6 ADD PUSH2 0x15B1 JUMP JUMPDEST SWAP2 POP POP SWAP3 SWAP2 POP POP JUMP JUMPDEST PUSH32 0x4F6E6C7941646D696E0000000000000000000000000000000000000000000000 PUSH0 DUP3 ADD MSTORE POP JUMP JUMPDEST PUSH0 PUSH2 0x1624 PUSH1 0x9 DUP4 PUSH2 0x12DE JUMP JUMPDEST SWAP2 POP PUSH2 0x162F DUP3 PUSH2 0x15F0 JUMP JUMPDEST PUSH1 0x20 DUP3 ADD SWAP1 POP SWAP2 SWAP1 POP JUMP JUMPDEST PUSH0 PUSH1 0x20 DUP3 ADD SWAP1 POP DUP2 DUP2 SUB PUSH0 DUP4 ADD MSTORE PUSH2 0x1651 DUP2 PUSH2 0x1618 JUMP JUMPDEST SWAP1 POP SWAP2 SWAP1 POP JUMP JUMPDEST PUSH32 0x7769746864726177546F6B656E73000000000000000000000000000000000000 PUSH0 DUP3 ADD MSTORE POP JUMP JUMPDEST PUSH0 PUSH2 0x168C PUSH1 0xE DUP4 PUSH2 0x12DE JUMP JUMPDEST SWAP2 POP PUSH2 0x1697 DUP3 PUSH2 0x1658 JUMP JUMPDEST PUSH1 0x20 DUP3 ADD SWAP1 POP SWAP2 SWAP1 POP JUMP JUMPDEST PUSH0 PUSH1 0x20 DUP3 ADD SWAP1 POP DUP2 DUP2 SUB PUSH0 DUP4 ADD MSTORE PUSH2 0x16B9 DUP2 PUSH2 0x1680 JUMP JUMPDEST SWAP1 POP SWAP2 SWAP1 POP JUMP JUMPDEST PUSH32 0x6475726174696F6E203E20300000000000000000000000000000000000000000 PUSH0 DUP3 ADD MSTORE POP JUMP JUMPDEST PUSH0 PUSH2 0x16F4 PUSH1 0xC DUP4 PUSH2 0x12DE JUMP JUMPDEST SWAP2 POP PUSH2 0x16FF DUP3 PUSH2 0x16C0 JUMP JUMPDEST PUSH1 0x20 DUP3 ADD SWAP1 POP SWAP2 SWAP1 POP JUMP JUMPDEST PUSH0 PUSH1 0x20 DUP3 ADD SWAP1 POP DUP2 DUP2 SUB PUSH0 DUP4 ADD MSTORE PUSH2 0x1721 DUP2 PUSH2 0x16E8 JUMP JUMPDEST SWAP1 POP SWAP2 SWAP1 POP JUMP JUMPDEST PUSH0 PUSH1 0x60 DUP3 ADD SWAP1 POP PUSH2 0x173B PUSH0 DUP4 ADD DUP7 PUSH2 0x11A4 JUMP JUMPDEST PUSH2 0x1748 PUSH1 0x20 DUP4 ADD DUP6 PUSH2 0x11A4 JUMP JUMPDEST PUSH2 0x1755 PUSH1 0x40 DUP4 ADD DUP5 PUSH2 0x122E JUMP JUMPDEST SWAP5 SWAP4 POP POP POP POP JUMP JUMPDEST PUSH32 0x4E487B7100000000000000000000000000000000000000000000000000000000 PUSH0 MSTORE PUSH1 0x12 PUSH1 0x4 MSTORE PUSH1 0x24 PUSH0 REVERT JUMPDEST PUSH0 PUSH2 0x1794 DUP3 PUSH2 0x1225 JUMP JUMPDEST SWAP2 POP PUSH2 0x179F DUP4 PUSH2 0x1225 JUMP JUMPDEST SWAP3 POP DUP3 PUSH2 0x17AF JUMPI PUSH2 0x17AE PUSH2 0x175D JUMP JUMPDEST JUMPDEST DUP3 DUP3 DIV SWAP1 POP SWAP3 SWAP2 POP POP JUMP JUMPDEST PUSH0 PUSH2 0x17C4 DUP3 PUSH2 0x1225 JUMP JUMPDEST SWAP2 POP PUSH2 0x17CF DUP4 PUSH2 0x1225 JUMP JUMPDEST SWAP3 POP DUP3 DUP3 MUL PUSH2 0x17DD DUP2 PUSH2 0x1225 JUMP JUMPDEST SWAP2 POP DUP3 DUP3 DIV DUP5 EQ DUP4 ISZERO OR PUSH2 0x17F4 JUMPI PUSH2 0x17F3 PUSH2 0x13BE JUMP JUMPDEST JUMPDEST POP SWAP3 SWAP2 POP POP JUMP JUMPDEST PUSH32 0x7075726368617365207072696365000000000000000000000000000000000000 PUSH0 DUP3 ADD MSTORE POP JUMP JUMPDEST PUSH0 PUSH2 0x182F PUSH1 0xE DUP4 PUSH2 0x12DE JUMP JUMPDEST SWAP2 POP PUSH2 0x183A DUP3 PUSH2 0x17FB JUMP JUMPDEST PUSH1 0x20 DUP3 ADD SWAP1 POP SWAP2 SWAP1 POP JUMP JUMPDEST PUSH0 PUSH1 0x20 DUP3 ADD SWAP1 POP DUP2 DUP2 SUB PUSH0 DUP4 ADD MSTORE PUSH2 0x185C DUP2 PUSH2 0x1823 JUMP JUMPDEST SWAP1 POP SWAP2 SWAP1 POP JUMP INVALID LOG2 PUSH5 0x6970667358 0x22 SLT KECCAK256 PUSH31 0x881C688832A6086DE3B3081F18F9994F835CEE4FCF0545C4F8F2A7238DD7C6 PUSH5 0x736F6C6343 STOP ADDMOD BYTE STOP CALLER "
				},
				"gasEstimates": {
					"creation": {
						"codeDepositCost": "1259400",
						"executionCost": "infinite",
						"totalCost": "infinite"
					},
					"external": {
						"_admin()": "2529",
						"_holdesCount()": "2448",
						"activate(uint256)": "infinite",
						"airdrop(address)": "infinite",
						"balanceOfEth(address)": "3336",
						"balanceOfTokens(address)": "infinite",
						"deactivate()": "9489",
						"depositTokens(uint256)": "infinite",
						"getICOAdr()": "446",
						"getTokenAdr()": "2561",
						"isInList(address)": "2921",
						"purchase(uint256)": "infinite",
						"updateAdmin(address)": "27126",
						"withdrawEth(uint256)": "infinite",
						"withdrawTokens(uint256)": "infinite"
					}
				},
				"methodIdentifiers": {
					"_admin()": "01bc45c9",
					"_holdesCount()": "446909e9",
					"activate(uint256)": "b260c42a",
					"airdrop(address)": "21860a05",
					"balanceOfEth(address)": "40654e14",
					"balanceOfTokens(address)": "2ff57da8",
					"deactivate()": "51b42b00",
					"depositTokens(uint256)": "dd49756e",
					"getICOAdr()": "3366ef54",
					"getTokenAdr()": "1380a1cc",
					"isInList(address)": "fa33bcf3",
					"purchase(uint256)": "efef39a1",
					"updateAdmin(address)": "e2f273bd",
					"withdrawEth(uint256)": "c311d049",
					"withdrawTokens(uint256)": "315a095d"
				}
			},
			"storageLayout": {
				"storage": [
					{
						"astId": 82,
						"contract": "contracts/ICO/MyICO.sol:MyICO",
						"label": "_admin",
						"offset": 0,
						"slot": "0",
						"type": "t_address"
					},
					{
						"astId": 85,
						"contract": "contracts/ICO/MyICO.sol:MyICO",
						"label": "_token",
						"offset": 0,
						"slot": "1",
						"type": "t_contract(IERC20)77"
					},
					{
						"astId": 90,
						"contract": "contracts/ICO/MyICO.sol:MyICO",
						"label": "_tokenPrice",
						"offset": 0,
						"slot": "2",
						"type": "t_uint256"
					},
					{
						"astId": 95,
						"contract": "contracts/ICO/MyICO.sol:MyICO",
						"label": "_airdropAmount",
						"offset": 0,
						"slot": "3",
						"type": "t_uint256"
					},
					{
						"astId": 97,
						"contract": "contracts/ICO/MyICO.sol:MyICO",
						"label": "_totalReleasedAirdrop",
						"offset": 0,
						"slot": "4",
						"type": "t_uint256"
					},
					{
						"astId": 102,
						"contract": "contracts/ICO/MyICO.sol:MyICO",
						"label": "_maxAirdropAmount",
						"offset": 0,
						"slot": "5",
						"type": "t_uint256"
					},
					{
						"astId": 104,
						"contract": "contracts/ICO/MyICO.sol:MyICO",
						"label": "_icoEndTime",
						"offset": 0,
						"slot": "6",
						"type": "t_uint256"
					},
					{
						"astId": 106,
						"contract": "contracts/ICO/MyICO.sol:MyICO",
						"label": "_holdesCount",
						"offset": 0,
						"slot": "7",
						"type": "t_uint256"
					},
					{
						"astId": 110,
						"contract": "contracts/ICO/MyICO.sol:MyICO",
						"label": "airdrops",
						"offset": 0,
						"slot": "8",
						"type": "t_mapping(t_address,t_uint256)"
					},
					{
						"astId": 114,
						"contract": "contracts/ICO/MyICO.sol:MyICO",
						"label": "holders",
						"offset": 0,
						"slot": "9",
						"type": "t_mapping(t_address,t_uint256)"
					},
					{
						"astId": 118,
						"contract": "contracts/ICO/MyICO.sol:MyICO",
						"label": "isInList",
						"offset": 0,
						"slot": "10",
						"type": "t_mapping(t_address,t_bool)"
					}
				],
				"types": {
					"t_address": {
						"encoding": "inplace",
						"label": "address",
						"numberOfBytes": "20"
					},
					"t_bool": {
						"encoding": "inplace",
						"label": "bool",
						"numberOfBytes": "1"
					},
					"t_contract(IERC20)77": {
						"encoding": "inplace",
						"label": "contract IERC20",
						"numberOfBytes": "20"
					},
					"t_mapping(t_address,t_bool)": {
						"encoding": "mapping",
						"key": "t_address",
						"label": "mapping(address => bool)",
						"numberOfBytes": "32",
						"value": "t_bool"
					},
					"t_mapping(t_address,t_uint256)": {
						"encoding": "mapping",
						"key": "t_address",
						"label": "mapping(address => uint256)",
						"numberOfBytes": "32",
						"value": "t_uint256"
					},
					"t_uint256": {
						"encoding": "inplace",
						"label": "uint256",
						"numberOfBytes": "32"
					}
				}
			},
			"userdoc": {
				"kind": "user",
				"methods": {},
				"version": 1
			}
		}
	}
}