{
  "contractName": "MyICO",
  "abi": [
    {
      "inputs": [
        {
          "internalType": "address",
          "name": "token",
          "type": "address"
        },
        {
          "internalType": "address",
          "name": "admin",
          "type": "address"
        }
      ],
      "stateMutability": "nonpayable",
      "type": "constructor"
    },
    {
      "anonymous": false,
      "inputs": [
        {
          "indexed": true,
          "internalType": "address",
          "name": "receiverAddress",
          "type": "address"
        },
        {
          "indexed": true,
          "internalType": "uint256",
          "name": "amount",
          "type": "uint256"
        }
      ],
      "name": "Airdrop",
      "type": "event"
    },
    {
      "anonymous": false,
      "inputs": [
        {
          "indexed": true,
          "internalType": "address",
          "name": "buyerAddress",
          "type": "address"
        },
        {
          "indexed": true,
          "internalType": "uint256",
          "name": "amount",
          "type": "uint256"
        }
      ],
      "name": "Buy",
      "type": "event"
    },
    {
      "inputs": [],
      "name": "_admin",
      "outputs": [
        {
          "internalType": "address",
          "name": "",
          "type": "address"
        }
      ],
      "stateMutability": "view",
      "type": "function"
    },
    {
      "inputs": [],
      "name": "_holdesCount",
      "outputs": [
        {
          "internalType": "uint256",
          "name": "",
          "type": "uint256"
        }
      ],
      "stateMutability": "view",
      "type": "function"
    },
    {
      "inputs": [
        {
          "internalType": "address",
          "name": "",
          "type": "address"
        }
      ],
      "name": "isInList",
      "outputs": [
        {
          "internalType": "bool",
          "name": "",
          "type": "bool"
        }
      ],
      "stateMutability": "view",
      "type": "function"
    },
    {
      "inputs": [
        {
          "internalType": "uint256",
          "name": "duration",
          "type": "uint256"
        }
      ],
      "name": "activate",
      "outputs": [],
      "stateMutability": "nonpayable",
      "type": "function"
    },
    {
      "inputs": [],
      "name": "deactivate",
      "outputs": [],
      "stateMutability": "nonpayable",
      "type": "function"
    },
    {
      "inputs": [
        {
          "internalType": "uint256",
          "name": "amount",
          "type": "uint256"
        }
      ],
      "name": "depositTokens",
      "outputs": [],
      "stateMutability": "nonpayable",
      "type": "function"
    },
    {
      "inputs": [
        {
          "internalType": "address",
          "name": "receiver",
          "type": "address"
        }
      ],
      "name": "airdrop",
      "outputs": [],
      "stateMutability": "nonpayable",
      "type": "function"
    },
    {
      "inputs": [
        {
          "internalType": "uint256",
          "name": "amount",
          "type": "uint256"
        }
      ],
      "name": "purchase",
      "outputs": [],
      "stateMutability": "payable",
      "type": "function"
    },
    {
      "inputs": [
        {
          "internalType": "uint256",
          "name": "amount",
          "type": "uint256"
        }
      ],
      "name": "withdrawTokens",
      "outputs": [],
      "stateMutability": "nonpayable",
      "type": "function"
    },
    {
      "inputs": [
        {
          "internalType": "uint256",
          "name": "amount",
          "type": "uint256"
        }
      ],
      "name": "withdrawEth",
      "outputs": [],
      "stateMutability": "nonpayable",
      "type": "function"
    },
    {
      "inputs": [
        {
          "internalType": "address",
          "name": "account",
          "type": "address"
        }
      ],
      "name": "balanceOfEth",
      "outputs": [
        {
          "internalType": "uint256",
          "name": "",
          "type": "uint256"
        }
      ],
      "stateMutability": "view",
      "type": "function"
    },
    {
      "inputs": [
        {
          "internalType": "address",
          "name": "account",
          "type": "address"
        }
      ],
      "name": "balanceOfTokens",
      "outputs": [
        {
          "internalType": "uint256",
          "name": "",
          "type": "uint256"
        }
      ],
      "stateMutability": "view",
      "type": "function"
    },
    {
      "inputs": [],
      "name": "getICOAdr",
      "outputs": [
        {
          "internalType": "address",
          "name": "",
          "type": "address"
        }
      ],
      "stateMutability": "view",
      "type": "function"
    },
    {
      "inputs": [],
      "name": "getTokenAdr",
      "outputs": [
        {
          "internalType": "address",
          "name": "",
          "type": "address"
        }
      ],
      "stateMutability": "view",
      "type": "function"
    },
    {
      "inputs": [
        {
          "internalType": "address",
          "name": "newAdmin",
          "type": "address"
        }
      ],
      "name": "updateAdmin",
      "outputs": [
        {
          "internalType": "bool",
          "name": "",
          "type": "bool"
        }
      ],
      "stateMutability": "nonpayable",
      "type": "function"
    }
  ],
  "bytecode": "0x608060405266038d7ea4c6800060025568056bc75e2d6310000060035569d3c21bcecceda100000060055534801561003657600080fd5b50604051610d0a380380610d0a833981016040819052610055916100a2565b600180546001600160a01b039384166001600160a01b031991821617909155600080549290931691161790556100d5565b80516001600160a01b038116811461009d57600080fd5b919050565b600080604083850312156100b557600080fd5b6100be83610086565b91506100cc60208401610086565b90509250929050565b610c26806100e46000396000f3fe6080604052600436106100e85760003560e01c8063446909e91161008a578063dd49756e11610059578063dd49756e1461025e578063e2f273bd1461027e578063efef39a1146102ae578063fa33bcf3146102c157600080fd5b8063446909e9146101f357806351b42b0014610209578063b260c42a1461021e578063c311d0491461023e57600080fd5b80632ff57da8116100c65780632ff57da81461016a578063315a095d146101985780633366ef54146101b857806340654e14146101cb57600080fd5b806301bc45c9146100ed5780631380a1cc1461012a57806321860a0514610148575b600080fd5b3480156100f957600080fd5b5060005461010d906001600160a01b031681565b6040516001600160a01b0390911681526020015b60405180910390f35b34801561013657600080fd5b506001546001600160a01b031661010d565b34801561015457600080fd5b50610168610163366004610aa9565b6102f1565b005b34801561017657600080fd5b5061018a610185366004610aa9565b610594565b604051908152602001610121565b3480156101a457600080fd5b506101686101b3366004610ad9565b610609565b3480156101c457600080fd5b503061010d565b3480156101d757600080fd5b5061018a6101e6366004610aa9565b6001600160a01b03163190565b3480156101ff57600080fd5b5061018a60075481565b34801561021557600080fd5b506101686106fa565b34801561022a57600080fd5b50610168610239366004610ad9565b61074c565b34801561024a57600080fd5b50610168610259366004610ad9565b6107e5565b34801561026a57600080fd5b50610168610279366004610ad9565b61088a565b34801561028a57600080fd5b5061029e610299366004610aa9565b6108cb565b6040519015158152602001610121565b6101686102bc366004610ad9565b61091b565b3480156102cd57600080fd5b5061029e6102dc366004610aa9565b600a6020526000908152604090205460ff1681565b426006541161031b5760405162461bcd60e51b815260040161031290610af2565b60405180910390fd5b6001600160a01b038116600090815260086020526040902054156103815760405162461bcd60e51b815260206004820152601a60248201527f61697264726f70203a20416c72656164792068617320746861740000000000006044820152606401610312565b6005546003546004546103949190610b2d565b11156103d65760405162461bcd60e51b815260206004820152601160248201527017db585e105a5c991c9bdc105b5bdd5b9d607a1b6044820152606401610312565b6003546103e230610594565b10156104235760405162461bcd60e51b815260206004820152601060248201526f27379022b737bab3b43a103a37b5b2b760811b6044820152606401610312565b60015460035460405163a9059cbb60e01b81526001600160a01b038481166004830152602482019290925291169063a9059cbb906044016020604051808303816000875af1158015610479573d6000803e3d6000fd5b505050506040513d601f19601f8201168201806040525081019061049d9190610b40565b506003546001600160a01b0382166000908152600860205260408120829055600480549091906104ce908490610b2d565b90915550506001600160a01b0381166000908152600a602052604090205460ff1661052a576001600160a01b0381166000908152600a60205260408120805460ff19166001179055600780549161052483610b62565b91905055505b6003546001600160a01b03821660009081526009602052604081208054909190610555908490610b2d565b90915550506003546040516001600160a01b038316907f8c32c568416fcf97be35ce5b27844cfddcd63a67a1a602c3595ba5dac38f303a90600090a350565b6001546040516370a0823160e01b81526001600160a01b03838116600483015260009216906370a0823190602401602060405180830381865afa1580156105df573d6000803e3d6000fd5b505050506040513d601f19601f820116820180604052508101906106039190610b7b565b92915050565b6000546001600160a01b031633146106335760405162461bcd60e51b815260040161031290610b94565b61063c30610594565b81111561067c5760405162461bcd60e51b815260206004820152600e60248201526d7769746864726177546f6b656e7360901b6044820152606401610312565b60015460005460405163a9059cbb60e01b81526001600160a01b0391821660048201526024810184905291169063a9059cbb906044015b6020604051808303816000875af11580156106d2573d6000803e3d6000fd5b505050506040513d601f19601f820116820180604052508101906106f69190610b40565b5050565b6000546001600160a01b031633146107245760405162461bcd60e51b815260040161031290610b94565b42600654116107455760405162461bcd60e51b815260040161031290610af2565b6000600655565b6000546001600160a01b031633146107765760405162461bcd60e51b815260040161031290610b94565b600654156107965760405162461bcd60e51b815260040161031290610af2565b600081116107d55760405162461bcd60e51b815260206004820152600c60248201526b06475726174696f6e203e20360a41b6044820152606401610312565b6107df8142610b2d565b60065550565b6000546001600160a01b0316331461080f5760405162461bcd60e51b815260040161031290610b94565b30318111156108515760405162461bcd60e51b815260206004820152600e60248201526d7769746864726177546f6b656e7360901b6044820152606401610312565b600080546040516001600160a01b039091169183156108fc02918491818181858888f193505050501580156106f6573d6000803e3d6000fd5b6001546000546040516323b872dd60e01b81526001600160a01b039182166004820152306024820152604481018490529116906323b872dd906064016106b3565b600080546001600160a01b031633146108f65760405162461bcd60e51b815260040161031290610b94565b50600080546001600160a01b0383166001600160a01b03199091161790556001919050565b426006541161093c5760405162461bcd60e51b815260040161031290610af2565b61094e670de0b6b3a764000082610bb7565b60025461095b9190610bd9565b341461099a5760405162461bcd60e51b815260206004820152600e60248201526d707572636861736520707269636560901b6044820152606401610312565b60015460405163a9059cbb60e01b8152336004820152602481018390526001600160a01b039091169063a9059cbb906044016020604051808303816000875af11580156109eb573d6000803e3d6000fd5b505050506040513d601f19601f82011682018060405250810190610a0f9190610b40565b50336000908152600a602052604090205460ff16610a5557336000908152600a60205260408120805460ff191660011790556007805491610a4f83610b62565b91905055505b3360009081526009602052604081208054839290610a74908490610b2d565b9091555050604051819033907fe3d4187f6ca4248660cc0ac8b8056515bac4a8132be2eca31d6d0cc170722a7e90600090a350565b600060208284031215610abb57600080fd5b81356001600160a01b0381168114610ad257600080fd5b9392505050565b600060208284031215610aeb57600080fd5b5035919050565b6020808252600b908201526a69636f497341637469766560a81b604082015260600190565b634e487b7160e01b600052601160045260246000fd5b8082018082111561060357610603610b17565b600060208284031215610b5257600080fd5b81518015158114610ad257600080fd5b600060018201610b7457610b74610b17565b5060010190565b600060208284031215610b8d57600080fd5b5051919050565b60208082526009908201526827b7363ca0b236b4b760b91b604082015260600190565b600082610bd457634e487b7160e01b600052601260045260246000fd5b500490565b808202811582820484141761060357610603610b1756fea2646970667358221220efa4bcaeff85bc6131a31b4a2eb3dd85fe66b98487535384615c3b2e7db1b2cd64736f6c63430008160033",
  "immutableReferences": {},
  "source": "// SPDX-License-Identifier: MIT\r\npragma solidity ^0.8.22;\r\nimport \"@openzeppelin/contracts/token/ERC20/IERC20.sol\";\r\ncontract MyICO {\r\n\r\n    address public  _admin;\r\n    IERC20 private _token;\r\n    uint private _tokenPrice = 10**15 wei;\r\n    uint private _airdropAmount = 100 * 1e18;\r\n    uint private _totalReleasedAirdrop;\r\n    uint private _maxAirdropAmount = 1_000_000 * 1e18;\r\n    uint private _icoEndTime;\r\n    uint public _holdesCount;\r\n\r\n    mapping (address => uint) private airdrops;\r\n    mapping (address => uint) private holders;\r\n    mapping (address => bool) public isInList;\r\n\r\n    event Buy(address indexed  buyerAddress,uint indexed amount);\r\n    event Airdrop(address indexed  receiverAddress,uint indexed amount);\r\n\r\n    constructor(address token,address admin) {\r\n        _token = IERC20(token);\r\n        _admin = admin;\r\n    }\r\n    \r\n    //Checkers\r\n    modifier OnlyAdmin(){\r\n        require(msg.sender ==_admin,\"OnlyAdmin\");\r\n        _;\r\n    }\r\n    modifier icoIsActive(){\r\n        require(_icoEndTime > block.timestamp,\"icoIsActive\");\r\n        _;\r\n    }\r\n    modifier icoIsDeActive(){\r\n        require(_icoEndTime == 0,\"icoIsActive\");\r\n        _;\r\n    }\r\n\r\n    function activate(uint duration) external OnlyAdmin icoIsDeActive{\r\n        require(duration > 0,\"duration > 0\");\r\n        _icoEndTime = block.timestamp + duration;\r\n    }\r\n\r\n    function deactivate() external OnlyAdmin icoIsActive{\r\n        _icoEndTime = 0;\r\n    }\r\n\r\n    function depositTokens(uint amount) public \r\n    {\r\n        _token.transferFrom(_admin, (address(this)), amount);\r\n    }\r\n\r\n    function airdrop(address receiver) external icoIsActive\r\n    {\r\n        require(airdrops[receiver] == 0,\"airdrop : Already has that\");\r\n        require(_totalReleasedAirdrop + _airdropAmount <= _maxAirdropAmount,\"_maxAirdropAmount\");\r\n        require(balanceOfTokens(address(this)) >= _airdropAmount ,\"No Enought token\");\r\n\r\n        _token.transfer(receiver, _airdropAmount);\r\n\r\n        airdrops[receiver] = _airdropAmount;\r\n        _totalReleasedAirdrop += _airdropAmount;\r\n        if (!isInList[receiver])\r\n        {\r\n            isInList[receiver] = true;\r\n            _holdesCount++;\r\n        }\r\n        holders[receiver] += _airdropAmount;\r\n\r\n        emit Airdrop(receiver,_airdropAmount);\r\n    }\r\n\r\n    function purchase(uint amount) external payable  icoIsActive\r\n    {\r\n        require(msg.value == (_tokenPrice * (amount / 1e18)),\"purchase price\");\r\n         _token.transfer(msg.sender, amount);\r\n\r\n          if (!isInList[msg.sender])\r\n        {\r\n            isInList[msg.sender] = true;\r\n            _holdesCount++;\r\n        }\r\n        holders[msg.sender] += amount;\r\n\r\n        emit Buy(msg.sender,amount);\r\n    }\r\n\r\n    function withdrawTokens(uint amount) external OnlyAdmin\r\n    {\r\n        require(amount <= balanceOfTokens(address(this)),\"withdrawTokens\");\r\n        _token.transfer(_admin, amount);\r\n    }\r\n\r\n    function withdrawEth(uint amount) external OnlyAdmin \r\n    {\r\n        require(amount <= balanceOfEth(address(this)),\"withdrawTokens\");\r\n        payable(_admin).transfer(amount);\r\n    }\r\n\r\n    /*\r\n        Utilities    \r\n    */\r\n    function balanceOfEth(address account) public view returns(uint)\r\n    {\r\n        return account.balance;\r\n    }\r\n    \r\n    function balanceOfTokens(address account) public view returns(uint)\r\n    {\r\n        return _token.balanceOf(account);\r\n    }\r\n\r\n    function getICOAdr() public view returns(address) \r\n    {\r\n        return address(this);\r\n    }\r\n\r\n    function getTokenAdr() public view returns(address) \r\n    {\r\n        return address(_token);\r\n    }\r\n\r\n    function updateAdmin(address newAdmin) public OnlyAdmin returns(bool)\r\n    {\r\n        _admin = newAdmin;\r\n        return true;\r\n    }\r\n}\r\n// 0x5B38Da6a701c568545dCfcB03FcB875f56beddC4 MyToken sender\r\n\r\n// 0xAb8483F64d9C6d1EcF9b849Ae677dD3315835cb2 MYICO sender\r\n\r\n// 0x0fC5025C764cE34df352757e82f7B5c4Df39A836 MyToken\r\n\r\n// 0x417Bf7C9dc415FEEb693B6FE313d1186C692600F MYICO",
  "sourcePath": "D:\\SolidityProjects\\P2_ICO\\FirstICO\\Contract\\contracts\\ICO\\MyICO.sol",
  "compiler": {
    "name": "solc",
    "version": "0.8.22+commit.4fc1097e.Emscripten.clang"
  },
  "schemaVersion": "3.4.16",
  "updatedAt": "2024-12-01T07:58:47.765Z",
  "devdoc": {
    "kind": "dev",
    "methods": {},
    "version": 1
  },
  "userdoc": {
    "kind": "user",
    "methods": {},
    "version": 1
  }
}