{
  "contractName": "MyICO",
  "abi": [
    {
      "inputs": [
        {
          "internalType": "address",
          "name": "token",
          "type": "address"
        },
        {
          "internalType": "address",
          "name": "admin",
          "type": "address"
        }
      ],
      "stateMutability": "nonpayable",
      "type": "constructor"
    },
    {
      "anonymous": false,
      "inputs": [
        {
          "indexed": true,
          "internalType": "address",
          "name": "receiverAddress",
          "type": "address"
        },
        {
          "indexed": true,
          "internalType": "uint256",
          "name": "amount",
          "type": "uint256"
        }
      ],
      "name": "Airdrop",
      "type": "event"
    },
    {
      "anonymous": false,
      "inputs": [
        {
          "indexed": true,
          "internalType": "address",
          "name": "buyerAddress",
          "type": "address"
        },
        {
          "indexed": true,
          "internalType": "uint256",
          "name": "amount",
          "type": "uint256"
        }
      ],
      "name": "Buy",
      "type": "event"
    },
    {
      "inputs": [],
      "name": "_admin",
      "outputs": [
        {
          "internalType": "address",
          "name": "",
          "type": "address"
        }
      ],
      "stateMutability": "view",
      "type": "function"
    },
    {
      "inputs": [],
      "name": "_holdesCount",
      "outputs": [
        {
          "internalType": "uint256",
          "name": "",
          "type": "uint256"
        }
      ],
      "stateMutability": "view",
      "type": "function"
    },
    {
      "inputs": [
        {
          "internalType": "address",
          "name": "",
          "type": "address"
        }
      ],
      "name": "isInList",
      "outputs": [
        {
          "internalType": "bool",
          "name": "",
          "type": "bool"
        }
      ],
      "stateMutability": "view",
      "type": "function"
    },
    {
      "inputs": [
        {
          "internalType": "uint256",
          "name": "duration",
          "type": "uint256"
        }
      ],
      "name": "activate",
      "outputs": [],
      "stateMutability": "nonpayable",
      "type": "function"
    },
    {
      "inputs": [],
      "name": "deactivate",
      "outputs": [],
      "stateMutability": "nonpayable",
      "type": "function"
    },
    {
      "inputs": [
        {
          "internalType": "uint256",
          "name": "amount",
          "type": "uint256"
        }
      ],
      "name": "depositTokens",
      "outputs": [],
      "stateMutability": "nonpayable",
      "type": "function"
    },
    {
      "inputs": [
        {
          "internalType": "address",
          "name": "receiver",
          "type": "address"
        }
      ],
      "name": "airdrop",
      "outputs": [],
      "stateMutability": "nonpayable",
      "type": "function"
    },
    {
      "inputs": [
        {
          "internalType": "uint256",
          "name": "amount",
          "type": "uint256"
        }
      ],
      "name": "purchase",
      "outputs": [],
      "stateMutability": "payable",
      "type": "function"
    },
    {
      "inputs": [
        {
          "internalType": "uint256",
          "name": "amount",
          "type": "uint256"
        }
      ],
      "name": "withdrawTokens",
      "outputs": [],
      "stateMutability": "nonpayable",
      "type": "function"
    },
    {
      "inputs": [
        {
          "internalType": "uint256",
          "name": "amount",
          "type": "uint256"
        }
      ],
      "name": "withdrawEth",
      "outputs": [],
      "stateMutability": "nonpayable",
      "type": "function"
    },
    {
      "inputs": [
        {
          "internalType": "address",
          "name": "account",
          "type": "address"
        }
      ],
      "name": "balanceOfEth",
      "outputs": [
        {
          "internalType": "uint256",
          "name": "",
          "type": "uint256"
        }
      ],
      "stateMutability": "view",
      "type": "function"
    },
    {
      "inputs": [
        {
          "internalType": "address",
          "name": "account",
          "type": "address"
        }
      ],
      "name": "balanceOfTokens",
      "outputs": [
        {
          "internalType": "uint256",
          "name": "",
          "type": "uint256"
        }
      ],
      "stateMutability": "view",
      "type": "function"
    },
    {
      "inputs": [],
      "name": "getICOAdr",
      "outputs": [
        {
          "internalType": "address",
          "name": "",
          "type": "address"
        }
      ],
      "stateMutability": "view",
      "type": "function"
    },
    {
      "inputs": [],
      "name": "getTokenAdr",
      "outputs": [
        {
          "internalType": "address",
          "name": "",
          "type": "address"
        }
      ],
      "stateMutability": "view",
      "type": "function"
    },
    {
      "inputs": [
        {
          "internalType": "address",
          "name": "newAdmin",
          "type": "address"
        }
      ],
      "name": "updateAdmin",
      "outputs": [
        {
          "internalType": "bool",
          "name": "",
          "type": "bool"
        }
      ],
      "stateMutability": "nonpayable",
      "type": "function"
    }
  ],
  "bytecode": "0x608060405266038d7ea4c6800060025568056bc75e2d6310000060035569d3c21bcecceda100000060055534801562000036575f80fd5b5060405162001a3438038062001a3483398181016040528101906200005c919062000148565b8160015f6101000a81548173ffffffffffffffffffffffffffffffffffffffff021916908373ffffffffffffffffffffffffffffffffffffffff160217905550805f806101000a81548173ffffffffffffffffffffffffffffffffffffffff021916908373ffffffffffffffffffffffffffffffffffffffff16021790555050506200018d565b5f80fd5b5f73ffffffffffffffffffffffffffffffffffffffff82169050919050565b5f6200011282620000e7565b9050919050565b620001248162000106565b81146200012f575f80fd5b50565b5f81519050620001428162000119565b92915050565b5f8060408385031215620001615762000160620000e3565b5b5f620001708582860162000132565b9250506020620001838582860162000132565b9150509250929050565b611899806200019b5f395ff3fe6080604052600436106100e7575f3560e01c8063446909e911610089578063dd49756e11610058578063dd49756e146102c1578063e2f273bd146102e9578063efef39a114610325578063fa33bcf314610341576100e7565b8063446909e91461023157806351b42b001461025b578063b260c42a14610271578063c311d04914610299576100e7565b80632ff57da8116100c55780632ff57da814610167578063315a095d146101a35780633366ef54146101cb57806340654e14146101f5576100e7565b806301bc45c9146100eb5780631380a1cc1461011557806321860a051461013f575b5f80fd5b3480156100f6575f80fd5b506100ff61037d565b60405161010c91906111b3565b60405180910390f35b348015610120575f80fd5b506101296103a0565b60405161013691906111b3565b60405180910390f35b34801561014a575f80fd5b50610165600480360381019061016091906111fa565b6103c8565b005b348015610172575f80fd5b5061018d600480360381019061018891906111fa565b610782565b60405161019a919061123d565b60405180910390f35b3480156101ae575f80fd5b506101c960048036038101906101c49190611280565b610823565b005b3480156101d6575f80fd5b506101df6109ba565b6040516101ec91906111b3565b60405180910390f35b348015610200575f80fd5b5061021b600480360381019061021691906111fa565b6109c1565b604051610228919061123d565b60405180910390f35b34801561023c575f80fd5b506102456109e1565b604051610252919061123d565b60405180910390f35b348015610266575f80fd5b5061026f6109e7565b005b34801561027c575f80fd5b5061029760048036038101906102929190611280565b610ac1565b005b3480156102a4575f80fd5b506102bf60048036038101906102ba9190611280565b610be9565b005b3480156102cc575f80fd5b506102e760048036038101906102e29190611280565b610d27565b005b3480156102f4575f80fd5b5061030f600480360381019061030a91906111fa565b610de8565b60405161031c91906112c5565b60405180910390f35b61033f600480360381019061033a9190611280565b610ebf565b005b34801561034c575f80fd5b50610367600480360381019061036291906111fa565b611157565b60405161037491906112c5565b60405180910390f35b5f8054906101000a900473ffffffffffffffffffffffffffffffffffffffff1681565b5f60015f9054906101000a900473ffffffffffffffffffffffffffffffffffffffff16905090565b426006541161040c576040517f08c379a000000000000000000000000000000000000000000000000000000000815260040161040390611338565b60405180910390fd5b5f60085f8373ffffffffffffffffffffffffffffffffffffffff1673ffffffffffffffffffffffffffffffffffffffff1681526020019081526020015f20541461048b576040517f08c379a0000000000000000000000000000000000000000000000000000000008152600401610482906113a0565b60405180910390fd5b60055460035460045461049e91906113eb565b11156104df576040517f08c379a00000000000000000000000000000000000000000000000000000000081526004016104d690611468565b60405180910390fd5b6003546104eb30610782565b101561052c576040517f08c379a0000000000000000000000000000000000000000000000000000000008152600401610523906114d0565b60405180910390fd5b60015f9054906101000a900473ffffffffffffffffffffffffffffffffffffffff1673ffffffffffffffffffffffffffffffffffffffff1663a9059cbb826003546040518363ffffffff1660e01b815260040161058a9291906114ee565b6020604051808303815f875af11580156105a6573d5f803e3d5ffd5b505050506040513d601f19601f820116820180604052508101906105ca919061153f565b5060035460085f8373ffffffffffffffffffffffffffffffffffffffff1673ffffffffffffffffffffffffffffffffffffffff1681526020019081526020015f208190555060035460045f82825461062291906113eb565b92505081905550600a5f8273ffffffffffffffffffffffffffffffffffffffff1673ffffffffffffffffffffffffffffffffffffffff1681526020019081526020015f205f9054906101000a900460ff166106e4576001600a5f8373ffffffffffffffffffffffffffffffffffffffff1673ffffffffffffffffffffffffffffffffffffffff1681526020019081526020015f205f6101000a81548160ff02191690831515021790555060075f8154809291906106de9061156a565b91905055505b60035460095f8373ffffffffffffffffffffffffffffffffffffffff1673ffffffffffffffffffffffffffffffffffffffff1681526020019081526020015f205f82825461073291906113eb565b925050819055506003548173ffffffffffffffffffffffffffffffffffffffff167f8c32c568416fcf97be35ce5b27844cfddcd63a67a1a602c3595ba5dac38f303a60405160405180910390a350565b5f60015f9054906101000a900473ffffffffffffffffffffffffffffffffffffffff1673ffffffffffffffffffffffffffffffffffffffff166370a08231836040518263ffffffff1660e01b81526004016107dd91906111b3565b602060405180830381865afa1580156107f8573d5f803e3d5ffd5b505050506040513d601f19601f8201168201806040525081019061081c91906115c5565b9050919050565b5f8054906101000a900473ffffffffffffffffffffffffffffffffffffffff1673ffffffffffffffffffffffffffffffffffffffff163373ffffffffffffffffffffffffffffffffffffffff16146108b0576040517f08c379a00000000000000000000000000000000000000000000000000000000081526004016108a79061163a565b60405180910390fd5b6108b930610782565b8111156108fb576040517f08c379a00000000000000000000000000000000000000000000000000000000081526004016108f2906116a2565b60405180910390fd5b60015f9054906101000a900473ffffffffffffffffffffffffffffffffffffffff1673ffffffffffffffffffffffffffffffffffffffff1663a9059cbb5f8054906101000a900473ffffffffffffffffffffffffffffffffffffffff16836040518363ffffffff1660e01b81526004016109769291906114ee565b6020604051808303815f875af1158015610992573d5f803e3d5ffd5b505050506040513d601f19601f820116820180604052508101906109b6919061153f565b5050565b5f30905090565b5f8173ffffffffffffffffffffffffffffffffffffffff16319050919050565b60075481565b5f8054906101000a900473ffffffffffffffffffffffffffffffffffffffff1673ffffffffffffffffffffffffffffffffffffffff163373ffffffffffffffffffffffffffffffffffffffff1614610a74576040517f08c379a0000000000000000000000000000000000000000000000000000000008152600401610a6b9061163a565b60405180910390fd5b4260065411610ab8576040517f08c379a0000000000000000000000000000000000000000000000000000000008152600401610aaf90611338565b60405180910390fd5b5f600681905550565b5f8054906101000a900473ffffffffffffffffffffffffffffffffffffffff1673ffffffffffffffffffffffffffffffffffffffff163373ffffffffffffffffffffffffffffffffffffffff1614610b4e576040517f08c379a0000000000000000000000000000000000000000000000000000000008152600401610b459061163a565b60405180910390fd5b5f60065414610b92576040517f08c379a0000000000000000000000000000000000000000000000000000000008152600401610b8990611338565b60405180910390fd5b5f8111610bd4576040517f08c379a0000000000000000000000000000000000000000000000000000000008152600401610bcb9061170a565b60405180910390fd5b8042610be091906113eb565b60068190555050565b5f8054906101000a900473ffffffffffffffffffffffffffffffffffffffff1673ffffffffffffffffffffffffffffffffffffffff163373ffffffffffffffffffffffffffffffffffffffff1614610c76576040517f08c379a0000000000000000000000000000000000000000000000000000000008152600401610c6d9061163a565b60405180910390fd5b610c7f306109c1565b811115610cc1576040517f08c379a0000000000000000000000000000000000000000000000000000000008152600401610cb8906116a2565b60405180910390fd5b5f8054906101000a900473ffffffffffffffffffffffffffffffffffffffff1673ffffffffffffffffffffffffffffffffffffffff166108fc8290811502906040515f60405180830381858888f19350505050158015610d23573d5f803e3d5ffd5b5050565b60015f9054906101000a900473ffffffffffffffffffffffffffffffffffffffff1673ffffffffffffffffffffffffffffffffffffffff166323b872dd5f8054906101000a900473ffffffffffffffffffffffffffffffffffffffff1630846040518463ffffffff1660e01b8152600401610da493929190611728565b6020604051808303815f875af1158015610dc0573d5f803e3d5ffd5b505050506040513d601f19601f82011682018060405250810190610de4919061153f565b5050565b5f805f9054906101000a900473ffffffffffffffffffffffffffffffffffffffff1673ffffffffffffffffffffffffffffffffffffffff163373ffffffffffffffffffffffffffffffffffffffff1614610e77576040517f08c379a0000000000000000000000000000000000000000000000000000000008152600401610e6e9061163a565b60405180910390fd5b815f806101000a81548173ffffffffffffffffffffffffffffffffffffffff021916908373ffffffffffffffffffffffffffffffffffffffff16021790555060019050919050565b4260065411610f03576040517f08c379a0000000000000000000000000000000000000000000000000000000008152600401610efa90611338565b60405180910390fd5b670de0b6b3a764000081610f17919061178a565b600254610f2491906117ba565b3414610f65576040517f08c379a0000000000000000000000000000000000000000000000000000000008152600401610f5c90611845565b60405180910390fd5b60015f9054906101000a900473ffffffffffffffffffffffffffffffffffffffff1673ffffffffffffffffffffffffffffffffffffffff1663a9059cbb33836040518363ffffffff1660e01b8152600401610fc19291906114ee565b6020604051808303815f875af1158015610fdd573d5f803e3d5ffd5b505050506040513d601f19601f82011682018060405250810190611001919061153f565b50600a5f3373ffffffffffffffffffffffffffffffffffffffff1673ffffffffffffffffffffffffffffffffffffffff1681526020019081526020015f205f9054906101000a900460ff166110bd576001600a5f3373ffffffffffffffffffffffffffffffffffffffff1673ffffffffffffffffffffffffffffffffffffffff1681526020019081526020015f205f6101000a81548160ff02191690831515021790555060075f8154809291906110b79061156a565b91905055505b8060095f3373ffffffffffffffffffffffffffffffffffffffff1673ffffffffffffffffffffffffffffffffffffffff1681526020019081526020015f205f82825461110991906113eb565b92505081905550803373ffffffffffffffffffffffffffffffffffffffff167fe3d4187f6ca4248660cc0ac8b8056515bac4a8132be2eca31d6d0cc170722a7e60405160405180910390a350565b600a602052805f5260405f205f915054906101000a900460ff1681565b5f73ffffffffffffffffffffffffffffffffffffffff82169050919050565b5f61119d82611174565b9050919050565b6111ad81611193565b82525050565b5f6020820190506111c65f8301846111a4565b92915050565b5f80fd5b6111d981611193565b81146111e3575f80fd5b50565b5f813590506111f4816111d0565b92915050565b5f6020828403121561120f5761120e6111cc565b5b5f61121c848285016111e6565b91505092915050565b5f819050919050565b61123781611225565b82525050565b5f6020820190506112505f83018461122e565b92915050565b61125f81611225565b8114611269575f80fd5b50565b5f8135905061127a81611256565b92915050565b5f60208284031215611295576112946111cc565b5b5f6112a28482850161126c565b91505092915050565b5f8115159050919050565b6112bf816112ab565b82525050565b5f6020820190506112d85f8301846112b6565b92915050565b5f82825260208201905092915050565b7f69636f49734163746976650000000000000000000000000000000000000000005f82015250565b5f611322600b836112de565b915061132d826112ee565b602082019050919050565b5f6020820190508181035f83015261134f81611316565b9050919050565b7f61697264726f70203a20416c72656164792068617320746861740000000000005f82015250565b5f61138a601a836112de565b915061139582611356565b602082019050919050565b5f6020820190508181035f8301526113b78161137e565b9050919050565b7f4e487b71000000000000000000000000000000000000000000000000000000005f52601160045260245ffd5b5f6113f582611225565b915061140083611225565b9250828201905080821115611418576114176113be565b5b92915050565b7f5f6d617841697264726f70416d6f756e740000000000000000000000000000005f82015250565b5f6114526011836112de565b915061145d8261141e565b602082019050919050565b5f6020820190508181035f83015261147f81611446565b9050919050565b7f4e6f20456e6f7567687420746f6b656e000000000000000000000000000000005f82015250565b5f6114ba6010836112de565b91506114c582611486565b602082019050919050565b5f6020820190508181035f8301526114e7816114ae565b9050919050565b5f6040820190506115015f8301856111a4565b61150e602083018461122e565b9392505050565b61151e816112ab565b8114611528575f80fd5b50565b5f8151905061153981611515565b92915050565b5f60208284031215611554576115536111cc565b5b5f6115618482850161152b565b91505092915050565b5f61157482611225565b91507fffffffffffffffffffffffffffffffffffffffffffffffffffffffffffffffff82036115a6576115a56113be565b5b600182019050919050565b5f815190506115bf81611256565b92915050565b5f602082840312156115da576115d96111cc565b5b5f6115e7848285016115b1565b91505092915050565b7f4f6e6c7941646d696e00000000000000000000000000000000000000000000005f82015250565b5f6116246009836112de565b915061162f826115f0565b602082019050919050565b5f6020820190508181035f83015261165181611618565b9050919050565b7f7769746864726177546f6b656e730000000000000000000000000000000000005f82015250565b5f61168c600e836112de565b915061169782611658565b602082019050919050565b5f6020820190508181035f8301526116b981611680565b9050919050565b7f6475726174696f6e203e203000000000000000000000000000000000000000005f82015250565b5f6116f4600c836112de565b91506116ff826116c0565b602082019050919050565b5f6020820190508181035f830152611721816116e8565b9050919050565b5f60608201905061173b5f8301866111a4565b61174860208301856111a4565b611755604083018461122e565b949350505050565b7f4e487b71000000000000000000000000000000000000000000000000000000005f52601260045260245ffd5b5f61179482611225565b915061179f83611225565b9250826117af576117ae61175d565b5b828204905092915050565b5f6117c482611225565b91506117cf83611225565b92508282026117dd81611225565b915082820484148315176117f4576117f36113be565b5b5092915050565b7f70757263686173652070726963650000000000000000000000000000000000005f82015250565b5f61182f600e836112de565b915061183a826117fb565b602082019050919050565b5f6020820190508181035f83015261185c81611823565b905091905056fea26469706673582212203d4be9c1f3a4cfb93cd128ac08ecb2552a2f13b6e165165a0c76f5fbbf2c9e2064736f6c63430008160033",
  "immutableReferences": {},
  "source": "// SPDX-License-Identifier: MIT\r\npragma solidity ^0.8.22;\r\nimport \"@openzeppelin/contracts/token/ERC20/IERC20.sol\";\r\ncontract MyICO {\r\n\r\n    address public  _admin;\r\n    IERC20 private _token;\r\n    uint private _tokenPrice = 10**15 wei;\r\n    uint private _airdropAmount = 100 * 1e18;\r\n    uint private _totalReleasedAirdrop;\r\n    uint private _maxAirdropAmount = 1_000_000 * 1e18;\r\n    uint private _icoEndTime;\r\n    uint public _holdesCount;\r\n\r\n    mapping (address => uint) private airdrops;\r\n    mapping (address => uint) private holders;\r\n    mapping (address => bool) public isInList;\r\n\r\n    event Buy(address indexed  buyerAddress,uint indexed amount);\r\n    event Airdrop(address indexed  receiverAddress,uint indexed amount);\r\n\r\n    constructor(address token,address admin) {\r\n        _token = IERC20(token);\r\n        _admin = admin;\r\n    }\r\n    \r\n    //Checkers\r\n    modifier OnlyAdmin(){\r\n        require(msg.sender ==_admin,\"OnlyAdmin\");\r\n        _;\r\n    }\r\n    modifier icoIsActive(){\r\n        require(_icoEndTime > block.timestamp,\"icoIsActive\");\r\n        _;\r\n    }\r\n    modifier icoIsDeActive(){\r\n        require(_icoEndTime == 0,\"icoIsActive\");\r\n        _;\r\n    }\r\n\r\n    function activate(uint duration) external OnlyAdmin icoIsDeActive{\r\n        require(duration > 0,\"duration > 0\");\r\n        _icoEndTime = block.timestamp + duration;\r\n    }\r\n\r\n    function deactivate() external OnlyAdmin icoIsActive{\r\n        _icoEndTime = 0;\r\n    }\r\n\r\n    function depositTokens(uint amount) public \r\n    {\r\n        _token.transferFrom(_admin, (address(this)), amount);\r\n    }\r\n\r\n    function airdrop(address receiver) external icoIsActive\r\n    {\r\n        require(airdrops[receiver] == 0,\"airdrop : Already has that\");\r\n        require(_totalReleasedAirdrop + _airdropAmount <= _maxAirdropAmount,\"_maxAirdropAmount\");\r\n        require(balanceOfTokens(address(this)) >= _airdropAmount ,\"No Enought token\");\r\n\r\n        _token.transfer(receiver, _airdropAmount);\r\n\r\n        airdrops[receiver] = _airdropAmount;\r\n        _totalReleasedAirdrop += _airdropAmount;\r\n        if (!isInList[receiver])\r\n        {\r\n            isInList[receiver] = true;\r\n            _holdesCount++;\r\n        }\r\n        holders[receiver] += _airdropAmount;\r\n\r\n        emit Airdrop(receiver,_airdropAmount);\r\n    }\r\n\r\n    function purchase(uint amount) external payable  icoIsActive\r\n    {\r\n        require(msg.value == (_tokenPrice * (amount / 1e18)),\"purchase price\");\r\n         _token.transfer(msg.sender, amount);\r\n\r\n          if (!isInList[msg.sender])\r\n        {\r\n            isInList[msg.sender] = true;\r\n            _holdesCount++;\r\n        }\r\n        holders[msg.sender] += amount;\r\n\r\n        emit Buy(msg.sender,amount);\r\n    }\r\n\r\n    function withdrawTokens(uint amount) external OnlyAdmin\r\n    {\r\n        require(amount <= balanceOfTokens(address(this)),\"withdrawTokens\");\r\n        _token.transfer(_admin, amount);\r\n    }\r\n\r\n    function withdrawEth(uint amount) external OnlyAdmin \r\n    {\r\n        require(amount <= balanceOfEth(address(this)),\"withdrawTokens\");\r\n        payable(_admin).transfer(amount);\r\n    }\r\n\r\n    /*\r\n        Utilities    \r\n    */\r\n    function balanceOfEth(address account) public view returns(uint)\r\n    {\r\n        return account.balance;\r\n    }\r\n    \r\n    function balanceOfTokens(address account) public view returns(uint)\r\n    {\r\n        return _token.balanceOf(account);\r\n    }\r\n\r\n    function getICOAdr() public view returns(address) \r\n    {\r\n        return address(this);\r\n    }\r\n\r\n    function getTokenAdr() public view returns(address) \r\n    {\r\n        return address(_token);\r\n    }\r\n\r\n    function updateAdmin(address newAdmin) public OnlyAdmin returns(bool)\r\n    {\r\n        _admin = newAdmin;\r\n        return true;\r\n    }\r\n}\r\n// 0x5B38Da6a701c568545dCfcB03FcB875f56beddC4 MyToken sender\r\n\r\n// 0xAb8483F64d9C6d1EcF9b849Ae677dD3315835cb2 MYICO sender\r\n\r\n// 0x0fC5025C764cE34df352757e82f7B5c4Df39A836 MyToken\r\n\r\n// 0x417Bf7C9dc415FEEb693B6FE313d1186C692600F MYICO",
  "sourcePath": "D:\\SolidityProjects\\P2_ICO\\FirstICO\\contracts\\ICO\\MyICO.sol",
  "compiler": {
    "name": "solc",
    "version": "0.8.22+commit.4fc1097e.Emscripten.clang"
  },
  "schemaVersion": "3.4.16",
  "updatedAt": "2024-11-30T06:55:19.930Z",
  "devdoc": {
    "kind": "dev",
    "methods": {},
    "version": 1
  },
  "userdoc": {
    "kind": "user",
    "methods": {},
    "version": 1
  }
}